{
  "abi": [
    {
      "inputs": [],
      "stateMutability": "nonpayable",
      "type": "constructor"
    },
    {
      "anonymous": false,
      "inputs": [
        {
          "indexed": false,
          "internalType": "string",
          "name": "prevURI",
          "type": "string"
        },
        {
          "indexed": false,
          "internalType": "string",
          "name": "newURI",
          "type": "string"
        }
      ],
      "name": "ContractURIUpdated",
      "type": "event"
    },
    {
      "anonymous": false,
      "inputs": [
        {
          "indexed": false,
          "internalType": "string",
          "name": "msg",
          "type": "string"
        }
      ],
      "name": "success",
      "type": "event"
    },
    {
      "inputs": [
        {
          "internalType": "address",
          "name": "_address",
          "type": "address"
        },
        {
          "internalType": "string",
          "name": "_name",
          "type": "string"
        },
        {
          "internalType": "uint256",
          "name": "_adminId",
          "type": "uint256"
        }
      ],
      "name": "addProduct",
      "outputs": [],
      "stateMutability": "nonpayable",
      "type": "function"
    },
    {
      "inputs": [
        {
          "internalType": "uint256",
          "name": "_healthPerc",
          "type": "uint256"
        },
        {
          "internalType": "string",
          "name": "_place",
          "type": "string"
        },
        {
          "internalType": "string",
          "name": "_time",
          "type": "string"
        },
        {
          "internalType": "uint256",
          "name": "_productId",
          "type": "uint256"
        },
        {
          "internalType": "address",
          "name": "_adminAdd",
          "type": "address"
        }
      ],
      "name": "addProductTInfo",
      "outputs": [],
      "stateMutability": "nonpayable",
      "type": "function"
    },
    {
      "inputs": [],
      "name": "adminCount",
      "outputs": [
        {
          "internalType": "uint256",
          "name": "",
          "type": "uint256"
        }
      ],
      "stateMutability": "view",
      "type": "function"
    },
    {
      "inputs": [
        {
          "internalType": "uint256",
          "name": "",
          "type": "uint256"
        }
      ],
      "name": "adminSt",
      "outputs": [
        {
          "internalType": "uint256",
          "name": "adminId",
          "type": "uint256"
        },
        {
          "internalType": "address",
          "name": "adminAdd",
          "type": "address"
        },
        {
          "internalType": "string",
          "name": "name",
          "type": "string"
        },
        {
          "internalType": "string",
          "name": "company_name",
          "type": "string"
        }
      ],
      "stateMutability": "view",
      "type": "function"
    },
    {
      "inputs": [
        {
          "internalType": "address",
          "name": "",
          "type": "address"
        }
      ],
      "name": "adminsM",
      "outputs": [
        {
          "internalType": "uint256",
          "name": "adminId",
          "type": "uint256"
        },
        {
          "internalType": "address",
          "name": "adminAdd",
          "type": "address"
        },
        {
          "internalType": "string",
          "name": "name",
          "type": "string"
        },
        {
          "internalType": "string",
          "name": "company_name",
          "type": "string"
        }
      ],
      "stateMutability": "view",
      "type": "function"
    },
    {
      "inputs": [
        {
          "internalType": "address",
          "name": "_address",
          "type": "address"
        }
      ],
      "name": "checkIfCompAdmin",
      "outputs": [
        {
          "internalType": "uint256",
          "name": "",
          "type": "uint256"
        }
      ],
      "stateMutability": "view",
      "type": "function"
    },
    {
      "inputs": [
        {
          "internalType": "address",
          "name": "_address",
          "type": "address"
        }
      ],
      "name": "checkIfOwner",
      "outputs": [
        {
          "internalType": "uint256",
          "name": "",
          "type": "uint256"
        }
      ],
      "stateMutability": "view",
      "type": "function"
    },
    {
      "inputs": [
        {
          "internalType": "address",
          "name": "_address",
          "type": "address"
        }
      ],
      "name": "checkIfSupplier",
      "outputs": [
        {
          "internalType": "uint256",
          "name": "",
          "type": "uint256"
        }
      ],
      "stateMutability": "view",
      "type": "function"
    },
    {
      "inputs": [],
      "name": "contractURI",
      "outputs": [
        {
          "internalType": "string",
          "name": "",
          "type": "string"
        }
      ],
      "stateMutability": "view",
      "type": "function"
    },
    {
      "inputs": [],
      "name": "getAllProducts",
      "outputs": [
        {
          "components": [
            {
              "internalType": "uint256",
              "name": "productId",
              "type": "uint256"
            },
            {
              "internalType": "string",
              "name": "name",
              "type": "string"
            },
            {
              "internalType": "uint256",
              "name": "adminId",
              "type": "uint256"
            }
          ],
          "internalType": "struct Supply.ProductInfo[]",
          "name": "",
          "type": "tuple[]"
        }
      ],
      "stateMutability": "view",
      "type": "function"
    },
    {
      "inputs": [
        {
          "internalType": "uint256",
          "name": "_productId",
          "type": "uint256"
        }
      ],
      "name": "getProductHist",
      "outputs": [
        {
          "components": [
            {
              "internalType": "uint256",
              "name": "healthPerc",
              "type": "uint256"
            },
            {
              "internalType": "address",
              "name": "workerA",
              "type": "address"
            },
            {
              "internalType": "string",
              "name": "place",
              "type": "string"
            },
            {
              "internalType": "string",
              "name": "time",
              "type": "string"
            },
            {
              "internalType": "uint256",
              "name": "productId",
              "type": "uint256"
            }
          ],
          "internalType": "struct Supply.ProductIT[]",
          "name": "",
          "type": "tuple[]"
        }
      ],
      "stateMutability": "view",
      "type": "function"
    },
    {
      "inputs": [],
      "name": "owner",
      "outputs": [
        {
          "internalType": "address",
          "name": "",
          "type": "address"
        }
      ],
      "stateMutability": "view",
      "type": "function"
    },
    {
      "inputs": [
        {
          "internalType": "uint256",
          "name": "",
          "type": "uint256"
        },
        {
          "internalType": "uint256",
          "name": "",
          "type": "uint256"
        }
      ],
      "name": "productIM",
      "outputs": [
        {
          "internalType": "uint256",
          "name": "healthPerc",
          "type": "uint256"
        },
        {
          "internalType": "address",
          "name": "workerA",
          "type": "address"
        },
        {
          "internalType": "string",
          "name": "place",
          "type": "string"
        },
        {
          "internalType": "string",
          "name": "time",
          "type": "string"
        },
        {
          "internalType": "uint256",
          "name": "productId",
          "type": "uint256"
        }
      ],
      "stateMutability": "view",
      "type": "function"
    },
    {
      "inputs": [
        {
          "internalType": "uint256",
          "name": "",
          "type": "uint256"
        }
      ],
      "name": "productSt",
      "outputs": [
        {
          "internalType": "uint256",
          "name": "productId",
          "type": "uint256"
        },
        {
          "internalType": "string",
          "name": "name",
          "type": "string"
        },
        {
          "internalType": "uint256",
          "name": "adminId",
          "type": "uint256"
        }
      ],
      "stateMutability": "view",
      "type": "function"
    },
    {
      "inputs": [
        {
          "internalType": "address",
          "name": "_address",
          "type": "address"
        },
        {
          "internalType": "string",
          "name": "_name",
          "type": "string"
        },
        {
          "internalType": "string",
          "name": "_company_name",
          "type": "string"
        }
      ],
      "name": "registerNewAdmin",
      "outputs": [],
      "stateMutability": "nonpayable",
      "type": "function"
    },
    {
      "inputs": [
        {
          "internalType": "address",
          "name": "_address",
          "type": "address"
        },
        {
          "internalType": "string",
          "name": "_name",
          "type": "string"
        },
        {
          "internalType": "address",
          "name": "_adminAdd",
          "type": "address"
        }
      ],
      "name": "registerNewSupplier",
      "outputs": [],
      "stateMutability": "nonpayable",
      "type": "function"
    },
    {
      "inputs": [
        {
          "internalType": "string",
          "name": "_name",
          "type": "string"
        },
        {
          "internalType": "address",
          "name": "_suppAdd",
          "type": "address"
        },
        {
          "internalType": "address",
          "name": "_adminAdd",
          "type": "address"
        }
      ],
      "name": "registerNewWorker",
      "outputs": [],
      "stateMutability": "nonpayable",
      "type": "function"
    },
    {
      "inputs": [
        {
          "internalType": "string",
          "name": "_uri",
          "type": "string"
        }
      ],
      "name": "setContractURI",
      "outputs": [],
      "stateMutability": "nonpayable",
      "type": "function"
    },
    {
      "inputs": [
        {
          "internalType": "address",
          "name": "",
          "type": "address"
        },
        {
          "internalType": "uint256",
          "name": "",
          "type": "uint256"
        }
      ],
      "name": "supplierM",
      "outputs": [
        {
          "internalType": "uint256",
          "name": "supplierId",
          "type": "uint256"
        },
        {
          "internalType": "address",
          "name": "supplierDD",
          "type": "address"
        },
        {
          "internalType": "string",
          "name": "name",
          "type": "string"
        },
        {
          "internalType": "address",
          "name": "adminAdd",
          "type": "address"
        }
      ],
      "stateMutability": "view",
      "type": "function"
    },
    {
      "inputs": [
        {
          "internalType": "uint256",
          "name": "",
          "type": "uint256"
        }
      ],
      "name": "supplierSt",
      "outputs": [
        {
          "internalType": "uint256",
          "name": "supplierId",
          "type": "uint256"
        },
        {
          "internalType": "address",
          "name": "supplierDD",
          "type": "address"
        },
        {
          "internalType": "string",
          "name": "name",
          "type": "string"
        },
        {
          "internalType": "address",
          "name": "adminAdd",
          "type": "address"
        }
      ],
      "stateMutability": "view",
      "type": "function"
    },
    {
      "inputs": [],
      "name": "viewAllAdmins",
      "outputs": [
        {
          "components": [
            {
              "internalType": "uint256",
              "name": "adminId",
              "type": "uint256"
            },
            {
              "internalType": "address",
              "name": "adminAdd",
              "type": "address"
            },
            {
              "internalType": "string",
              "name": "name",
              "type": "string"
            },
            {
              "internalType": "string",
              "name": "company_name",
              "type": "string"
            }
          ],
          "internalType": "struct Supply.AdminI[]",
          "name": "",
          "type": "tuple[]"
        }
      ],
      "stateMutability": "view",
      "type": "function"
    },
    {
      "inputs": [
        {
          "internalType": "address",
          "name": "_adminAdd",
          "type": "address"
        }
      ],
      "name": "viewAllSuppliers",
      "outputs": [
        {
          "components": [
            {
              "internalType": "uint256",
              "name": "supplierId",
              "type": "uint256"
            },
            {
              "internalType": "address",
              "name": "supplierDD",
              "type": "address"
            },
            {
              "internalType": "string",
              "name": "name",
              "type": "string"
            },
            {
              "internalType": "address",
              "name": "adminAdd",
              "type": "address"
            }
          ],
          "internalType": "struct Supply.SupplierI[]",
          "name": "",
          "type": "tuple[]"
        }
      ],
      "stateMutability": "view",
      "type": "function"
    },
    {
      "inputs": [
        {
          "internalType": "address",
          "name": "_adminAdd",
          "type": "address"
        }
      ],
      "name": "viewAllWorkers",
      "outputs": [
        {
          "components": [
            {
              "internalType": "uint256",
              "name": "workerId",
              "type": "uint256"
            },
            {
              "internalType": "address",
              "name": "workerDD",
              "type": "address"
            },
            {
              "internalType": "string",
              "name": "name",
              "type": "string"
            },
            {
              "internalType": "address",
              "name": "supplierAdd",
              "type": "address"
            }
          ],
          "internalType": "struct Supply.WorkerI[]",
          "name": "",
          "type": "tuple[]"
        }
      ],
      "stateMutability": "view",
      "type": "function"
    },
    {
      "inputs": [
        {
          "internalType": "address",
          "name": "",
          "type": "address"
        },
        {
          "internalType": "uint256",
          "name": "",
          "type": "uint256"
        }
      ],
      "name": "workerM",
      "outputs": [
        {
          "internalType": "uint256",
          "name": "workerId",
          "type": "uint256"
        },
        {
          "internalType": "address",
          "name": "workerDD",
          "type": "address"
        },
        {
          "internalType": "string",
          "name": "name",
          "type": "string"
        },
        {
          "internalType": "address",
          "name": "supplierAdd",
          "type": "address"
        }
      ],
      "stateMutability": "view",
      "type": "function"
    },
    {
      "inputs": [
        {
          "internalType": "uint256",
          "name": "",
          "type": "uint256"
        }
      ],
      "name": "workerSt",
      "outputs": [
        {
          "internalType": "uint256",
          "name": "workerId",
          "type": "uint256"
        },
        {
          "internalType": "address",
          "name": "workerDD",
          "type": "address"
        },
        {
          "internalType": "string",
          "name": "name",
          "type": "string"
        },
        {
          "internalType": "address",
          "name": "supplierAdd",
          "type": "address"
        }
      ],
      "stateMutability": "view",
      "type": "function"
    }
  ],
  "devdoc": {
    "kind": "dev",
    "methods": {
      "setContractURI(string)": {
        "details": "Caller should be authorized to setup contractURI, e.g. contract admin.                  See {_canSetContractURI}.                  Emits {ContractURIUpdated Event}.",
        "params": {
          "_uri": "keccak256 hash of the role. e.g. keccak256(\"TRANSFER_ROLE\")"
        }
      }
    },
    "version": 1
  },
  "evm": {
    "assembly": "    /* \"Supply.sol\":124:5514  contract Supply is ContractMetadata {... */\n  mstore(0x40, 0x80)\n    /* \"Supply.sol\":1246:1317  constructor() {... */\n  callvalue\n  dup1\n  iszero\n  tag_1\n  jumpi\n  0x00\n  dup1\n  revert\ntag_1:\n  pop\n    /* \"Supply.sol\":1270:1275  owner */\n  0x01\n    /* \"Supply.sol\":1270:1288  owner = msg.sender */\n  dup1\n  sload\n  not(sub(shl(0xa0, 0x01), 0x01))\n  and\n    /* \"Supply.sol\":1278:1288  msg.sender */\n  caller\n    /* \"Supply.sol\":1270:1288  owner = msg.sender */\n  or\n  swap1\n  sstore\n    /* \"Supply.sol\":1270:1275  owner */\n  0x00\n    /* \"Supply.sol\":1298:1308  adminCount */\n  0x02\n    /* \"Supply.sol\":1298:1310  adminCount=0 */\n  sstore\n    /* \"Supply.sol\":124:5514  contract Supply is ContractMetadata {... */\n  dataSize(sub_0)\n  dup1\n  dataOffset(sub_0)\n  0x00\n  codecopy\n  0x00\n  return\nstop\n\nsub_0: assembly {\n        /* \"Supply.sol\":124:5514  contract Supply is ContractMetadata {... */\n      mstore(0x40, 0x80)\n      callvalue\n      dup1\n      iszero\n      tag_1\n      jumpi\n      0x00\n      dup1\n      revert\n    tag_1:\n      pop\n      jumpi(tag_2, lt(calldatasize, 0x04))\n      shr(0xe0, calldataload(0x00))\n      dup1\n      0x862ac083\n      gt\n      tag_28\n      jumpi\n      dup1\n      0xa59ec470\n      gt\n      tag_29\n      jumpi\n      dup1\n      0xc022eb28\n      gt\n      tag_30\n      jumpi\n      dup1\n      0xc022eb28\n      eq\n      tag_24\n      jumpi\n      dup1\n      0xcca5822f\n      eq\n      tag_25\n      jumpi\n      dup1\n      0xdde9c196\n      eq\n      tag_26\n      jumpi\n      dup1\n      0xe8a3d485\n      eq\n      tag_27\n      jumpi\n      0x00\n      dup1\n      revert\n    tag_30:\n      dup1\n      0xa59ec470\n      eq\n      tag_21\n      jumpi\n      dup1\n      0xac3aeac9\n      eq\n      tag_22\n      jumpi\n      dup1\n      0xae422599\n      eq\n      tag_23\n      jumpi\n      0x00\n      dup1\n      revert\n    tag_29:\n      dup1\n      0x8da5cb5b\n      gt\n      tag_31\n      jumpi\n      dup1\n      0x8da5cb5b\n      eq\n      tag_18\n      jumpi\n      dup1\n      0x938e3d7b\n      eq\n      tag_19\n      jumpi\n      dup1\n      0x9acc36b5\n      eq\n      tag_20\n      jumpi\n      0x00\n      dup1\n      revert\n    tag_31:\n      dup1\n      0x862ac083\n      eq\n      tag_15\n      jumpi\n      dup1\n      0x89ca5b68\n      eq\n      tag_16\n      jumpi\n      dup1\n      0x8b207dd8\n      eq\n      tag_17\n      jumpi\n      0x00\n      dup1\n      revert\n    tag_28:\n      dup1\n      0x5083f4b3\n      gt\n      tag_32\n      jumpi\n      dup1\n      0x583716ae\n      gt\n      tag_33\n      jumpi\n      dup1\n      0x583716ae\n      eq\n      tag_12\n      jumpi\n      dup1\n      0x62f080b0\n      eq\n      tag_13\n      jumpi\n      dup1\n      0x727f682b\n      eq\n      tag_14\n      jumpi\n      0x00\n      dup1\n      revert\n    tag_33:\n      dup1\n      0x5083f4b3\n      eq\n      tag_9\n      jumpi\n      dup1\n      0x538875e1\n      eq\n      tag_10\n      jumpi\n      dup1\n      0x57e899e3\n      eq\n      tag_11\n      jumpi\n      0x00\n      dup1\n      revert\n    tag_32:\n      dup1\n      0x149d7e7f\n      gt\n      tag_34\n      jumpi\n      dup1\n      0x149d7e7f\n      eq\n      tag_6\n      jumpi\n      dup1\n      0x2af673a3\n      eq\n      tag_7\n      jumpi\n      dup1\n      0x2b7832b3\n      eq\n      tag_8\n      jumpi\n      0x00\n      dup1\n      revert\n    tag_34:\n      dup1\n      0x02ee3a52\n      eq\n      tag_3\n      jumpi\n      dup1\n      0x0e4e60d7\n      eq\n      tag_4\n      jumpi\n      dup1\n      0x0ea69718\n      eq\n      tag_5\n      jumpi\n    tag_2:\n      0x00\n      dup1\n      revert\n        /* \"Supply.sol\":5156:5256  function getAllProducts() public view returns(ProductInfo[] memory){... */\n    tag_3:\n      tag_35\n      tag_36\n      jump\t// in\n    tag_35:\n      mload(0x40)\n      tag_37\n      swap2\n      swap1\n      tag_38\n      jump\t// in\n    tag_37:\n      mload(0x40)\n      dup1\n      swap2\n      sub\n      swap1\n      return\n        /* \"Supply.sol\":1029:1074  mapping(uint => ProductIT[]) public productIM */\n    tag_4:\n      tag_39\n      tag_40\n      calldatasize\n      0x04\n      tag_41\n      jump\t// in\n    tag_40:\n      tag_42\n      jump\t// in\n    tag_39:\n      mload(0x40)\n      tag_37\n      swap6\n      swap5\n      swap4\n      swap3\n      swap2\n      swap1\n      tag_44\n      jump\t// in\n        /* \"Supply.sol\":5262:5387  function getProductHist(uint _productId) public view returns(ProductIT[] memory){... */\n    tag_5:\n      tag_45\n      tag_46\n      calldatasize\n      0x04\n      tag_47\n      jump\t// in\n    tag_46:\n      tag_48\n      jump\t// in\n    tag_45:\n      mload(0x40)\n      tag_37\n      swap2\n      swap1\n      tag_50\n      jump\t// in\n        /* \"Supply.sol\":925:973  mapping(address => SupplierI[]) public supplierM */\n    tag_6:\n      tag_51\n      tag_52\n      calldatasize\n      0x04\n      tag_53\n      jump\t// in\n    tag_52:\n      tag_54\n      jump\t// in\n    tag_51:\n      mload(0x40)\n      tag_37\n      swap5\n      swap4\n      swap3\n      swap2\n      swap1\n      tag_56\n      jump\t// in\n        /* \"Supply.sol\":878:919  mapping(address => AdminI) public adminsM */\n    tag_7:\n      tag_57\n      tag_58\n      calldatasize\n      0x04\n      tag_59\n      jump\t// in\n    tag_58:\n      tag_60\n      jump\t// in\n    tag_57:\n      mload(0x40)\n      tag_37\n      swap5\n      swap4\n      swap3\n      swap2\n      swap1\n      tag_62\n      jump\t// in\n        /* \"Supply.sol\":192:214  uint public adminCount */\n    tag_8:\n      tag_63\n      sload(0x02)\n      dup2\n      jump\n    tag_63:\n      mload(0x40)\n        /* \"#utility.yul\":6067:6092   */\n      swap1\n      dup2\n      mstore\n        /* \"#utility.yul\":6055:6057   */\n      0x20\n        /* \"#utility.yul\":6040:6058   */\n      add\n        /* \"Supply.sol\":192:214  uint public adminCount */\n      tag_37\n        /* \"#utility.yul\":5921:6098   */\n      jump\n        /* \"Supply.sol\":4796:4888  function viewAllAdmins() public view returns(AdminI[] memory){... */\n    tag_9:\n      tag_67\n      tag_68\n      jump\t// in\n    tag_67:\n      mload(0x40)\n      tag_37\n      swap2\n      swap1\n      tag_70\n      jump\t// in\n        /* \"Supply.sol\":4894:5022  function viewAllSuppliers(address _adminAdd) public view returns(SupplierI[] memory){... */\n    tag_10:\n      tag_71\n      tag_72\n      calldatasize\n      0x04\n      tag_59\n      jump\t// in\n    tag_72:\n      tag_73\n      jump\t// in\n    tag_71:\n      mload(0x40)\n      tag_37\n      swap2\n      swap1\n      tag_75\n      jump\t// in\n        /* \"Supply.sol\":4116:4790  function addProductTInfo(... */\n    tag_11:\n      tag_76\n      tag_77\n      calldatasize\n      0x04\n      tag_78\n      jump\t// in\n    tag_77:\n      tag_79\n      jump\t// in\n    tag_76:\n      stop\n        /* \"Supply.sol\":1887:2462  function registerNewAdmin(... */\n    tag_12:\n      tag_76\n      tag_81\n      calldatasize\n      0x04\n      tag_82\n      jump\t// in\n    tag_81:\n      tag_83\n      jump\t// in\n        /* \"Supply.sol\":3119:3709  function registerNewWorker(... */\n    tag_13:\n      tag_76\n      tag_85\n      calldatasize\n      0x04\n      tag_86\n      jump\t// in\n    tag_85:\n      tag_87\n      jump\t// in\n        /* \"Supply.sol\":3715:4110  function addProduct(... */\n    tag_14:\n      tag_76\n      tag_89\n      calldatasize\n      0x04\n      tag_90\n      jump\t// in\n    tag_89:\n      tag_91\n      jump\t// in\n        /* \"Supply.sol\":2468:3105  function registerNewSupplier(... */\n    tag_15:\n      tag_76\n      tag_93\n      calldatasize\n      0x04\n      tag_94\n      jump\t// in\n    tag_93:\n      tag_95\n      jump\t// in\n        /* \"Supply.sol\":1669:1881  function checkIfSupplier(address _address) public view returns(uint){... */\n    tag_16:\n      tag_63\n      tag_97\n      calldatasize\n      0x04\n      tag_59\n      jump\t// in\n    tag_97:\n      tag_98\n      jump\t// in\n        /* \"Supply.sol\":1081:1104  AdminI[] public adminSt */\n    tag_17:\n      tag_57\n      tag_101\n      calldatasize\n      0x04\n      tag_47\n      jump\t// in\n    tag_101:\n      tag_102\n      jump\t// in\n        /* \"Supply.sol\":166:186  address public owner */\n    tag_18:\n      sload(0x01)\n      tag_104\n      swap1\n      sub(shl(0xa0, 0x01), 0x01)\n      and\n      dup2\n      jump\n    tag_104:\n      mload(0x40)\n      sub(shl(0xa0, 0x01), 0x01)\n        /* \"#utility.yul\":12654:12709   */\n      swap1\n      swap2\n      and\n        /* \"#utility.yul\":12636:12710   */\n      dup2\n      mstore\n        /* \"#utility.yul\":12624:12626   */\n      0x20\n        /* \"#utility.yul\":12609:12627   */\n      add\n        /* \"Supply.sol\":166:186  address public owner */\n      tag_37\n        /* \"#utility.yul\":12490:12716   */\n      jump\n        /* \"@thirdweb-dev/contracts/extension/ContractMetadata.sol\":1003:1191   */\n    tag_19:\n      tag_76\n      tag_109\n      calldatasize\n      0x04\n      tag_110\n      jump\t// in\n    tag_109:\n      tag_111\n      jump\t// in\n        /* \"Supply.sol\":1110:1139  SupplierI[] public supplierSt */\n    tag_20:\n      tag_51\n      tag_113\n      calldatasize\n      0x04\n      tag_47\n      jump\t// in\n    tag_113:\n      tag_114\n      jump\t// in\n        /* \"Supply.sol\":979:1023  mapping(address => WorkerI[]) public workerM */\n    tag_21:\n      tag_51\n      tag_117\n      calldatasize\n      0x04\n      tag_53\n      jump\t// in\n    tag_117:\n      tag_118\n      jump\t// in\n        /* \"Supply.sol\":5028:5150  function viewAllWorkers(address _adminAdd) public view returns(WorkerI[] memory){... */\n    tag_22:\n      tag_120\n      tag_121\n      calldatasize\n      0x04\n      tag_59\n      jump\t// in\n    tag_121:\n      tag_122\n      jump\t// in\n    tag_120:\n      mload(0x40)\n      tag_37\n      swap2\n      swap1\n      tag_124\n      jump\t// in\n        /* \"Supply.sol\":1145:1170  WorkerI[] public workerSt */\n    tag_23:\n      tag_51\n      tag_126\n      calldatasize\n      0x04\n      tag_47\n      jump\t// in\n    tag_126:\n      tag_127\n      jump\t// in\n        /* \"Supply.sol\":1323:1452  function checkIfOwner(address _address) public view returns(uint){... */\n    tag_24:\n      tag_63\n      tag_130\n      calldatasize\n      0x04\n      tag_59\n      jump\t// in\n    tag_130:\n      tag_131\n      jump\t// in\n        /* \"Supply.sol\":1458:1663  function checkIfCompAdmin(address _address) public view returns(uint){... */\n    tag_25:\n      tag_63\n      tag_134\n      calldatasize\n      0x04\n      tag_59\n      jump\t// in\n    tag_134:\n      tag_135\n      jump\t// in\n        /* \"Supply.sol\":1176:1206  ProductInfo[] public productSt */\n    tag_26:\n      tag_137\n      tag_138\n      calldatasize\n      0x04\n      tag_47\n      jump\t// in\n    tag_138:\n      tag_139\n      jump\t// in\n    tag_137:\n      mload(0x40)\n      tag_37\n      swap4\n      swap3\n      swap2\n      swap1\n      tag_141\n      jump\t// in\n        /* \"@thirdweb-dev/contracts/extension/ContractMetadata.sol\":565:599   */\n    tag_27:\n      tag_142\n      tag_143\n      jump\t// in\n    tag_142:\n      mload(0x40)\n      tag_37\n      swap2\n      swap1\n      tag_145\n      jump\t// in\n        /* \"Supply.sol\":5156:5256  function getAllProducts() public view returns(ProductInfo[] memory){... */\n    tag_36:\n        /* \"Supply.sol\":5202:5222  ProductInfo[] memory */\n      0x60\n        /* \"Supply.sol\":5240:5249  productSt */\n      0x0a\n        /* \"Supply.sol\":5233:5249  return productSt */\n      dup1\n      sload\n      dup1\n      0x20\n      mul\n      0x20\n      add\n      mload(0x40)\n      swap1\n      dup2\n      add\n      0x40\n      mstore\n      dup1\n      swap3\n      swap2\n      swap1\n      dup2\n      dup2\n      mstore\n      0x20\n      add\n      0x00\n      swap1\n    tag_147:\n      dup3\n      dup3\n      lt\n      iszero\n      tag_148\n      jumpi\n      dup4\n      dup3\n      swap1\n      0x00\n      mstore\n      keccak256(0x00, 0x20)\n      swap1\n      0x03\n      mul\n      add\n      mload(0x40)\n      dup1\n      0x60\n      add\n      0x40\n      mstore\n      swap1\n      dup2\n      0x00\n      dup3\n      add\n      sload\n      dup2\n      mstore\n      0x20\n      add\n      0x01\n      dup3\n      add\n      dup1\n      sload\n      tag_150\n      swap1\n      tag_151\n      jump\t// in\n    tag_150:\n      dup1\n      0x1f\n      add\n      0x20\n      dup1\n      swap2\n      div\n      mul\n      0x20\n      add\n      mload(0x40)\n      swap1\n      dup2\n      add\n      0x40\n      mstore\n      dup1\n      swap3\n      swap2\n      swap1\n      dup2\n      dup2\n      mstore\n      0x20\n      add\n      dup3\n      dup1\n      sload\n      tag_152\n      swap1\n      tag_151\n      jump\t// in\n    tag_152:\n      dup1\n      iszero\n      tag_153\n      jumpi\n      dup1\n      0x1f\n      lt\n      tag_154\n      jumpi\n      0x0100\n      dup1\n      dup4\n      sload\n      div\n      mul\n      dup4\n      mstore\n      swap2\n      0x20\n      add\n      swap2\n      jump(tag_153)\n    tag_154:\n      dup3\n      add\n      swap2\n      swap1\n      0x00\n      mstore\n      keccak256(0x00, 0x20)\n      swap1\n    tag_155:\n      dup2\n      sload\n      dup2\n      mstore\n      swap1\n      0x01\n      add\n      swap1\n      0x20\n      add\n      dup1\n      dup4\n      gt\n      tag_155\n      jumpi\n      dup3\n      swap1\n      sub\n      0x1f\n      and\n      dup3\n      add\n      swap2\n    tag_153:\n      pop\n      pop\n      pop\n      pop\n      pop\n      dup2\n      mstore\n      0x20\n      add\n      0x02\n      dup3\n      add\n      sload\n      dup2\n      mstore\n      pop\n      pop\n      dup2\n      mstore\n      0x20\n      add\n      swap1\n      0x01\n      add\n      swap1\n      jump(tag_147)\n    tag_148:\n      pop\n      pop\n      pop\n      pop\n      swap1\n      pop\n        /* \"Supply.sol\":5156:5256  function getAllProducts() public view returns(ProductInfo[] memory){... */\n      swap1\n      jump\t// out\n        /* \"Supply.sol\":1029:1074  mapping(uint => ProductIT[]) public productIM */\n    tag_42:\n      mstore(0x20, 0x06)\n      dup2\n      0x00\n      mstore\n      keccak256(0x00, 0x40)\n      dup2\n      dup2\n      sload\n      dup2\n      lt\n      tag_156\n      jumpi\n      0x00\n      dup1\n      revert\n    tag_156:\n      0x00\n      swap2\n      dup3\n      mstore\n      0x20\n      swap1\n      swap2\n      keccak256\n      0x05\n      swap1\n      swap2\n      mul\n      add\n      dup1\n      sload\n      0x01\n      dup3\n      add\n      sload\n      0x02\n      dup4\n      add\n      dup1\n      sload\n      swap3\n      swap6\n      pop\n      sub(shl(0xa0, 0x01), 0x01)\n      swap1\n      swap2\n      and\n      swap4\n      pop\n      swap1\n      tag_158\n      swap1\n      tag_151\n      jump\t// in\n    tag_158:\n      dup1\n      0x1f\n      add\n      0x20\n      dup1\n      swap2\n      div\n      mul\n      0x20\n      add\n      mload(0x40)\n      swap1\n      dup2\n      add\n      0x40\n      mstore\n      dup1\n      swap3\n      swap2\n      swap1\n      dup2\n      dup2\n      mstore\n      0x20\n      add\n      dup3\n      dup1\n      sload\n      tag_159\n      swap1\n      tag_151\n      jump\t// in\n    tag_159:\n      dup1\n      iszero\n      tag_160\n      jumpi\n      dup1\n      0x1f\n      lt\n      tag_161\n      jumpi\n      0x0100\n      dup1\n      dup4\n      sload\n      div\n      mul\n      dup4\n      mstore\n      swap2\n      0x20\n      add\n      swap2\n      jump(tag_160)\n    tag_161:\n      dup3\n      add\n      swap2\n      swap1\n      0x00\n      mstore\n      keccak256(0x00, 0x20)\n      swap1\n    tag_162:\n      dup2\n      sload\n      dup2\n      mstore\n      swap1\n      0x01\n      add\n      swap1\n      0x20\n      add\n      dup1\n      dup4\n      gt\n      tag_162\n      jumpi\n      dup3\n      swap1\n      sub\n      0x1f\n      and\n      dup3\n      add\n      swap2\n    tag_160:\n      pop\n      pop\n      pop\n      pop\n      pop\n      swap1\n      dup1\n      0x03\n      add\n      dup1\n      sload\n      tag_163\n      swap1\n      tag_151\n      jump\t// in\n    tag_163:\n      dup1\n      0x1f\n      add\n      0x20\n      dup1\n      swap2\n      div\n      mul\n      0x20\n      add\n      mload(0x40)\n      swap1\n      dup2\n      add\n      0x40\n      mstore\n      dup1\n      swap3\n      swap2\n      swap1\n      dup2\n      dup2\n      mstore\n      0x20\n      add\n      dup3\n      dup1\n      sload\n      tag_164\n      swap1\n      tag_151\n      jump\t// in\n    tag_164:\n      dup1\n      iszero\n      tag_165\n      jumpi\n      dup1\n      0x1f\n      lt\n      tag_166\n      jumpi\n      0x0100\n      dup1\n      dup4\n      sload\n      div\n      mul\n      dup4\n      mstore\n      swap2\n      0x20\n      add\n      swap2\n      jump(tag_165)\n    tag_166:\n      dup3\n      add\n      swap2\n      swap1\n      0x00\n      mstore\n      keccak256(0x00, 0x20)\n      swap1\n    tag_167:\n      dup2\n      sload\n      dup2\n      mstore\n      swap1\n      0x01\n      add\n      swap1\n      0x20\n      add\n      dup1\n      dup4\n      gt\n      tag_167\n      jumpi\n      dup3\n      swap1\n      sub\n      0x1f\n      and\n      dup3\n      add\n      swap2\n    tag_165:\n      pop\n      pop\n      pop\n      pop\n      pop\n      swap1\n      dup1\n      0x04\n      add\n      sload\n      swap1\n      pop\n      dup6\n      jump\t// out\n        /* \"Supply.sol\":5262:5387  function getProductHist(uint _productId) public view returns(ProductIT[] memory){... */\n    tag_48:\n        /* \"Supply.sol\":5323:5341  ProductIT[] memory */\n      0x60\n        /* \"Supply.sol\":5359:5368  productIM */\n      0x06\n        /* \"Supply.sol\":5359:5380  productIM[_productId] */\n      0x00\n        /* \"Supply.sol\":5369:5379  _productId */\n      dup4\n        /* \"Supply.sol\":5359:5380  productIM[_productId] */\n      dup2\n      mstore\n      0x20\n      add\n      swap1\n      dup2\n      mstore\n      0x20\n      add\n      0x00\n      keccak256\n        /* \"Supply.sol\":5352:5380  return productIM[_productId] */\n      dup1\n      sload\n      dup1\n      0x20\n      mul\n      0x20\n      add\n      mload(0x40)\n      swap1\n      dup2\n      add\n      0x40\n      mstore\n      dup1\n      swap3\n      swap2\n      swap1\n      dup2\n      dup2\n      mstore\n      0x20\n      add\n      0x00\n      swap1\n    tag_169:\n      dup3\n      dup3\n      lt\n      iszero\n      tag_170\n      jumpi\n      0x00\n      dup5\n      dup2\n      mstore\n      0x20\n      swap1\n      dup2\n      swap1\n      keccak256\n      0x40\n      dup1\n      mload\n      0xa0\n      dup2\n      add\n      dup3\n      mstore\n      0x05\n      dup7\n      mul\n      swap1\n      swap3\n      add\n      dup1\n      sload\n      dup4\n      mstore\n      0x01\n      dup2\n      add\n      sload\n      sub(shl(0xa0, 0x01), 0x01)\n      and\n      swap4\n      dup4\n      add\n      swap4\n      swap1\n      swap4\n      mstore\n      0x02\n      dup4\n      add\n      dup1\n      sload\n      swap3\n      swap4\n      swap3\n      swap2\n      dup5\n      add\n      swap2\n      tag_172\n      swap1\n      tag_151\n      jump\t// in\n    tag_172:\n      dup1\n      0x1f\n      add\n      0x20\n      dup1\n      swap2\n      div\n      mul\n      0x20\n      add\n      mload(0x40)\n      swap1\n      dup2\n      add\n      0x40\n      mstore\n      dup1\n      swap3\n      swap2\n      swap1\n      dup2\n      dup2\n      mstore\n      0x20\n      add\n      dup3\n      dup1\n      sload\n      tag_173\n      swap1\n      tag_151\n      jump\t// in\n    tag_173:\n      dup1\n      iszero\n      tag_174\n      jumpi\n      dup1\n      0x1f\n      lt\n      tag_175\n      jumpi\n      0x0100\n      dup1\n      dup4\n      sload\n      div\n      mul\n      dup4\n      mstore\n      swap2\n      0x20\n      add\n      swap2\n      jump(tag_174)\n    tag_175:\n      dup3\n      add\n      swap2\n      swap1\n      0x00\n      mstore\n      keccak256(0x00, 0x20)\n      swap1\n    tag_176:\n      dup2\n      sload\n      dup2\n      mstore\n      swap1\n      0x01\n      add\n      swap1\n      0x20\n      add\n      dup1\n      dup4\n      gt\n      tag_176\n      jumpi\n      dup3\n      swap1\n      sub\n      0x1f\n      and\n      dup3\n      add\n      swap2\n    tag_174:\n      pop\n      pop\n      pop\n      pop\n      pop\n      dup2\n      mstore\n      0x20\n      add\n      0x03\n      dup3\n      add\n      dup1\n      sload\n      tag_177\n      swap1\n      tag_151\n      jump\t// in\n    tag_177:\n      dup1\n      0x1f\n      add\n      0x20\n      dup1\n      swap2\n      div\n      mul\n      0x20\n      add\n      mload(0x40)\n      swap1\n      dup2\n      add\n      0x40\n      mstore\n      dup1\n      swap3\n      swap2\n      swap1\n      dup2\n      dup2\n      mstore\n      0x20\n      add\n      dup3\n      dup1\n      sload\n      tag_178\n      swap1\n      tag_151\n      jump\t// in\n    tag_178:\n      dup1\n      iszero\n      tag_179\n      jumpi\n      dup1\n      0x1f\n      lt\n      tag_180\n      jumpi\n      0x0100\n      dup1\n      dup4\n      sload\n      div\n      mul\n      dup4\n      mstore\n      swap2\n      0x20\n      add\n      swap2\n      jump(tag_179)\n    tag_180:\n      dup3\n      add\n      swap2\n      swap1\n      0x00\n      mstore\n      keccak256(0x00, 0x20)\n      swap1\n    tag_181:\n      dup2\n      sload\n      dup2\n      mstore\n      swap1\n      0x01\n      add\n      swap1\n      0x20\n      add\n      dup1\n      dup4\n      gt\n      tag_181\n      jumpi\n      dup3\n      swap1\n      sub\n      0x1f\n      and\n      dup3\n      add\n      swap2\n    tag_179:\n      pop\n      pop\n      pop\n      pop\n      pop\n      dup2\n      mstore\n      0x20\n      add\n      0x04\n      dup3\n      add\n      sload\n      dup2\n      mstore\n      pop\n      pop\n      dup2\n      mstore\n      0x20\n      add\n      swap1\n      0x01\n      add\n      swap1\n      jump(tag_169)\n    tag_170:\n      pop\n      pop\n      pop\n      pop\n      swap1\n      pop\n        /* \"Supply.sol\":5262:5387  function getProductHist(uint _productId) public view returns(ProductIT[] memory){... */\n      swap2\n      swap1\n      pop\n      jump\t// out\n        /* \"Supply.sol\":925:973  mapping(address => SupplierI[]) public supplierM */\n    tag_54:\n      mstore(0x20, 0x04)\n      dup2\n      0x00\n      mstore\n      keccak256(0x00, 0x40)\n      dup2\n      dup2\n      sload\n      dup2\n      lt\n      tag_182\n      jumpi\n      0x00\n      dup1\n      revert\n    tag_182:\n      0x00\n      swap2\n      dup3\n      mstore\n      0x20\n      swap1\n      swap2\n      keccak256\n      0x04\n      swap1\n      swap2\n      mul\n      add\n      dup1\n      sload\n      0x01\n      dup3\n      add\n      sload\n      0x02\n      dup4\n      add\n      dup1\n      sload\n      swap3\n      swap6\n      pop\n      sub(shl(0xa0, 0x01), 0x01)\n      swap1\n      swap2\n      and\n      swap4\n      pop\n      swap1\n      tag_184\n      swap1\n      tag_151\n      jump\t// in\n    tag_184:\n      dup1\n      0x1f\n      add\n      0x20\n      dup1\n      swap2\n      div\n      mul\n      0x20\n      add\n      mload(0x40)\n      swap1\n      dup2\n      add\n      0x40\n      mstore\n      dup1\n      swap3\n      swap2\n      swap1\n      dup2\n      dup2\n      mstore\n      0x20\n      add\n      dup3\n      dup1\n      sload\n      tag_185\n      swap1\n      tag_151\n      jump\t// in\n    tag_185:\n      dup1\n      iszero\n      tag_186\n      jumpi\n      dup1\n      0x1f\n      lt\n      tag_187\n      jumpi\n      0x0100\n      dup1\n      dup4\n      sload\n      div\n      mul\n      dup4\n      mstore\n      swap2\n      0x20\n      add\n      swap2\n      jump(tag_186)\n    tag_187:\n      dup3\n      add\n      swap2\n      swap1\n      0x00\n      mstore\n      keccak256(0x00, 0x20)\n      swap1\n    tag_188:\n      dup2\n      sload\n      dup2\n      mstore\n      swap1\n      0x01\n      add\n      swap1\n      0x20\n      add\n      dup1\n      dup4\n      gt\n      tag_188\n      jumpi\n      dup3\n      swap1\n      sub\n      0x1f\n      and\n      dup3\n      add\n      swap2\n    tag_186:\n      pop\n      pop\n      pop\n      0x03\n      swap1\n      swap4\n      add\n      sload\n      swap2\n      swap3\n      pop\n      pop\n      sub(shl(0xa0, 0x01), 0x01)\n      and\n      dup5\n      jump\t// out\n        /* \"Supply.sol\":878:919  mapping(address => AdminI) public adminsM */\n    tag_60:\n      mstore(0x20, 0x03)\n      0x00\n      swap1\n      dup2\n      mstore\n      0x40\n      swap1\n      keccak256\n      dup1\n      sload\n      0x01\n      dup3\n      add\n      sload\n      0x02\n      dup4\n      add\n      dup1\n      sload\n      swap3\n      swap4\n      sub(shl(0xa0, 0x01), 0x01)\n      swap1\n      swap3\n      and\n      swap3\n      tag_189\n      swap1\n      tag_151\n      jump\t// in\n    tag_189:\n      dup1\n      0x1f\n      add\n      0x20\n      dup1\n      swap2\n      div\n      mul\n      0x20\n      add\n      mload(0x40)\n      swap1\n      dup2\n      add\n      0x40\n      mstore\n      dup1\n      swap3\n      swap2\n      swap1\n      dup2\n      dup2\n      mstore\n      0x20\n      add\n      dup3\n      dup1\n      sload\n      tag_190\n      swap1\n      tag_151\n      jump\t// in\n    tag_190:\n      dup1\n      iszero\n      tag_191\n      jumpi\n      dup1\n      0x1f\n      lt\n      tag_192\n      jumpi\n      0x0100\n      dup1\n      dup4\n      sload\n      div\n      mul\n      dup4\n      mstore\n      swap2\n      0x20\n      add\n      swap2\n      jump(tag_191)\n    tag_192:\n      dup3\n      add\n      swap2\n      swap1\n      0x00\n      mstore\n      keccak256(0x00, 0x20)\n      swap1\n    tag_193:\n      dup2\n      sload\n      dup2\n      mstore\n      swap1\n      0x01\n      add\n      swap1\n      0x20\n      add\n      dup1\n      dup4\n      gt\n      tag_193\n      jumpi\n      dup3\n      swap1\n      sub\n      0x1f\n      and\n      dup3\n      add\n      swap2\n    tag_191:\n      pop\n      pop\n      pop\n      pop\n      pop\n      swap1\n      dup1\n      0x03\n      add\n      dup1\n      sload\n      tag_194\n      swap1\n      tag_151\n      jump\t// in\n    tag_194:\n      dup1\n      0x1f\n      add\n      0x20\n      dup1\n      swap2\n      div\n      mul\n      0x20\n      add\n      mload(0x40)\n      swap1\n      dup2\n      add\n      0x40\n      mstore\n      dup1\n      swap3\n      swap2\n      swap1\n      dup2\n      dup2\n      mstore\n      0x20\n      add\n      dup3\n      dup1\n      sload\n      tag_195\n      swap1\n      tag_151\n      jump\t// in\n    tag_195:\n      dup1\n      iszero\n      tag_196\n      jumpi\n      dup1\n      0x1f\n      lt\n      tag_197\n      jumpi\n      0x0100\n      dup1\n      dup4\n      sload\n      div\n      mul\n      dup4\n      mstore\n      swap2\n      0x20\n      add\n      swap2\n      jump(tag_196)\n    tag_197:\n      dup3\n      add\n      swap2\n      swap1\n      0x00\n      mstore\n      keccak256(0x00, 0x20)\n      swap1\n    tag_198:\n      dup2\n      sload\n      dup2\n      mstore\n      swap1\n      0x01\n      add\n      swap1\n      0x20\n      add\n      dup1\n      dup4\n      gt\n      tag_198\n      jumpi\n      dup3\n      swap1\n      sub\n      0x1f\n      and\n      dup3\n      add\n      swap2\n    tag_196:\n      pop\n      pop\n      pop\n      pop\n      pop\n      swap1\n      pop\n      dup5\n      jump\t// out\n        /* \"Supply.sol\":4796:4888  function viewAllAdmins() public view returns(AdminI[] memory){... */\n    tag_68:\n        /* \"Supply.sol\":4841:4856  AdminI[] memory */\n      0x60\n        /* \"Supply.sol\":4874:4881  adminSt */\n      0x07\n        /* \"Supply.sol\":4867:4881  return adminSt */\n      dup1\n      sload\n      dup1\n      0x20\n      mul\n      0x20\n      add\n      mload(0x40)\n      swap1\n      dup2\n      add\n      0x40\n      mstore\n      dup1\n      swap3\n      swap2\n      swap1\n      dup2\n      dup2\n      mstore\n      0x20\n      add\n      0x00\n      swap1\n    tag_200:\n      dup3\n      dup3\n      lt\n      iszero\n      tag_148\n      jumpi\n      0x00\n      dup5\n      dup2\n      mstore\n      0x20\n      swap1\n      dup2\n      swap1\n      keccak256\n      0x40\n      dup1\n      mload\n      0x80\n      dup2\n      add\n      dup3\n      mstore\n      0x04\n      dup7\n      mul\n      swap1\n      swap3\n      add\n      dup1\n      sload\n      dup4\n      mstore\n      0x01\n      dup2\n      add\n      sload\n      sub(shl(0xa0, 0x01), 0x01)\n      and\n      swap4\n      dup4\n      add\n      swap4\n      swap1\n      swap4\n      mstore\n      0x02\n      dup4\n      add\n      dup1\n      sload\n      swap3\n      swap4\n      swap3\n      swap2\n      dup5\n      add\n      swap2\n      tag_203\n      swap1\n      tag_151\n      jump\t// in\n    tag_203:\n      dup1\n      0x1f\n      add\n      0x20\n      dup1\n      swap2\n      div\n      mul\n      0x20\n      add\n      mload(0x40)\n      swap1\n      dup2\n      add\n      0x40\n      mstore\n      dup1\n      swap3\n      swap2\n      swap1\n      dup2\n      dup2\n      mstore\n      0x20\n      add\n      dup3\n      dup1\n      sload\n      tag_204\n      swap1\n      tag_151\n      jump\t// in\n    tag_204:\n      dup1\n      iszero\n      tag_205\n      jumpi\n      dup1\n      0x1f\n      lt\n      tag_206\n      jumpi\n      0x0100\n      dup1\n      dup4\n      sload\n      div\n      mul\n      dup4\n      mstore\n      swap2\n      0x20\n      add\n      swap2\n      jump(tag_205)\n    tag_206:\n      dup3\n      add\n      swap2\n      swap1\n      0x00\n      mstore\n      keccak256(0x00, 0x20)\n      swap1\n    tag_207:\n      dup2\n      sload\n      dup2\n      mstore\n      swap1\n      0x01\n      add\n      swap1\n      0x20\n      add\n      dup1\n      dup4\n      gt\n      tag_207\n      jumpi\n      dup3\n      swap1\n      sub\n      0x1f\n      and\n      dup3\n      add\n      swap2\n    tag_205:\n      pop\n      pop\n      pop\n      pop\n      pop\n      dup2\n      mstore\n      0x20\n      add\n      0x03\n      dup3\n      add\n      dup1\n      sload\n      tag_208\n      swap1\n      tag_151\n      jump\t// in\n    tag_208:\n      dup1\n      0x1f\n      add\n      0x20\n      dup1\n      swap2\n      div\n      mul\n      0x20\n      add\n      mload(0x40)\n      swap1\n      dup2\n      add\n      0x40\n      mstore\n      dup1\n      swap3\n      swap2\n      swap1\n      dup2\n      dup2\n      mstore\n      0x20\n      add\n      dup3\n      dup1\n      sload\n      tag_209\n      swap1\n      tag_151\n      jump\t// in\n    tag_209:\n      dup1\n      iszero\n      tag_210\n      jumpi\n      dup1\n      0x1f\n      lt\n      tag_211\n      jumpi\n      0x0100\n      dup1\n      dup4\n      sload\n      div\n      mul\n      dup4\n      mstore\n      swap2\n      0x20\n      add\n      swap2\n      jump(tag_210)\n    tag_211:\n      dup3\n      add\n      swap2\n      swap1\n      0x00\n      mstore\n      keccak256(0x00, 0x20)\n      swap1\n    tag_212:\n      dup2\n      sload\n      dup2\n      mstore\n      swap1\n      0x01\n      add\n      swap1\n      0x20\n      add\n      dup1\n      dup4\n      gt\n      tag_212\n      jumpi\n      dup3\n      swap1\n      sub\n      0x1f\n      and\n      dup3\n      add\n      swap2\n    tag_210:\n      pop\n      pop\n      pop\n      pop\n      pop\n      dup2\n      mstore\n      pop\n      pop\n      dup2\n      mstore\n      0x20\n      add\n      swap1\n      0x01\n      add\n      swap1\n      jump(tag_200)\n        /* \"Supply.sol\":4894:5022  function viewAllSuppliers(address _adminAdd) public view returns(SupplierI[] memory){... */\n    tag_73:\n      sub(shl(0xa0, 0x01), 0x01)\n        /* \"Supply.sol\":4995:5015  supplierM[_adminAdd] */\n      dup2\n      and\n      0x00\n      swap1\n      dup2\n      mstore\n        /* \"Supply.sol\":4995:5004  supplierM */\n      0x04\n        /* \"Supply.sol\":4995:5015  supplierM[_adminAdd] */\n      0x20\n      swap1\n      dup2\n      mstore\n      0x40\n      dup1\n      dup4\n      keccak256\n        /* \"Supply.sol\":4988:5015  return supplierM[_adminAdd] */\n      dup1\n      sload\n      dup3\n      mload\n      dup2\n      dup6\n      mul\n      dup2\n      add\n      dup6\n      add\n      swap1\n      swap4\n      mstore\n      dup1\n      dup4\n      mstore\n        /* \"Supply.sol\":4959:4977  SupplierI[] memory */\n      0x60\n      swap5\n        /* \"Supply.sol\":4988:5015  return supplierM[_adminAdd] */\n      swap3\n      swap4\n        /* \"Supply.sol\":4995:5015  supplierM[_adminAdd] */\n      swap2\n      swap3\n        /* \"Supply.sol\":4988:5015  return supplierM[_adminAdd] */\n      swap1\n      swap2\n      dup5\n      add\n    tag_214:\n      dup3\n      dup3\n      lt\n      iszero\n      tag_170\n      jumpi\n      0x00\n      dup5\n      dup2\n      mstore\n      0x20\n      swap1\n      dup2\n      swap1\n      keccak256\n      0x40\n      dup1\n      mload\n      0x80\n      dup2\n      add\n      dup3\n      mstore\n      0x04\n      dup7\n      mul\n      swap1\n      swap3\n      add\n      dup1\n      sload\n      dup4\n      mstore\n      0x01\n      dup2\n      add\n      sload\n      sub(shl(0xa0, 0x01), 0x01)\n      and\n      swap4\n      dup4\n      add\n      swap4\n      swap1\n      swap4\n      mstore\n      0x02\n      dup4\n      add\n      dup1\n      sload\n      swap3\n      swap4\n      swap3\n      swap2\n      dup5\n      add\n      swap2\n      tag_217\n      swap1\n      tag_151\n      jump\t// in\n    tag_217:\n      dup1\n      0x1f\n      add\n      0x20\n      dup1\n      swap2\n      div\n      mul\n      0x20\n      add\n      mload(0x40)\n      swap1\n      dup2\n      add\n      0x40\n      mstore\n      dup1\n      swap3\n      swap2\n      swap1\n      dup2\n      dup2\n      mstore\n      0x20\n      add\n      dup3\n      dup1\n      sload\n      tag_218\n      swap1\n      tag_151\n      jump\t// in\n    tag_218:\n      dup1\n      iszero\n      tag_219\n      jumpi\n      dup1\n      0x1f\n      lt\n      tag_220\n      jumpi\n      0x0100\n      dup1\n      dup4\n      sload\n      div\n      mul\n      dup4\n      mstore\n      swap2\n      0x20\n      add\n      swap2\n      jump(tag_219)\n    tag_220:\n      dup3\n      add\n      swap2\n      swap1\n      0x00\n      mstore\n      keccak256(0x00, 0x20)\n      swap1\n    tag_221:\n      dup2\n      sload\n      dup2\n      mstore\n      swap1\n      0x01\n      add\n      swap1\n      0x20\n      add\n      dup1\n      dup4\n      gt\n      tag_221\n      jumpi\n      dup3\n      swap1\n      sub\n      0x1f\n      and\n      dup3\n      add\n      swap2\n    tag_219:\n      pop\n      pop\n      pop\n      swap2\n      dup4\n      mstore\n      pop\n      pop\n      0x03\n      swap2\n      swap1\n      swap2\n      add\n      sload\n      sub(shl(0xa0, 0x01), 0x01)\n      and\n      0x20\n      swap2\n      dup3\n      add\n      mstore\n      swap1\n      dup3\n      mstore\n      0x01\n      swap3\n      swap1\n      swap3\n      add\n      swap2\n      add\n      jump(tag_214)\n        /* \"Supply.sol\":4116:4790  function addProductTInfo(... */\n    tag_79:\n        /* \"Supply.sol\":4332:4355  checkIfOwner(_adminAdd) */\n      tag_223\n        /* \"Supply.sol\":4345:4354  _adminAdd */\n      dup2\n        /* \"Supply.sol\":4332:4344  checkIfOwner */\n      tag_131\n        /* \"Supply.sol\":4332:4355  checkIfOwner(_adminAdd) */\n      jump\t// in\n    tag_223:\n      pop\n        /* \"Supply.sol\":4373:4400  checkIfCompAdmin(_adminAdd) */\n      tag_224\n        /* \"Supply.sol\":4390:4399  _adminAdd */\n      dup2\n        /* \"Supply.sol\":4373:4389  checkIfCompAdmin */\n      tag_135\n        /* \"Supply.sol\":4373:4400  checkIfCompAdmin(_adminAdd) */\n      jump\t// in\n    tag_224:\n      pop\n        /* \"Supply.sol\":4418:4444  checkIfSupplier(_adminAdd) */\n      tag_225\n        /* \"Supply.sol\":4434:4443  _adminAdd */\n      dup2\n        /* \"Supply.sol\":4418:4433  checkIfSupplier */\n      tag_98\n        /* \"Supply.sol\":4418:4444  checkIfSupplier(_adminAdd) */\n      jump\t// in\n    tag_225:\n      pop\n        /* \"Supply.sol\":4494:4720  ProductIT({... */\n      0x40\n      dup1\n      mload\n      0xa0\n      dup2\n      add\n      dup3\n      mstore\n      dup7\n      dup2\n      mstore\n        /* \"Supply.sol\":4580:4590  msg.sender */\n      caller\n        /* \"Supply.sol\":4494:4720  ProductIT({... */\n      0x20\n      dup1\n      dup4\n      add\n      swap2\n      dup3\n      mstore\n      dup3\n      dup5\n      add\n      dup9\n      dup2\n      mstore\n      0x60\n      dup5\n      add\n      dup9\n      swap1\n      mstore\n      0x80\n      dup5\n      add\n      dup8\n      swap1\n      mstore\n      0x00\n        /* \"Supply.sol\":4739:4760  productIM[_productId] */\n      dup8\n      dup2\n      mstore\n        /* \"Supply.sol\":4739:4748  productIM */\n      0x06\n        /* \"Supply.sol\":4739:4760  productIM[_productId] */\n      dup4\n      mstore\n      swap5\n      dup6\n      keccak256\n        /* \"Supply.sol\":4739:4779  productIM[_productId].push(newProductIT) */\n      dup1\n      sload\n      0x01\n      dup1\n      dup3\n      add\n      dup4\n      sstore\n      swap2\n      dup8\n      mstore\n      swap3\n      swap1\n      swap6\n      keccak256\n      dup5\n      mload\n      0x05\n      swap1\n      swap4\n      mul\n      add\n      swap2\n      dup3\n      sstore\n      swap2\n      mload\n      swap4\n      dup2\n      add\n      dup1\n      sload\n      not(sub(shl(0xa0, 0x01), 0x01))\n      and\n      sub(shl(0xa0, 0x01), 0x01)\n      swap1\n      swap6\n      and\n      swap5\n      swap1\n      swap5\n      or\n      swap1\n      swap4\n      sstore\n      mload\n        /* \"Supply.sol\":4494:4720  ProductIT({... */\n      swap1\n      swap2\n      dup3\n      swap2\n        /* \"Supply.sol\":4739:4779  productIM[_productId].push(newProductIT) */\n      0x02\n      dup3\n      add\n      swap1\n      tag_227\n      swap1\n      dup3\n      tag_228\n      jump\t// in\n    tag_227:\n      pop\n      0x60\n      dup3\n      add\n      mload\n      0x03\n      dup3\n      add\n      swap1\n      tag_229\n      swap1\n      dup3\n      tag_228\n      jump\t// in\n    tag_229:\n      pop\n      0x80\n      dup3\n      add\n      mload\n      dup2\n      0x04\n      add\n      sstore\n      pop\n      pop\n        /* \"Supply.sol\":4314:4790  {... */\n      pop\n        /* \"Supply.sol\":4116:4790  function addProductTInfo(... */\n      pop\n      pop\n      pop\n      pop\n      pop\n      jump\t// out\n        /* \"Supply.sol\":1887:2462  function registerNewAdmin(... */\n    tag_83:\n        /* \"Supply.sol\":2036:2058  checkIfOwner(_address) */\n      tag_231\n        /* \"Supply.sol\":2049:2057  _address */\n      dup4\n        /* \"Supply.sol\":2036:2048  checkIfOwner */\n      tag_131\n        /* \"Supply.sol\":2036:2058  checkIfOwner(_address) */\n      jump\t// in\n    tag_231:\n      pop\n        /* \"Supply.sol\":2072:2095  AdminI memory newAdmins */\n      0x00\n        /* \"Supply.sol\":2098:2271  AdminI({... */\n      mload(0x40)\n      dup1\n      0x80\n      add\n      0x40\n      mstore\n      dup1\n        /* \"Supply.sol\":2132:2142  adminCount */\n      sload(0x02)\n        /* \"Supply.sol\":2143:2144  1 */\n      0x01\n        /* \"Supply.sol\":2132:2144  adminCount+1 */\n      tag_232\n      swap2\n      swap1\n      tag_233\n      jump\t// in\n    tag_232:\n        /* \"Supply.sol\":2098:2271  AdminI({... */\n      dup2\n      mstore\n        /* \"Supply.sol\":2172:2182  msg.sender */\n      caller\n        /* \"Supply.sol\":2098:2271  AdminI({... */\n      0x20\n      dup1\n      dup4\n      add\n      dup3\n      swap1\n      mstore\n      0x40\n      dup1\n      dup5\n      add\n      dup9\n      swap1\n      mstore\n      0x60\n      swap1\n      swap4\n      add\n      dup7\n      swap1\n      mstore\n      0x00\n        /* \"Supply.sol\":2286:2305  adminsM[msg.sender] */\n      swap2\n      dup3\n      mstore\n        /* \"Supply.sol\":2286:2293  adminsM */\n      0x03\n        /* \"Supply.sol\":2286:2305  adminsM[msg.sender] */\n      dup2\n      mstore\n      swap1\n      dup3\n      swap1\n      keccak256\n        /* \"Supply.sol\":2286:2317  adminsM[msg.sender] = newAdmins */\n      dup4\n      mload\n      dup2\n      sstore\n      swap1\n      dup4\n      add\n      mload\n      0x01\n      dup3\n      add\n      dup1\n      sload\n      not(sub(shl(0xa0, 0x01), 0x01))\n      and\n      sub(shl(0xa0, 0x01), 0x01)\n      swap1\n      swap3\n      and\n      swap2\n      swap1\n      swap2\n      or\n      swap1\n      sstore\n      swap1\n      dup3\n      add\n      mload\n      swap2\n      swap3\n      pop\n      dup3\n      swap2\n      0x02\n      dup3\n      add\n      swap1\n      tag_234\n      swap1\n      dup3\n      tag_228\n      jump\t// in\n    tag_234:\n      pop\n      0x60\n      dup3\n      add\n      mload\n      0x03\n      dup3\n      add\n      swap1\n      tag_235\n      swap1\n      dup3\n      tag_228\n      jump\t// in\n    tag_235:\n      pop\n      pop\n        /* \"Supply.sol\":2332:2339  adminSt */\n      0x07\n        /* \"Supply.sol\":2332:2355  adminSt.push(newAdmins) */\n      dup1\n      sload\n      0x01\n      dup2\n      add\n      dup3\n      sstore\n      0x00\n      swap2\n      swap1\n      swap2\n      mstore\n      dup3\n      mload\n      0xa66cc928b5edb82af9bd49922954155ab7b0942694bea4ce44661d9a8736c688\n      0x04\n      swap1\n      swap3\n      mul\n      swap2\n      dup3\n      add\n      swap1\n      dup2\n      sstore\n      0x20\n      dup5\n      add\n      mload\n      0xa66cc928b5edb82af9bd49922954155ab7b0942694bea4ce44661d9a8736c689\n      dup4\n      add\n      dup1\n      sload\n      not(sub(shl(0xa0, 0x01), 0x01))\n      and\n      sub(shl(0xa0, 0x01), 0x01)\n      swap1\n      swap3\n      and\n      swap2\n      swap1\n      swap2\n      or\n      swap1\n      sstore\n      0x40\n      dup5\n      add\n      mload\n      dup5\n      swap4\n      pop\n      swap1\n      swap2\n      0xa66cc928b5edb82af9bd49922954155ab7b0942694bea4ce44661d9a8736c68a\n      add\n      swap1\n      tag_237\n      swap1\n      dup3\n      tag_228\n      jump\t// in\n    tag_237:\n      pop\n      0x60\n      dup3\n      add\n      mload\n      0x03\n      dup3\n      add\n      swap1\n      tag_238\n      swap1\n      dup3\n      tag_228\n      jump\t// in\n    tag_238:\n      pop\n      pop\n        /* \"Supply.sol\":2369:2379  adminCount */\n      0x02\n        /* \"Supply.sol\":2369:2381  adminCount++ */\n      dup1\n      sload\n      swap2\n      pop\n        /* \"Supply.sol\":2369:2379  adminCount */\n      0x00\n        /* \"Supply.sol\":2369:2381  adminCount++ */\n      tag_239\n      dup4\n      tag_240\n      jump\t// in\n    tag_239:\n      swap2\n      swap1\n      pop\n      sstore\n      pop\n        /* \"Supply.sol\":2413:2442  success(\"Admin registered!!\") */\n      0x68f068b2f0d02fca99bc8285b62fce8668fe16b7c6a810351ea25bff358c0dd8\n      mload(0x40)\n      tag_241\n      swap1\n        /* \"#utility.yul\":17677:17679   */\n      0x20\n        /* \"#utility.yul\":17659:17680   */\n      dup1\n      dup3\n      mstore\n        /* \"#utility.yul\":17716:17718   */\n      0x12\n        /* \"#utility.yul\":17696:17714   */\n      swap1\n      dup3\n      add\n        /* \"#utility.yul\":17689:17719   */\n      mstore\n        /* \"#utility.yul\":17755:17775   */\n      0x41646d696e207265676973746572656421210000000000000000000000000000\n        /* \"#utility.yul\":17750:17752   */\n      0x40\n        /* \"#utility.yul\":17735:17753   */\n      dup3\n      add\n        /* \"#utility.yul\":17728:17776   */\n      mstore\n        /* \"#utility.yul\":17808:17810   */\n      0x60\n        /* \"#utility.yul\":17793:17811   */\n      add\n      swap1\n        /* \"#utility.yul\":17475:17817   */\n      jump\n        /* \"Supply.sol\":2413:2442  success(\"Admin registered!!\") */\n    tag_241:\n      mload(0x40)\n      dup1\n      swap2\n      sub\n      swap1\n      log1\n        /* \"Supply.sol\":2022:2462  {... */\n      pop\n        /* \"Supply.sol\":1887:2462  function registerNewAdmin(... */\n      pop\n      pop\n      pop\n      jump\t// out\n        /* \"Supply.sol\":3119:3709  function registerNewWorker(... */\n    tag_87:\n        /* \"Supply.sol\":3259:3285  checkIfSupplier(_adminAdd) */\n      tag_244\n        /* \"Supply.sol\":3275:3284  _adminAdd */\n      dup2\n        /* \"Supply.sol\":3259:3274  checkIfSupplier */\n      tag_98\n        /* \"Supply.sol\":3259:3285  checkIfSupplier(_adminAdd) */\n      jump\t// in\n    tag_244:\n      pop\n        /* \"Supply.sol\":3326:3507  WorkerI({... */\n      0x40\n      dup1\n      mload\n      0x80\n      dup2\n      add\n      dup3\n      mstore\n      sub(shl(0xa0, 0x01), 0x01)\n        /* \"Supply.sol\":3362:3379  workerM[_suppAdd] */\n      dup5\n      dup2\n      and\n      0x00\n      dup2\n      dup2\n      mstore\n        /* \"Supply.sol\":3362:3369  workerM */\n      0x05\n        /* \"Supply.sol\":3362:3379  workerM[_suppAdd] */\n      0x20\n      dup2\n      dup2\n      mstore\n      dup7\n      dup4\n      keccak256\n        /* \"Supply.sol\":3362:3386  workerM[_suppAdd].length */\n      dup1\n      sload\n        /* \"Supply.sol\":3326:3507  WorkerI({... */\n      dup1\n      dup9\n      mstore\n        /* \"Supply.sol\":3414:3424  msg.sender */\n      caller\n        /* \"Supply.sol\":3326:3507  WorkerI({... */\n      dup4\n      dup10\n      add\n      swap1\n      dup2\n      mstore\n      swap9\n      dup9\n      add\n      dup13\n      dup2\n      mstore\n      0x60\n      dup10\n      add\n      swap7\n      swap1\n      swap7\n      mstore\n        /* \"Supply.sol\":3523:3540  workerM[_suppAdd] */\n      swap3\n      dup3\n      mstore\n        /* \"Supply.sol\":3523:3556  workerM[_suppAdd].push(newWorker) */\n      0x01\n      dup1\n      dup5\n      add\n      dup3\n      sstore\n      swap1\n      dup5\n      mstore\n      swap3\n      keccak256\n      dup6\n      mload\n      0x04\n      swap1\n      swap3\n      mul\n      add\n      swap1\n      dup2\n      sstore\n      swap5\n      mload\n      swap1\n      dup6\n      add\n      dup1\n      sload\n      not(sub(shl(0xa0, 0x01), 0x01))\n      and\n      swap2\n      swap1\n      swap4\n      and\n      or\n      swap1\n      swap2\n      sstore\n      mload\n        /* \"Supply.sol\":3326:3507  WorkerI({... */\n      swap1\n      swap2\n      dup3\n      swap2\n        /* \"Supply.sol\":3523:3556  workerM[_suppAdd].push(newWorker) */\n      0x02\n      dup3\n      add\n      swap1\n      tag_246\n      swap1\n      dup3\n      tag_228\n      jump\t// in\n    tag_246:\n      pop\n      0x60\n      swap2\n      dup3\n      add\n      mload\n      0x03\n      swap1\n      swap2\n      add\n      dup1\n      sload\n      not(sub(shl(0xa0, 0x01), 0x01))\n      and\n      sub(shl(0xa0, 0x01), 0x01)\n      swap1\n      swap3\n      and\n      swap2\n      swap1\n      swap2\n      or\n      swap1\n      sstore\n        /* \"Supply.sol\":3659:3689  success(\"Worker registered!!\") */\n      0x40\n      dup1\n      mload\n        /* \"#utility.yul\":18024:18026   */\n      0x20\n        /* \"#utility.yul\":18006:18027   */\n      dup1\n      dup3\n      mstore\n        /* \"#utility.yul\":18063:18065   */\n      0x13\n        /* \"#utility.yul\":18043:18061   */\n      swap1\n      dup3\n      add\n        /* \"#utility.yul\":18036:18066   */\n      mstore\n        /* \"#utility.yul\":18102:18123   */\n      0x576f726b65722072656769737465726564212100000000000000000000000000\n        /* \"#utility.yul\":18082:18100   */\n      swap2\n      dup2\n      add\n        /* \"#utility.yul\":18075:18124   */\n      swap2\n      swap1\n      swap2\n      mstore\n        /* \"Supply.sol\":3659:3689  success(\"Worker registered!!\") */\n      0x68f068b2f0d02fca99bc8285b62fce8668fe16b7c6a810351ea25bff358c0dd8\n      swap2\n        /* \"#utility.yul\":18141:18159   */\n      add\n        /* \"Supply.sol\":3659:3689  success(\"Worker registered!!\") */\n      tag_241\n        /* \"#utility.yul\":17822:18165   */\n      jump\n        /* \"Supply.sol\":3715:4110  function addProduct(... */\n    tag_91:\n        /* \"Supply.sol\":3843:3865  checkIfOwner(_address) */\n      tag_250\n        /* \"Supply.sol\":3856:3864  _address */\n      dup4\n        /* \"Supply.sol\":3843:3855  checkIfOwner */\n      tag_131\n        /* \"Supply.sol\":3843:3865  checkIfOwner(_address) */\n      jump\t// in\n    tag_250:\n      pop\n        /* \"Supply.sol\":3879:3905  checkIfCompAdmin(_address) */\n      tag_251\n        /* \"Supply.sol\":3896:3904  _address */\n      dup4\n        /* \"Supply.sol\":3879:3895  checkIfCompAdmin */\n      tag_135\n        /* \"Supply.sol\":3879:3905  checkIfCompAdmin(_address) */\n      jump\t// in\n    tag_251:\n      pop\n        /* \"Supply.sol\":3947:4067  ProductInfo({... */\n      0x40\n      dup1\n      mload\n      0x60\n      dup2\n      add\n      dup3\n      mstore\n        /* \"Supply.sol\":3984:3993  productSt */\n      0x0a\n        /* \"Supply.sol\":3984:4000  productSt.length */\n      dup1\n      sload\n        /* \"Supply.sol\":3947:4067  ProductInfo({... */\n      dup1\n      dup4\n      mstore\n      0x20\n      dup4\n      add\n      dup7\n      dup2\n      mstore\n      swap4\n      dup4\n      add\n      dup6\n      swap1\n      mstore\n        /* \"Supply.sol\":4077:4103  productSt.push(newProduct) */\n      0x01\n      dup2\n      add\n      dup3\n      sstore\n        /* \"Supply.sol\":3915:3944  ProductInfo memory newProduct */\n      0x00\n        /* \"Supply.sol\":4077:4103  productSt.push(newProduct) */\n      swap2\n      swap1\n      swap2\n      mstore\n      dup2\n      mload\n      0x03\n      swap1\n      swap2\n      mul\n      0xc65a7bb8d6351c1cf70c95a316cc6a92839c986682d98bc35f958f4883f9d2a8\n      dup2\n      add\n      swap2\n      dup3\n      sstore\n      swap3\n      mload\n        /* \"Supply.sol\":3947:4067  ProductInfo({... */\n      swap2\n      swap3\n      dup4\n      swap3\n        /* \"Supply.sol\":4077:4103  productSt.push(newProduct) */\n      0xc65a7bb8d6351c1cf70c95a316cc6a92839c986682d98bc35f958f4883f9d2a9\n      swap1\n      swap2\n      add\n      swap1\n      tag_253\n      swap1\n      dup3\n      tag_228\n      jump\t// in\n    tag_253:\n      pop\n      0x40\n      dup3\n      add\n      mload\n      dup2\n      0x02\n      add\n      sstore\n      pop\n      pop\n        /* \"Supply.sol\":3829:4110  {... */\n      pop\n        /* \"Supply.sol\":3715:4110  function addProduct(... */\n      pop\n      pop\n      pop\n      jump\t// out\n        /* \"Supply.sol\":2468:3105  function registerNewSupplier(... */\n    tag_95:\n        /* \"Supply.sol\":2610:2636  checkIfCompAdmin(_address) */\n      tag_255\n        /* \"Supply.sol\":2627:2635  _address */\n      dup4\n        /* \"Supply.sol\":2610:2626  checkIfCompAdmin */\n      tag_135\n        /* \"Supply.sol\":2610:2636  checkIfCompAdmin(_address) */\n      jump\t// in\n    tag_255:\n      pop\n        /* \"Supply.sol\":2681:2869  SupplierI({... */\n      0x40\n      dup1\n      mload\n      0x80\n      dup2\n      add\n      dup3\n      mstore\n      sub(shl(0xa0, 0x01), 0x01)\n        /* \"Supply.sol\":2721:2741  supplierM[_adminAdd] */\n      dup4\n      dup2\n      and\n      0x00\n      dup2\n      dup2\n      mstore\n        /* \"Supply.sol\":2721:2730  supplierM */\n      0x04\n        /* \"Supply.sol\":2721:2741  supplierM[_adminAdd] */\n      0x20\n      dup2\n      dup2\n      mstore\n      dup7\n      dup4\n      keccak256\n        /* \"Supply.sol\":2721:2748  supplierM[_adminAdd].length */\n      dup1\n      sload\n        /* \"Supply.sol\":2681:2869  SupplierI({... */\n      dup1\n      dup9\n      mstore\n        /* \"Supply.sol\":2778:2788  msg.sender */\n      caller\n        /* \"Supply.sol\":2681:2869  SupplierI({... */\n      dup4\n      dup10\n      add\n      swap1\n      dup2\n      mstore\n      swap9\n      dup9\n      add\n      dup12\n      dup2\n      mstore\n      0x60\n      dup10\n      add\n      swap7\n      swap1\n      swap7\n      mstore\n        /* \"Supply.sol\":2885:2905  supplierM[_adminAdd] */\n      dup4\n      dup4\n      mstore\n        /* \"Supply.sol\":2885:2923  supplierM[_adminAdd].push(newSupplier) */\n      0x01\n      dup1\n      dup3\n      add\n      dup4\n      sstore\n      swap2\n      dup6\n      mstore\n      swap2\n      swap1\n      swap4\n      keccak256\n      dup7\n      mload\n      swap2\n      swap1\n      swap3\n      mul\n      swap1\n      swap2\n      add\n      swap1\n      dup2\n      sstore\n      swap5\n      mload\n      swap1\n      dup6\n      add\n      dup1\n      sload\n      not(sub(shl(0xa0, 0x01), 0x01))\n      and\n      swap2\n      swap1\n      swap4\n      and\n      or\n      swap1\n      swap2\n      sstore\n      mload\n        /* \"Supply.sol\":2681:2869  SupplierI({... */\n      swap1\n      swap2\n      dup3\n      swap2\n        /* \"Supply.sol\":2885:2923  supplierM[_adminAdd].push(newSupplier) */\n      0x02\n      dup3\n      add\n      swap1\n      tag_257\n      swap1\n      dup3\n      tag_228\n      jump\t// in\n    tag_257:\n      pop\n      0x60\n      swap2\n      swap1\n      swap2\n      add\n      mload\n      0x03\n      swap1\n      swap2\n      add\n      dup1\n      sload\n      sub(shl(0xa0, 0x01), 0x01)\n      swap3\n      dup4\n      and\n      not(sub(shl(0xa0, 0x01), 0x01))\n      swap2\n      dup3\n      and\n      or\n      swap1\n      swap2\n      sstore\n        /* \"Supply.sol\":3008:3018  supplierSt */\n      0x08\n        /* \"Supply.sol\":3008:3036  supplierSt.push(newSupplier) */\n      dup1\n      sload\n        /* \"Supply.sol\":2885:2923  supplierM[_adminAdd].push(newSupplier) */\n      0x01\n        /* \"Supply.sol\":3008:3036  supplierSt.push(newSupplier) */\n      dup2\n      add\n      dup3\n      sstore\n        /* \"Supply.sol\":2885:2923  supplierM[_adminAdd].push(newSupplier) */\n      0x00\n        /* \"Supply.sol\":3008:3036  supplierSt.push(newSupplier) */\n      swap2\n      swap1\n      swap2\n      mstore\n      dup4\n      mload\n      0x04\n      swap1\n      swap2\n      mul\n      0xf3f7a9fe364faab93b216da50a3214154f22a0a2b415b23a84c8169e8b636ee3\n      dup2\n      add\n      swap2\n      dup3\n      sstore\n      0x20\n      dup6\n      add\n      mload\n      0xf3f7a9fe364faab93b216da50a3214154f22a0a2b415b23a84c8169e8b636ee4\n      dup3\n      add\n      dup1\n      sload\n      swap2\n      swap1\n      swap6\n      and\n      swap4\n      and\n      swap3\n      swap1\n      swap3\n      or\n      swap1\n      swap3\n      sstore\n      0x40\n      dup4\n      add\n      mload\n        /* \"Supply.sol\":3024:3035  newSupplier */\n      dup4\n      swap3\n        /* \"Supply.sol\":3008:3036  supplierSt.push(newSupplier) */\n      swap2\n      0xf3f7a9fe364faab93b216da50a3214154f22a0a2b415b23a84c8169e8b636ee5\n      add\n      swap1\n      tag_259\n      swap1\n      dup3\n      tag_228\n      jump\t// in\n    tag_259:\n      pop\n      0x60\n      swap2\n      dup3\n      add\n      mload\n      0x03\n      swap1\n      swap2\n      add\n      dup1\n      sload\n      not(sub(shl(0xa0, 0x01), 0x01))\n      and\n      sub(shl(0xa0, 0x01), 0x01)\n      swap1\n      swap3\n      and\n      swap2\n      swap1\n      swap2\n      or\n      swap1\n      sstore\n        /* \"Supply.sol\":3055:3085  success(\"Supply registered!!\") */\n      0x40\n      dup1\n      mload\n        /* \"#utility.yul\":18372:18374   */\n      0x20\n        /* \"#utility.yul\":18354:18375   */\n      dup1\n      dup3\n      mstore\n        /* \"#utility.yul\":18411:18413   */\n      0x13\n        /* \"#utility.yul\":18391:18409   */\n      swap1\n      dup3\n      add\n        /* \"#utility.yul\":18384:18414   */\n      mstore\n        /* \"#utility.yul\":18450:18471   */\n      0x537570706c792072656769737465726564212100000000000000000000000000\n        /* \"#utility.yul\":18430:18448   */\n      swap2\n      dup2\n      add\n        /* \"#utility.yul\":18423:18472   */\n      swap2\n      swap1\n      swap2\n      mstore\n        /* \"Supply.sol\":3055:3085  success(\"Supply registered!!\") */\n      0x68f068b2f0d02fca99bc8285b62fce8668fe16b7c6a810351ea25bff358c0dd8\n      swap2\n        /* \"#utility.yul\":18489:18507   */\n      add\n        /* \"Supply.sol\":3055:3085  success(\"Supply registered!!\") */\n      tag_241\n        /* \"#utility.yul\":18170:18513   */\n      jump\n        /* \"Supply.sol\":1669:1881  function checkIfSupplier(address _address) public view returns(uint){... */\n    tag_98:\n        /* \"Supply.sol\":1732:1736  uint */\n      0x00\n      dup1\n        /* \"Supply.sol\":1747:1857  for(uint i=0;i<supplierSt.length;i++){... */\n    tag_263:\n        /* \"Supply.sol\":1762:1772  supplierSt */\n      0x08\n        /* \"Supply.sol\":1762:1779  supplierSt.length */\n      sload\n        /* \"Supply.sol\":1760:1779  i<supplierSt.length */\n      dup2\n      lt\n        /* \"Supply.sol\":1747:1857  for(uint i=0;i<supplierSt.length;i++){... */\n      iszero\n      tag_264\n      jumpi\n        /* \"Supply.sol\":1816:1826  supplierSt */\n      0x08\n        /* \"Supply.sol\":1827:1828  i */\n      dup2\n        /* \"Supply.sol\":1816:1829  supplierSt[i] */\n      dup2\n      sload\n      dup2\n      lt\n      tag_267\n      jumpi\n      tag_267\n      tag_268\n      jump\t// in\n    tag_267:\n      0x00\n      swap2\n      dup3\n      mstore\n      0x20\n      swap1\n      swap2\n      keccak256\n        /* \"Supply.sol\":1816:1840  supplierSt[i].supplierDD */\n      0x01\n        /* \"Supply.sol\":1816:1829  supplierSt[i] */\n      0x04\n      swap1\n      swap3\n      mul\n      add\n        /* \"Supply.sol\":1816:1840  supplierSt[i].supplierDD */\n      add\n      sload\n      sub(shl(0xa0, 0x01), 0x01)\n        /* \"Supply.sol\":1806:1840  _address==supplierSt[i].supplierDD */\n      dup5\n      dup2\n      and\n        /* \"Supply.sol\":1816:1840  supplierSt[i].supplierDD */\n      swap2\n      and\n        /* \"Supply.sol\":1806:1840  _address==supplierSt[i].supplierDD */\n      eq\n        /* \"Supply.sol\":1798:1846  require(_address==supplierSt[i].supplierDD, \"n\") */\n      tag_270\n      jumpi\n      mload(0x40)\n      shl(0xe5, 0x461bcd)\n      dup2\n      mstore\n        /* \"#utility.yul\":18852:18854   */\n      0x20\n        /* \"Supply.sol\":1798:1846  require(_address==supplierSt[i].supplierDD, \"n\") */\n      0x04\n      dup3\n      add\n        /* \"#utility.yul\":18834:18855   */\n      mstore\n        /* \"#utility.yul\":18891:18892   */\n      0x01\n        /* \"#utility.yul\":18871:18889   */\n      0x24\n      dup3\n      add\n        /* \"#utility.yul\":18864:18893   */\n      mstore\n      shl(0xf9, 0x37)\n        /* \"#utility.yul\":18909:18927   */\n      0x44\n      dup3\n      add\n        /* \"#utility.yul\":18902:18933   */\n      mstore\n        /* \"#utility.yul\":18950:18968   */\n      0x64\n      add\n        /* \"Supply.sol\":1798:1846  require(_address==supplierSt[i].supplierDD, \"n\") */\n    tag_271:\n      mload(0x40)\n      dup1\n      swap2\n      sub\n      swap1\n      revert\n    tag_270:\n        /* \"Supply.sol\":1780:1783  i++ */\n      dup1\n      tag_273\n      dup2\n      tag_240\n      jump\t// in\n    tag_273:\n      swap2\n      pop\n      pop\n        /* \"Supply.sol\":1747:1857  for(uint i=0;i<supplierSt.length;i++){... */\n      jump(tag_263)\n    tag_264:\n      pop\n        /* \"Supply.sol\":1873:1874  1 */\n      0x01\n      swap3\n        /* \"Supply.sol\":1669:1881  function checkIfSupplier(address _address) public view returns(uint){... */\n      swap2\n      pop\n      pop\n      jump\t// out\n        /* \"Supply.sol\":1081:1104  AdminI[] public adminSt */\n    tag_102:\n      0x07\n      dup2\n      dup2\n      sload\n      dup2\n      lt\n      tag_274\n      jumpi\n      0x00\n      dup1\n      revert\n    tag_274:\n      0x00\n      swap2\n      dup3\n      mstore\n      0x20\n      swap1\n      swap2\n      keccak256\n      0x04\n      swap1\n      swap2\n      mul\n      add\n      dup1\n      sload\n      0x01\n      dup3\n      add\n      sload\n      0x02\n      dup4\n      add\n      dup1\n      sload\n      swap3\n      swap5\n      pop\n      sub(shl(0xa0, 0x01), 0x01)\n      swap1\n      swap2\n      and\n      swap3\n      swap2\n      tag_189\n      swap1\n      tag_151\n      jump\t// in\n        /* \"@thirdweb-dev/contracts/extension/ContractMetadata.sol\":1003:1191   */\n    tag_111:\n        /* \"Supply.sol\":5499:5504  owner */\n      and(sub(shl(0xa0, 0x01), 0x01), sload(0x01))\n        /* \"Supply.sol\":5485:5495  msg.sender */\n      caller\n        /* \"Supply.sol\":5485:5504  msg.sender == owner */\n      eq\n        /* \"@thirdweb-dev/contracts/extension/ContractMetadata.sol\":1075:1151   */\n      tag_289\n      jumpi\n        /* \"@thirdweb-dev/contracts/extension/ContractMetadata.sol\":1116:1140   */\n      mload(0x40)\n      shl(0xe5, 0x461bcd)\n      dup2\n      mstore\n        /* \"#utility.yul\":19181:19183   */\n      0x20\n        /* \"@thirdweb-dev/contracts/extension/ContractMetadata.sol\":1116:1140   */\n      0x04\n      dup3\n      add\n        /* \"#utility.yul\":19163:19184   */\n      mstore\n        /* \"#utility.yul\":19220:19222   */\n      0x0e\n        /* \"#utility.yul\":19200:19218   */\n      0x24\n      dup3\n      add\n        /* \"#utility.yul\":19193:19223   */\n      mstore\n        /* \"#utility.yul\":19259:19275   */\n      0x4e6f7420617574686f72697a6564000000000000000000000000000000000000\n        /* \"#utility.yul\":19239:19257   */\n      0x44\n      dup3\n      add\n        /* \"#utility.yul\":19232:19276   */\n      mstore\n        /* \"#utility.yul\":19293:19311   */\n      0x64\n      add\n        /* \"@thirdweb-dev/contracts/extension/ContractMetadata.sol\":1116:1140   */\n      tag_271\n        /* \"#utility.yul\":18979:19317   */\n      jump\n        /* \"@thirdweb-dev/contracts/extension/ContractMetadata.sol\":1075:1151   */\n    tag_289:\n        /* \"@thirdweb-dev/contracts/extension/ContractMetadata.sol\":1161:1184   */\n      tag_292\n        /* \"@thirdweb-dev/contracts/extension/ContractMetadata.sol\":1179:1183   */\n      dup2\n        /* \"@thirdweb-dev/contracts/extension/ContractMetadata.sol\":1161:1178   */\n      tag_293\n        /* \"@thirdweb-dev/contracts/extension/ContractMetadata.sol\":1161:1184   */\n      jump\t// in\n    tag_292:\n        /* \"@thirdweb-dev/contracts/extension/ContractMetadata.sol\":1003:1191   */\n      pop\n      jump\t// out\n        /* \"Supply.sol\":1110:1139  SupplierI[] public supplierSt */\n    tag_114:\n      0x08\n      dup2\n      dup2\n      sload\n      dup2\n      lt\n      tag_294\n      jumpi\n      0x00\n      dup1\n      revert\n    tag_294:\n      0x00\n      swap2\n      dup3\n      mstore\n      0x20\n      swap1\n      swap2\n      keccak256\n      0x04\n      swap1\n      swap2\n      mul\n      add\n      dup1\n      sload\n      0x01\n      dup3\n      add\n      sload\n      0x02\n      dup4\n      add\n      dup1\n      sload\n      swap3\n      swap5\n      pop\n      sub(shl(0xa0, 0x01), 0x01)\n      swap1\n      swap2\n      and\n      swap3\n      swap2\n      tag_184\n      swap1\n      tag_151\n      jump\t// in\n        /* \"Supply.sol\":979:1023  mapping(address => WorkerI[]) public workerM */\n    tag_118:\n      mstore(0x20, 0x05)\n      dup2\n      0x00\n      mstore\n      keccak256(0x00, 0x40)\n      dup2\n      dup2\n      sload\n      dup2\n      lt\n      tag_182\n      jumpi\n      0x00\n      dup1\n      revert\n        /* \"Supply.sol\":5028:5150  function viewAllWorkers(address _adminAdd) public view returns(WorkerI[] memory){... */\n    tag_122:\n      sub(shl(0xa0, 0x01), 0x01)\n        /* \"Supply.sol\":5125:5143  workerM[_adminAdd] */\n      dup2\n      and\n      0x00\n      swap1\n      dup2\n      mstore\n        /* \"Supply.sol\":5125:5132  workerM */\n      0x05\n        /* \"Supply.sol\":5125:5143  workerM[_adminAdd] */\n      0x20\n      swap1\n      dup2\n      mstore\n      0x40\n      dup1\n      dup4\n      keccak256\n        /* \"Supply.sol\":5118:5143  return workerM[_adminAdd] */\n      dup1\n      sload\n      dup3\n      mload\n      dup2\n      dup6\n      mul\n      dup2\n      add\n      dup6\n      add\n      swap1\n      swap4\n      mstore\n      dup1\n      dup4\n      mstore\n        /* \"Supply.sol\":5091:5107  WorkerI[] memory */\n      0x60\n      swap5\n        /* \"Supply.sol\":5118:5143  return workerM[_adminAdd] */\n      swap3\n      swap4\n        /* \"Supply.sol\":5125:5143  workerM[_adminAdd] */\n      swap2\n      swap3\n        /* \"Supply.sol\":5118:5143  return workerM[_adminAdd] */\n      swap1\n      swap2\n      dup5\n      add\n    tag_309:\n      dup3\n      dup3\n      lt\n      iszero\n      tag_170\n      jumpi\n      0x00\n      dup5\n      dup2\n      mstore\n      0x20\n      swap1\n      dup2\n      swap1\n      keccak256\n      0x40\n      dup1\n      mload\n      0x80\n      dup2\n      add\n      dup3\n      mstore\n      0x04\n      dup7\n      mul\n      swap1\n      swap3\n      add\n      dup1\n      sload\n      dup4\n      mstore\n      0x01\n      dup2\n      add\n      sload\n      sub(shl(0xa0, 0x01), 0x01)\n      and\n      swap4\n      dup4\n      add\n      swap4\n      swap1\n      swap4\n      mstore\n      0x02\n      dup4\n      add\n      dup1\n      sload\n      swap3\n      swap4\n      swap3\n      swap2\n      dup5\n      add\n      swap2\n      tag_312\n      swap1\n      tag_151\n      jump\t// in\n    tag_312:\n      dup1\n      0x1f\n      add\n      0x20\n      dup1\n      swap2\n      div\n      mul\n      0x20\n      add\n      mload(0x40)\n      swap1\n      dup2\n      add\n      0x40\n      mstore\n      dup1\n      swap3\n      swap2\n      swap1\n      dup2\n      dup2\n      mstore\n      0x20\n      add\n      dup3\n      dup1\n      sload\n      tag_313\n      swap1\n      tag_151\n      jump\t// in\n    tag_313:\n      dup1\n      iszero\n      tag_314\n      jumpi\n      dup1\n      0x1f\n      lt\n      tag_315\n      jumpi\n      0x0100\n      dup1\n      dup4\n      sload\n      div\n      mul\n      dup4\n      mstore\n      swap2\n      0x20\n      add\n      swap2\n      jump(tag_314)\n    tag_315:\n      dup3\n      add\n      swap2\n      swap1\n      0x00\n      mstore\n      keccak256(0x00, 0x20)\n      swap1\n    tag_316:\n      dup2\n      sload\n      dup2\n      mstore\n      swap1\n      0x01\n      add\n      swap1\n      0x20\n      add\n      dup1\n      dup4\n      gt\n      tag_316\n      jumpi\n      dup3\n      swap1\n      sub\n      0x1f\n      and\n      dup3\n      add\n      swap2\n    tag_314:\n      pop\n      pop\n      pop\n      swap2\n      dup4\n      mstore\n      pop\n      pop\n      0x03\n      swap2\n      swap1\n      swap2\n      add\n      sload\n      sub(shl(0xa0, 0x01), 0x01)\n      and\n      0x20\n      swap2\n      dup3\n      add\n      mstore\n      swap1\n      dup3\n      mstore\n      0x01\n      swap3\n      swap1\n      swap3\n      add\n      swap2\n      add\n      jump(tag_309)\n        /* \"Supply.sol\":1145:1170  WorkerI[] public workerSt */\n    tag_127:\n      0x09\n      dup2\n      dup2\n      sload\n      dup2\n      lt\n      tag_294\n      jumpi\n      0x00\n      dup1\n      revert\n        /* \"Supply.sol\":1323:1452  function checkIfOwner(address _address) public view returns(uint){... */\n    tag_131:\n        /* \"Supply.sol\":1416:1421  owner */\n      sload(0x01)\n        /* \"Supply.sol\":1383:1387  uint */\n      0x00\n      swap1\n      sub(shl(0xa0, 0x01), 0x01)\n        /* \"Supply.sol\":1406:1421  _address==owner */\n      dup4\n      dup2\n      and\n        /* \"Supply.sol\":1416:1421  owner */\n      swap2\n      and\n        /* \"Supply.sol\":1406:1421  _address==owner */\n      eq\n        /* \"Supply.sol\":1398:1427  require(_address==owner, \"n\") */\n      tag_325\n      jumpi\n      mload(0x40)\n      shl(0xe5, 0x461bcd)\n      dup2\n      mstore\n        /* \"#utility.yul\":18852:18854   */\n      0x20\n        /* \"Supply.sol\":1398:1427  require(_address==owner, \"n\") */\n      0x04\n      dup3\n      add\n        /* \"#utility.yul\":18834:18855   */\n      mstore\n        /* \"#utility.yul\":18891:18892   */\n      0x01\n        /* \"#utility.yul\":18871:18889   */\n      0x24\n      dup3\n      add\n        /* \"#utility.yul\":18864:18893   */\n      mstore\n      shl(0xf9, 0x37)\n        /* \"#utility.yul\":18909:18927   */\n      0x44\n      dup3\n      add\n        /* \"#utility.yul\":18902:18933   */\n      mstore\n        /* \"#utility.yul\":18950:18968   */\n      0x64\n      add\n        /* \"Supply.sol\":1398:1427  require(_address==owner, \"n\") */\n      tag_271\n        /* \"#utility.yul\":18650:18974   */\n      jump\n        /* \"Supply.sol\":1398:1427  require(_address==owner, \"n\") */\n    tag_325:\n      pop\n        /* \"Supply.sol\":1444:1445  1 */\n      0x01\n      swap2\n        /* \"Supply.sol\":1323:1452  function checkIfOwner(address _address) public view returns(uint){... */\n      swap1\n      pop\n      jump\t// out\n        /* \"Supply.sol\":1458:1663  function checkIfCompAdmin(address _address) public view returns(uint){... */\n    tag_135:\n        /* \"Supply.sol\":1522:1526  uint */\n      0x00\n      dup1\n        /* \"Supply.sol\":1537:1639  for(uint i=0;i<adminSt.length;i++){... */\n    tag_328:\n        /* \"Supply.sol\":1552:1559  adminSt */\n      0x07\n        /* \"Supply.sol\":1552:1566  adminSt.length */\n      sload\n        /* \"Supply.sol\":1550:1566  i<adminSt.length */\n      dup2\n      lt\n        /* \"Supply.sol\":1537:1639  for(uint i=0;i<adminSt.length;i++){... */\n      iszero\n      tag_264\n      jumpi\n        /* \"Supply.sol\":1603:1610  adminSt */\n      0x07\n        /* \"Supply.sol\":1611:1612  i */\n      dup2\n        /* \"Supply.sol\":1603:1613  adminSt[i] */\n      dup2\n      sload\n      dup2\n      lt\n      tag_332\n      jumpi\n      tag_332\n      tag_268\n      jump\t// in\n    tag_332:\n      0x00\n      swap2\n      dup3\n      mstore\n      0x20\n      swap1\n      swap2\n      keccak256\n        /* \"Supply.sol\":1603:1622  adminSt[i].adminAdd */\n      0x01\n        /* \"Supply.sol\":1603:1613  adminSt[i] */\n      0x04\n      swap1\n      swap3\n      mul\n      add\n        /* \"Supply.sol\":1603:1622  adminSt[i].adminAdd */\n      add\n      sload\n      sub(shl(0xa0, 0x01), 0x01)\n        /* \"Supply.sol\":1593:1622  _address==adminSt[i].adminAdd */\n      dup5\n      dup2\n      and\n        /* \"Supply.sol\":1603:1622  adminSt[i].adminAdd */\n      swap2\n      and\n        /* \"Supply.sol\":1593:1622  _address==adminSt[i].adminAdd */\n      eq\n        /* \"Supply.sol\":1585:1628  require(_address==adminSt[i].adminAdd, \"n\") */\n      tag_334\n      jumpi\n      mload(0x40)\n      shl(0xe5, 0x461bcd)\n      dup2\n      mstore\n        /* \"#utility.yul\":18852:18854   */\n      0x20\n        /* \"Supply.sol\":1585:1628  require(_address==adminSt[i].adminAdd, \"n\") */\n      0x04\n      dup3\n      add\n        /* \"#utility.yul\":18834:18855   */\n      mstore\n        /* \"#utility.yul\":18891:18892   */\n      0x01\n        /* \"#utility.yul\":18871:18889   */\n      0x24\n      dup3\n      add\n        /* \"#utility.yul\":18864:18893   */\n      mstore\n      shl(0xf9, 0x37)\n        /* \"#utility.yul\":18909:18927   */\n      0x44\n      dup3\n      add\n        /* \"#utility.yul\":18902:18933   */\n      mstore\n        /* \"#utility.yul\":18950:18968   */\n      0x64\n      add\n        /* \"Supply.sol\":1585:1628  require(_address==adminSt[i].adminAdd, \"n\") */\n      tag_271\n        /* \"#utility.yul\":18650:18974   */\n      jump\n        /* \"Supply.sol\":1585:1628  require(_address==adminSt[i].adminAdd, \"n\") */\n    tag_334:\n        /* \"Supply.sol\":1567:1570  i++ */\n      dup1\n      tag_336\n      dup2\n      tag_240\n      jump\t// in\n    tag_336:\n      swap2\n      pop\n      pop\n        /* \"Supply.sol\":1537:1639  for(uint i=0;i<adminSt.length;i++){... */\n      jump(tag_328)\n        /* \"Supply.sol\":1176:1206  ProductInfo[] public productSt */\n    tag_139:\n      0x0a\n      dup2\n      dup2\n      sload\n      dup2\n      lt\n      tag_337\n      jumpi\n      0x00\n      dup1\n      revert\n    tag_337:\n      0x00\n      swap2\n      dup3\n      mstore\n      0x20\n      swap1\n      swap2\n      keccak256\n      0x03\n      swap1\n      swap2\n      mul\n      add\n      dup1\n      sload\n      0x01\n      dup3\n      add\n      dup1\n      sload\n      swap2\n      swap4\n      pop\n      swap1\n      tag_339\n      swap1\n      tag_151\n      jump\t// in\n    tag_339:\n      dup1\n      0x1f\n      add\n      0x20\n      dup1\n      swap2\n      div\n      mul\n      0x20\n      add\n      mload(0x40)\n      swap1\n      dup2\n      add\n      0x40\n      mstore\n      dup1\n      swap3\n      swap2\n      swap1\n      dup2\n      dup2\n      mstore\n      0x20\n      add\n      dup3\n      dup1\n      sload\n      tag_340\n      swap1\n      tag_151\n      jump\t// in\n    tag_340:\n      dup1\n      iszero\n      tag_341\n      jumpi\n      dup1\n      0x1f\n      lt\n      tag_342\n      jumpi\n      0x0100\n      dup1\n      dup4\n      sload\n      div\n      mul\n      dup4\n      mstore\n      swap2\n      0x20\n      add\n      swap2\n      jump(tag_341)\n    tag_342:\n      dup3\n      add\n      swap2\n      swap1\n      0x00\n      mstore\n      keccak256(0x00, 0x20)\n      swap1\n    tag_343:\n      dup2\n      sload\n      dup2\n      mstore\n      swap1\n      0x01\n      add\n      swap1\n      0x20\n      add\n      dup1\n      dup4\n      gt\n      tag_343\n      jumpi\n      dup3\n      swap1\n      sub\n      0x1f\n      and\n      dup3\n      add\n      swap2\n    tag_341:\n      pop\n      pop\n      pop\n      pop\n      pop\n      swap1\n      dup1\n      0x02\n      add\n      sload\n      swap1\n      pop\n      dup4\n      jump\t// out\n        /* \"@thirdweb-dev/contracts/extension/ContractMetadata.sol\":565:599   */\n    tag_143:\n      0x00\n      dup1\n      sload\n      tag_344\n      swap1\n      tag_151\n      jump\t// in\n    tag_344:\n      dup1\n      0x1f\n      add\n      0x20\n      dup1\n      swap2\n      div\n      mul\n      0x20\n      add\n      mload(0x40)\n      swap1\n      dup2\n      add\n      0x40\n      mstore\n      dup1\n      swap3\n      swap2\n      swap1\n      dup2\n      dup2\n      mstore\n      0x20\n      add\n      dup3\n      dup1\n      sload\n      tag_345\n      swap1\n      tag_151\n      jump\t// in\n    tag_345:\n      dup1\n      iszero\n      tag_346\n      jumpi\n      dup1\n      0x1f\n      lt\n      tag_347\n      jumpi\n      0x0100\n      dup1\n      dup4\n      sload\n      div\n      mul\n      dup4\n      mstore\n      swap2\n      0x20\n      add\n      swap2\n      jump(tag_346)\n    tag_347:\n      dup3\n      add\n      swap2\n      swap1\n      0x00\n      mstore\n      keccak256(0x00, 0x20)\n      swap1\n    tag_348:\n      dup2\n      sload\n      dup2\n      mstore\n      swap1\n      0x01\n      add\n      swap1\n      0x20\n      add\n      dup1\n      dup4\n      gt\n      tag_348\n      jumpi\n      dup3\n      swap1\n      sub\n      0x1f\n      and\n      dup3\n      add\n      swap2\n    tag_346:\n      pop\n      pop\n      pop\n      pop\n      pop\n      dup2\n      jump\t// out\n        /* \"@thirdweb-dev/contracts/extension/ContractMetadata.sol\":1273:1458   */\n    tag_293:\n        /* \"@thirdweb-dev/contracts/extension/ContractMetadata.sol\":1339:1360   */\n      0x00\n        /* \"@thirdweb-dev/contracts/extension/ContractMetadata.sol\":1363:1374   */\n      dup1\n        /* \"@thirdweb-dev/contracts/extension/ContractMetadata.sol\":1339:1374   */\n      dup1\n      sload\n      tag_351\n      swap1\n      tag_151\n      jump\t// in\n    tag_351:\n      dup1\n      0x1f\n      add\n      0x20\n      dup1\n      swap2\n      div\n      mul\n      0x20\n      add\n      mload(0x40)\n      swap1\n      dup2\n      add\n      0x40\n      mstore\n      dup1\n      swap3\n      swap2\n      swap1\n      dup2\n      dup2\n      mstore\n      0x20\n      add\n      dup3\n      dup1\n      sload\n      tag_352\n      swap1\n      tag_151\n      jump\t// in\n    tag_352:\n      dup1\n      iszero\n      tag_353\n      jumpi\n      dup1\n      0x1f\n      lt\n      tag_354\n      jumpi\n      0x0100\n      dup1\n      dup4\n      sload\n      div\n      mul\n      dup4\n      mstore\n      swap2\n      0x20\n      add\n      swap2\n      jump(tag_353)\n    tag_354:\n      dup3\n      add\n      swap2\n      swap1\n      0x00\n      mstore\n      keccak256(0x00, 0x20)\n      swap1\n    tag_355:\n      dup2\n      sload\n      dup2\n      mstore\n      swap1\n      0x01\n      add\n      swap1\n      0x20\n      add\n      dup1\n      dup4\n      gt\n      tag_355\n      jumpi\n      dup3\n      swap1\n      sub\n      0x1f\n      and\n      dup3\n      add\n      swap2\n    tag_353:\n      pop\n      pop\n      pop\n      pop\n      pop\n      swap1\n      pop\n        /* \"@thirdweb-dev/contracts/extension/ContractMetadata.sol\":1398:1402   */\n      dup2\n        /* \"@thirdweb-dev/contracts/extension/ContractMetadata.sol\":1384:1395   */\n      0x00\n        /* \"@thirdweb-dev/contracts/extension/ContractMetadata.sol\":1384:1402   */\n      swap1\n      dup2\n      tag_356\n      swap2\n      swap1\n      tag_228\n      jump\t// in\n    tag_356:\n      pop\n        /* \"@thirdweb-dev/contracts/extension/ContractMetadata.sol\":1418:1451   */\n      0xc9c7c3fe08b88b4df9d4d47ef47d2c43d55c025a0ba88ca442580ed9e7348a16\n        /* \"@thirdweb-dev/contracts/extension/ContractMetadata.sol\":1437:1444   */\n      dup2\n        /* \"@thirdweb-dev/contracts/extension/ContractMetadata.sol\":1446:1450   */\n      dup4\n        /* \"@thirdweb-dev/contracts/extension/ContractMetadata.sol\":1418:1451   */\n      mload(0x40)\n      tag_357\n      swap3\n      swap2\n      swap1\n      tag_358\n      jump\t// in\n    tag_357:\n      mload(0x40)\n      dup1\n      swap2\n      sub\n      swap1\n      log1\n        /* \"@thirdweb-dev/contracts/extension/ContractMetadata.sol\":1329:1458   */\n      pop\n        /* \"@thirdweb-dev/contracts/extension/ContractMetadata.sol\":1273:1458   */\n      pop\n      jump\t// out\n        /* \"#utility.yul\":14:437   */\n    tag_359:\n        /* \"#utility.yul\":56:59   */\n      0x00\n        /* \"#utility.yul\":94:99   */\n      dup2\n        /* \"#utility.yul\":88:100   */\n      mload\n        /* \"#utility.yul\":121:127   */\n      dup1\n        /* \"#utility.yul\":116:119   */\n      dup5\n        /* \"#utility.yul\":109:128   */\n      mstore\n        /* \"#utility.yul\":146:147   */\n      0x00\n        /* \"#utility.yul\":156:318   */\n    tag_370:\n        /* \"#utility.yul\":170:176   */\n      dup2\n        /* \"#utility.yul\":167:168   */\n      dup2\n        /* \"#utility.yul\":164:177   */\n      lt\n        /* \"#utility.yul\":156:318   */\n      iszero\n      tag_372\n      jumpi\n        /* \"#utility.yul\":232:236   */\n      0x20\n        /* \"#utility.yul\":288:301   */\n      dup2\n      dup6\n      add\n        /* \"#utility.yul\":284:306   */\n      dup2\n      add\n        /* \"#utility.yul\":278:307   */\n      mload\n        /* \"#utility.yul\":260:271   */\n      dup7\n      dup4\n      add\n        /* \"#utility.yul\":256:276   */\n      dup3\n      add\n        /* \"#utility.yul\":249:308   */\n      mstore\n        /* \"#utility.yul\":185:197   */\n      add\n        /* \"#utility.yul\":156:318   */\n      jump(tag_370)\n    tag_372:\n        /* \"#utility.yul\":160:163   */\n      pop\n        /* \"#utility.yul\":363:364   */\n      0x00\n        /* \"#utility.yul\":356:360   */\n      0x20\n        /* \"#utility.yul\":347:353   */\n      dup3\n        /* \"#utility.yul\":342:345   */\n      dup7\n        /* \"#utility.yul\":338:354   */\n      add\n        /* \"#utility.yul\":334:361   */\n      add\n        /* \"#utility.yul\":327:365   */\n      mstore\n        /* \"#utility.yul\":426:430   */\n      0x20\n        /* \"#utility.yul\":419:421   */\n      0x1f\n        /* \"#utility.yul\":415:422   */\n      not\n        /* \"#utility.yul\":410:412   */\n      0x1f\n        /* \"#utility.yul\":402:408   */\n      dup4\n        /* \"#utility.yul\":398:413   */\n      add\n        /* \"#utility.yul\":394:423   */\n      and\n        /* \"#utility.yul\":389:392   */\n      dup6\n        /* \"#utility.yul\":385:424   */\n      add\n        /* \"#utility.yul\":381:431   */\n      add\n        /* \"#utility.yul\":374:431   */\n      swap2\n      pop\n      pop\n        /* \"#utility.yul\":14:437   */\n      swap3\n      swap2\n      pop\n      pop\n      jump\t// out\n        /* \"#utility.yul\":442:1589   */\n    tag_38:\n        /* \"#utility.yul\":638:642   */\n      0x00\n        /* \"#utility.yul\":667:669   */\n      0x20\n        /* \"#utility.yul\":707:709   */\n      dup1\n        /* \"#utility.yul\":696:705   */\n      dup4\n        /* \"#utility.yul\":692:710   */\n      add\n        /* \"#utility.yul\":737:739   */\n      dup2\n        /* \"#utility.yul\":726:735   */\n      dup5\n        /* \"#utility.yul\":719:740   */\n      mstore\n        /* \"#utility.yul\":760:766   */\n      dup1\n        /* \"#utility.yul\":795:801   */\n      dup6\n        /* \"#utility.yul\":789:802   */\n      mload\n        /* \"#utility.yul\":826:832   */\n      dup1\n        /* \"#utility.yul\":818:824   */\n      dup4\n        /* \"#utility.yul\":811:833   */\n      mstore\n        /* \"#utility.yul\":852:854   */\n      0x40\n        /* \"#utility.yul\":842:854   */\n      swap3\n      pop\n        /* \"#utility.yul\":885:887   */\n      dup3\n        /* \"#utility.yul\":874:883   */\n      dup7\n        /* \"#utility.yul\":870:888   */\n      add\n        /* \"#utility.yul\":863:888   */\n      swap2\n      pop\n        /* \"#utility.yul\":947:949   */\n      dup3\n        /* \"#utility.yul\":937:943   */\n      dup2\n        /* \"#utility.yul\":934:935   */\n      0x05\n        /* \"#utility.yul\":930:944   */\n      shl\n        /* \"#utility.yul\":919:928   */\n      dup8\n        /* \"#utility.yul\":915:945   */\n      add\n        /* \"#utility.yul\":911:950   */\n      add\n        /* \"#utility.yul\":985:987   */\n      dup5\n        /* \"#utility.yul\":977:983   */\n      dup9\n        /* \"#utility.yul\":973:988   */\n      add\n        /* \"#utility.yul\":1006:1007   */\n      0x00\n        /* \"#utility.yul\":1016:1560   */\n    tag_374:\n        /* \"#utility.yul\":1030:1036   */\n      dup4\n        /* \"#utility.yul\":1027:1028   */\n      dup2\n        /* \"#utility.yul\":1024:1037   */\n      lt\n        /* \"#utility.yul\":1016:1560   */\n      iszero\n      tag_376\n      jumpi\n        /* \"#utility.yul\":1123:1125   */\n      0x3f\n        /* \"#utility.yul\":1119:1126   */\n      not\n        /* \"#utility.yul\":1107:1116   */\n      dup10\n        /* \"#utility.yul\":1099:1105   */\n      dup5\n        /* \"#utility.yul\":1095:1117   */\n      sub\n        /* \"#utility.yul\":1091:1127   */\n      add\n        /* \"#utility.yul\":1086:1089   */\n      dup6\n        /* \"#utility.yul\":1079:1128   */\n      mstore\n        /* \"#utility.yul\":1157:1163   */\n      dup2\n        /* \"#utility.yul\":1151:1164   */\n      mload\n        /* \"#utility.yul\":1187:1191   */\n      0x60\n        /* \"#utility.yul\":1225:1227   */\n      dup2\n        /* \"#utility.yul\":1219:1228   */\n      mload\n        /* \"#utility.yul\":1211:1217   */\n      dup6\n        /* \"#utility.yul\":1204:1229   */\n      mstore\n        /* \"#utility.yul\":1276:1278   */\n      dup9\n        /* \"#utility.yul\":1272:1274   */\n      dup3\n        /* \"#utility.yul\":1268:1279   */\n      add\n        /* \"#utility.yul\":1262:1280   */\n      mload\n        /* \"#utility.yul\":1317:1319   */\n      dup2\n        /* \"#utility.yul\":1312:1314   */\n      dup11\n        /* \"#utility.yul\":1304:1310   */\n      dup8\n        /* \"#utility.yul\":1300:1315   */\n      add\n        /* \"#utility.yul\":1293:1320   */\n      mstore\n        /* \"#utility.yul\":1347:1395   */\n      tag_377\n        /* \"#utility.yul\":1391:1393   */\n      dup3\n        /* \"#utility.yul\":1383:1389   */\n      dup8\n        /* \"#utility.yul\":1379:1394   */\n      add\n        /* \"#utility.yul\":1365:1377   */\n      dup3\n        /* \"#utility.yul\":1347:1395   */\n      tag_359\n      jump\t// in\n    tag_377:\n        /* \"#utility.yul\":1438:1449   */\n      swap3\n      dup10\n      add\n        /* \"#utility.yul\":1432:1450   */\n      mload\n        /* \"#utility.yul\":1415:1430   */\n      swap6\n      dup10\n      add\n        /* \"#utility.yul\":1408:1451   */\n      swap6\n      swap1\n      swap6\n      mstore\n      pop\n        /* \"#utility.yul\":1538:1550   */\n      swap5\n      dup8\n      add\n      swap5\n        /* \"#utility.yul\":1333:1395   */\n      swap3\n      pop\n        /* \"#utility.yul\":1503:1518   */\n      swap1\n      dup7\n      add\n      swap1\n        /* \"#utility.yul\":1052:1053   */\n      0x01\n        /* \"#utility.yul\":1045:1054   */\n      add\n        /* \"#utility.yul\":1016:1560   */\n      jump(tag_374)\n    tag_376:\n      pop\n        /* \"#utility.yul\":1577:1583   */\n      swap1\n      swap9\n        /* \"#utility.yul\":442:1589   */\n      swap8\n      pop\n      pop\n      pop\n      pop\n      pop\n      pop\n      pop\n      pop\n      jump\t// out\n        /* \"#utility.yul\":1594:1842   */\n    tag_41:\n        /* \"#utility.yul\":1662:1668   */\n      0x00\n        /* \"#utility.yul\":1670:1676   */\n      dup1\n        /* \"#utility.yul\":1723:1725   */\n      0x40\n        /* \"#utility.yul\":1711:1720   */\n      dup4\n        /* \"#utility.yul\":1702:1709   */\n      dup6\n        /* \"#utility.yul\":1698:1721   */\n      sub\n        /* \"#utility.yul\":1694:1726   */\n      slt\n        /* \"#utility.yul\":1691:1743   */\n      iszero\n      tag_379\n      jumpi\n        /* \"#utility.yul\":1739:1740   */\n      0x00\n        /* \"#utility.yul\":1736:1737   */\n      dup1\n        /* \"#utility.yul\":1729:1741   */\n      revert\n        /* \"#utility.yul\":1691:1743   */\n    tag_379:\n      pop\n      pop\n        /* \"#utility.yul\":1762:1785   */\n      dup1\n      calldataload\n      swap3\n        /* \"#utility.yul\":1832:1834   */\n      0x20\n        /* \"#utility.yul\":1817:1835   */\n      swap1\n      swap2\n      add\n        /* \"#utility.yul\":1804:1836   */\n      calldataload\n      swap2\n      pop\n        /* \"#utility.yul\":1594:1842   */\n      jump\t// out\n        /* \"#utility.yul\":1847:2495   */\n    tag_44:\n        /* \"#utility.yul\":2128:2134   */\n      dup6\n        /* \"#utility.yul\":2117:2126   */\n      dup2\n        /* \"#utility.yul\":2110:2135   */\n      mstore\n      sub(shl(0xa0, 0x01), 0x01)\n        /* \"#utility.yul\":2175:2181   */\n      dup6\n        /* \"#utility.yul\":2171:2226   */\n      and\n        /* \"#utility.yul\":2166:2168   */\n      0x20\n        /* \"#utility.yul\":2155:2164   */\n      dup3\n        /* \"#utility.yul\":2151:2169   */\n      add\n        /* \"#utility.yul\":2144:2227   */\n      mstore\n        /* \"#utility.yul\":2263:2266   */\n      0xa0\n        /* \"#utility.yul\":2258:2260   */\n      0x40\n        /* \"#utility.yul\":2247:2256   */\n      dup3\n        /* \"#utility.yul\":2243:2261   */\n      add\n        /* \"#utility.yul\":2236:2267   */\n      mstore\n        /* \"#utility.yul\":2091:2095   */\n      0x00\n        /* \"#utility.yul\":2290:2336   */\n      tag_381\n        /* \"#utility.yul\":2331:2334   */\n      0xa0\n        /* \"#utility.yul\":2320:2329   */\n      dup4\n        /* \"#utility.yul\":2316:2335   */\n      add\n        /* \"#utility.yul\":2308:2314   */\n      dup7\n        /* \"#utility.yul\":2290:2336   */\n      tag_359\n      jump\t// in\n    tag_381:\n        /* \"#utility.yul\":2384:2393   */\n      dup3\n        /* \"#utility.yul\":2376:2382   */\n      dup2\n        /* \"#utility.yul\":2372:2394   */\n      sub\n        /* \"#utility.yul\":2367:2369   */\n      0x60\n        /* \"#utility.yul\":2356:2365   */\n      dup5\n        /* \"#utility.yul\":2352:2370   */\n      add\n        /* \"#utility.yul\":2345:2395   */\n      mstore\n        /* \"#utility.yul\":2412:2445   */\n      tag_382\n        /* \"#utility.yul\":2438:2444   */\n      dup2\n        /* \"#utility.yul\":2430:2436   */\n      dup7\n        /* \"#utility.yul\":2412:2445   */\n      tag_359\n      jump\t// in\n    tag_382:\n        /* \"#utility.yul\":2404:2445   */\n      swap2\n      pop\n      pop\n        /* \"#utility.yul\":2482:2488   */\n      dup3\n        /* \"#utility.yul\":2476:2479   */\n      0x80\n        /* \"#utility.yul\":2465:2474   */\n      dup4\n        /* \"#utility.yul\":2461:2480   */\n      add\n        /* \"#utility.yul\":2454:2489   */\n      mstore\n        /* \"#utility.yul\":1847:2495   */\n      swap7\n      swap6\n      pop\n      pop\n      pop\n      pop\n      pop\n      pop\n      jump\t// out\n        /* \"#utility.yul\":2500:2680   */\n    tag_47:\n        /* \"#utility.yul\":2559:2565   */\n      0x00\n        /* \"#utility.yul\":2612:2614   */\n      0x20\n        /* \"#utility.yul\":2600:2609   */\n      dup3\n        /* \"#utility.yul\":2591:2598   */\n      dup5\n        /* \"#utility.yul\":2587:2610   */\n      sub\n        /* \"#utility.yul\":2583:2615   */\n      slt\n        /* \"#utility.yul\":2580:2632   */\n      iszero\n      tag_384\n      jumpi\n        /* \"#utility.yul\":2628:2629   */\n      0x00\n        /* \"#utility.yul\":2625:2626   */\n      dup1\n        /* \"#utility.yul\":2618:2630   */\n      revert\n        /* \"#utility.yul\":2580:2632   */\n    tag_384:\n      pop\n        /* \"#utility.yul\":2651:2674   */\n      calldataload\n      swap2\n        /* \"#utility.yul\":2500:2680   */\n      swap1\n      pop\n      jump\t// out\n        /* \"#utility.yul\":2685:4165   */\n    tag_50:\n        /* \"#utility.yul\":2877:2881   */\n      0x00\n        /* \"#utility.yul\":2906:2908   */\n      0x20\n        /* \"#utility.yul\":2946:2948   */\n      dup1\n        /* \"#utility.yul\":2935:2944   */\n      dup4\n        /* \"#utility.yul\":2931:2949   */\n      add\n        /* \"#utility.yul\":2976:2978   */\n      dup2\n        /* \"#utility.yul\":2965:2974   */\n      dup5\n        /* \"#utility.yul\":2958:2979   */\n      mstore\n        /* \"#utility.yul\":2999:3005   */\n      dup1\n        /* \"#utility.yul\":3034:3040   */\n      dup6\n        /* \"#utility.yul\":3028:3041   */\n      mload\n        /* \"#utility.yul\":3065:3071   */\n      dup1\n        /* \"#utility.yul\":3057:3063   */\n      dup4\n        /* \"#utility.yul\":3050:3072   */\n      mstore\n        /* \"#utility.yul\":3091:3093   */\n      0x40\n        /* \"#utility.yul\":3081:3093   */\n      swap3\n      pop\n        /* \"#utility.yul\":3124:3126   */\n      dup3\n        /* \"#utility.yul\":3113:3122   */\n      dup7\n        /* \"#utility.yul\":3109:3127   */\n      add\n        /* \"#utility.yul\":3102:3127   */\n      swap2\n      pop\n        /* \"#utility.yul\":3186:3188   */\n      dup3\n        /* \"#utility.yul\":3176:3182   */\n      dup2\n        /* \"#utility.yul\":3173:3174   */\n      0x05\n        /* \"#utility.yul\":3169:3183   */\n      shl\n        /* \"#utility.yul\":3158:3167   */\n      dup8\n        /* \"#utility.yul\":3154:3184   */\n      add\n        /* \"#utility.yul\":3150:3189   */\n      add\n        /* \"#utility.yul\":3224:3226   */\n      dup5\n        /* \"#utility.yul\":3216:3222   */\n      dup9\n        /* \"#utility.yul\":3212:3227   */\n      add\n        /* \"#utility.yul\":3245:3246   */\n      0x00\n        /* \"#utility.yul\":3255:4136   */\n    tag_386:\n        /* \"#utility.yul\":3269:3275   */\n      dup4\n        /* \"#utility.yul\":3266:3267   */\n      dup2\n        /* \"#utility.yul\":3263:3276   */\n      lt\n        /* \"#utility.yul\":3255:4136   */\n      iszero\n      tag_376\n      jumpi\n        /* \"#utility.yul\":3362:3364   */\n      0x3f\n        /* \"#utility.yul\":3358:3365   */\n      not\n        /* \"#utility.yul\":3346:3355   */\n      dup10\n        /* \"#utility.yul\":3338:3344   */\n      dup5\n        /* \"#utility.yul\":3334:3356   */\n      sub\n        /* \"#utility.yul\":3330:3366   */\n      add\n        /* \"#utility.yul\":3325:3328   */\n      dup6\n        /* \"#utility.yul\":3318:3367   */\n      mstore\n        /* \"#utility.yul\":3396:3402   */\n      dup2\n        /* \"#utility.yul\":3390:3403   */\n      mload\n        /* \"#utility.yul\":3426:3430   */\n      0xa0\n        /* \"#utility.yul\":3464:3466   */\n      dup2\n        /* \"#utility.yul\":3458:3467   */\n      mload\n        /* \"#utility.yul\":3450:3456   */\n      dup6\n        /* \"#utility.yul\":3443:3468   */\n      mstore\n      sub(shl(0xa0, 0x01), 0x01)\n        /* \"#utility.yul\":3523:3525   */\n      dup10\n        /* \"#utility.yul\":3519:3521   */\n      dup4\n        /* \"#utility.yul\":3515:3526   */\n      add\n        /* \"#utility.yul\":3509:3527   */\n      mload\n        /* \"#utility.yul\":3505:3572   */\n      and\n        /* \"#utility.yul\":3500:3502   */\n      dup10\n        /* \"#utility.yul\":3492:3498   */\n      dup7\n        /* \"#utility.yul\":3488:3503   */\n      add\n        /* \"#utility.yul\":3481:3573   */\n      mstore\n        /* \"#utility.yul\":3620:3622   */\n      dup8\n        /* \"#utility.yul\":3616:3618   */\n      dup3\n        /* \"#utility.yul\":3612:3623   */\n      add\n        /* \"#utility.yul\":3606:3624   */\n      mload\n        /* \"#utility.yul\":3661:3663   */\n      dup2\n        /* \"#utility.yul\":3656:3658   */\n      dup10\n        /* \"#utility.yul\":3648:3654   */\n      dup8\n        /* \"#utility.yul\":3644:3659   */\n      add\n        /* \"#utility.yul\":3637:3664   */\n      mstore\n        /* \"#utility.yul\":3691:3739   */\n      tag_389\n        /* \"#utility.yul\":3735:3737   */\n      dup3\n        /* \"#utility.yul\":3727:3733   */\n      dup8\n        /* \"#utility.yul\":3723:3738   */\n      add\n        /* \"#utility.yul\":3709:3721   */\n      dup3\n        /* \"#utility.yul\":3691:3739   */\n      tag_359\n      jump\t// in\n    tag_389:\n        /* \"#utility.yul\":3677:3739   */\n      swap2\n      pop\n      pop\n        /* \"#utility.yul\":3762:3766   */\n      0x60\n        /* \"#utility.yul\":3815:3817   */\n      dup1\n        /* \"#utility.yul\":3811:3813   */\n      dup4\n        /* \"#utility.yul\":3807:3818   */\n      add\n        /* \"#utility.yul\":3801:3819   */\n      mload\n        /* \"#utility.yul\":3868:3874   */\n      dup7\n        /* \"#utility.yul\":3860:3866   */\n      dup4\n        /* \"#utility.yul\":3856:3875   */\n      sub\n        /* \"#utility.yul\":3851:3853   */\n      dup3\n        /* \"#utility.yul\":3843:3849   */\n      dup9\n        /* \"#utility.yul\":3839:3854   */\n      add\n        /* \"#utility.yul\":3832:3876   */\n      mstore\n        /* \"#utility.yul\":3903:3944   */\n      tag_390\n        /* \"#utility.yul\":3937:3943   */\n      dup4\n        /* \"#utility.yul\":3921:3935   */\n      dup3\n        /* \"#utility.yul\":3903:3944   */\n      tag_359\n      jump\t// in\n    tag_390:\n        /* \"#utility.yul\":3967:3971   */\n      0x80\n        /* \"#utility.yul\":4014:4025   */\n      swap5\n      dup6\n      add\n        /* \"#utility.yul\":4008:4026   */\n      mload\n        /* \"#utility.yul\":3991:4006   */\n      swap8\n      swap1\n      swap5\n      add\n        /* \"#utility.yul\":3984:4027   */\n      swap7\n      swap1\n      swap7\n      mstore\n      pop\n      pop\n        /* \"#utility.yul\":4114:4126   */\n      swap5\n      dup8\n      add\n      swap5\n        /* \"#utility.yul\":3889:3944   */\n      swap3\n      pop\n        /* \"#utility.yul\":4079:4094   */\n      swap1\n      dup7\n      add\n      swap1\n        /* \"#utility.yul\":3291:3292   */\n      0x01\n        /* \"#utility.yul\":3284:3293   */\n      add\n        /* \"#utility.yul\":3255:4136   */\n      jump(tag_386)\n        /* \"#utility.yul\":4170:4366   */\n    tag_360:\n        /* \"#utility.yul\":4238:4258   */\n      dup1\n      calldataload\n      sub(shl(0xa0, 0x01), 0x01)\n        /* \"#utility.yul\":4287:4341   */\n      dup2\n      and\n        /* \"#utility.yul\":4277:4342   */\n      dup2\n      eq\n        /* \"#utility.yul\":4267:4360   */\n      tag_392\n      jumpi\n        /* \"#utility.yul\":4356:4357   */\n      0x00\n        /* \"#utility.yul\":4353:4354   */\n      dup1\n        /* \"#utility.yul\":4346:4358   */\n      revert\n        /* \"#utility.yul\":4267:4360   */\n    tag_392:\n        /* \"#utility.yul\":4170:4366   */\n      swap2\n      swap1\n      pop\n      jump\t// out\n        /* \"#utility.yul\":4371:4625   */\n    tag_53:\n        /* \"#utility.yul\":4439:4445   */\n      0x00\n        /* \"#utility.yul\":4447:4453   */\n      dup1\n        /* \"#utility.yul\":4500:4502   */\n      0x40\n        /* \"#utility.yul\":4488:4497   */\n      dup4\n        /* \"#utility.yul\":4479:4486   */\n      dup6\n        /* \"#utility.yul\":4475:4498   */\n      sub\n        /* \"#utility.yul\":4471:4503   */\n      slt\n        /* \"#utility.yul\":4468:4520   */\n      iszero\n      tag_394\n      jumpi\n        /* \"#utility.yul\":4516:4517   */\n      0x00\n        /* \"#utility.yul\":4513:4514   */\n      dup1\n        /* \"#utility.yul\":4506:4518   */\n      revert\n        /* \"#utility.yul\":4468:4520   */\n    tag_394:\n        /* \"#utility.yul\":4539:4568   */\n      tag_395\n        /* \"#utility.yul\":4558:4567   */\n      dup4\n        /* \"#utility.yul\":4539:4568   */\n      tag_360\n      jump\t// in\n    tag_395:\n        /* \"#utility.yul\":4529:4568   */\n      swap5\n        /* \"#utility.yul\":4615:4617   */\n      0x20\n        /* \"#utility.yul\":4600:4618   */\n      swap4\n      swap1\n      swap4\n      add\n        /* \"#utility.yul\":4587:4619   */\n      calldataload\n      swap4\n      pop\n      pop\n      pop\n        /* \"#utility.yul\":4371:4625   */\n      jump\t// out\n        /* \"#utility.yul\":4630:5144   */\n    tag_56:\n        /* \"#utility.yul\":4863:4869   */\n      dup5\n        /* \"#utility.yul\":4852:4861   */\n      dup2\n        /* \"#utility.yul\":4845:4870   */\n      mstore\n        /* \"#utility.yul\":4826:4830   */\n      0x00\n      sub(shl(0xa0, 0x01), 0x01)\n        /* \"#utility.yul\":4979:4981   */\n      dup1\n        /* \"#utility.yul\":4971:4977   */\n      dup7\n        /* \"#utility.yul\":4967:4982   */\n      and\n        /* \"#utility.yul\":4962:4964   */\n      0x20\n        /* \"#utility.yul\":4951:4960   */\n      dup5\n        /* \"#utility.yul\":4947:4965   */\n      add\n        /* \"#utility.yul\":4940:4983   */\n      mstore\n        /* \"#utility.yul\":5019:5022   */\n      0x80\n        /* \"#utility.yul\":5014:5016   */\n      0x40\n        /* \"#utility.yul\":5003:5012   */\n      dup5\n        /* \"#utility.yul\":4999:5017   */\n      add\n        /* \"#utility.yul\":4992:5023   */\n      mstore\n        /* \"#utility.yul\":5040:5086   */\n      tag_397\n        /* \"#utility.yul\":5081:5084   */\n      0x80\n        /* \"#utility.yul\":5070:5079   */\n      dup5\n        /* \"#utility.yul\":5066:5085   */\n      add\n        /* \"#utility.yul\":5058:5064   */\n      dup7\n        /* \"#utility.yul\":5040:5086   */\n      tag_359\n      jump\t// in\n    tag_397:\n        /* \"#utility.yul\":5032:5086   */\n      swap2\n      pop\n        /* \"#utility.yul\":5134:5136   */\n      dup1\n        /* \"#utility.yul\":5126:5132   */\n      dup5\n        /* \"#utility.yul\":5122:5137   */\n      and\n        /* \"#utility.yul\":5117:5119   */\n      0x60\n        /* \"#utility.yul\":5106:5115   */\n      dup5\n        /* \"#utility.yul\":5102:5120   */\n      add\n        /* \"#utility.yul\":5095:5138   */\n      mstore\n      pop\n        /* \"#utility.yul\":4630:5144   */\n      swap6\n      swap5\n      pop\n      pop\n      pop\n      pop\n      pop\n      jump\t// out\n        /* \"#utility.yul\":5149:5335   */\n    tag_59:\n        /* \"#utility.yul\":5208:5214   */\n      0x00\n        /* \"#utility.yul\":5261:5263   */\n      0x20\n        /* \"#utility.yul\":5249:5258   */\n      dup3\n        /* \"#utility.yul\":5240:5247   */\n      dup5\n        /* \"#utility.yul\":5236:5259   */\n      sub\n        /* \"#utility.yul\":5232:5264   */\n      slt\n        /* \"#utility.yul\":5229:5281   */\n      iszero\n      tag_399\n      jumpi\n        /* \"#utility.yul\":5277:5278   */\n      0x00\n        /* \"#utility.yul\":5274:5275   */\n      dup1\n        /* \"#utility.yul\":5267:5279   */\n      revert\n        /* \"#utility.yul\":5229:5281   */\n    tag_399:\n        /* \"#utility.yul\":5300:5329   */\n      tag_400\n        /* \"#utility.yul\":5319:5328   */\n      dup3\n        /* \"#utility.yul\":5300:5329   */\n      tag_360\n      jump\t// in\n    tag_400:\n        /* \"#utility.yul\":5290:5329   */\n      swap4\n        /* \"#utility.yul\":5149:5335   */\n      swap3\n      pop\n      pop\n      pop\n      jump\t// out\n        /* \"#utility.yul\":5340:5916   */\n    tag_62:\n        /* \"#utility.yul\":5593:5599   */\n      dup5\n        /* \"#utility.yul\":5582:5591   */\n      dup2\n        /* \"#utility.yul\":5575:5600   */\n      mstore\n      sub(shl(0xa0, 0x01), 0x01)\n        /* \"#utility.yul\":5640:5646   */\n      dup5\n        /* \"#utility.yul\":5636:5691   */\n      and\n        /* \"#utility.yul\":5631:5633   */\n      0x20\n        /* \"#utility.yul\":5620:5629   */\n      dup3\n        /* \"#utility.yul\":5616:5634   */\n      add\n        /* \"#utility.yul\":5609:5692   */\n      mstore\n        /* \"#utility.yul\":5728:5731   */\n      0x80\n        /* \"#utility.yul\":5723:5725   */\n      0x40\n        /* \"#utility.yul\":5712:5721   */\n      dup3\n        /* \"#utility.yul\":5708:5726   */\n      add\n        /* \"#utility.yul\":5701:5732   */\n      mstore\n        /* \"#utility.yul\":5556:5560   */\n      0x00\n        /* \"#utility.yul\":5755:5801   */\n      tag_402\n        /* \"#utility.yul\":5796:5799   */\n      0x80\n        /* \"#utility.yul\":5785:5794   */\n      dup4\n        /* \"#utility.yul\":5781:5800   */\n      add\n        /* \"#utility.yul\":5773:5779   */\n      dup6\n        /* \"#utility.yul\":5755:5801   */\n      tag_359\n      jump\t// in\n    tag_402:\n        /* \"#utility.yul\":5849:5858   */\n      dup3\n        /* \"#utility.yul\":5841:5847   */\n      dup2\n        /* \"#utility.yul\":5837:5859   */\n      sub\n        /* \"#utility.yul\":5832:5834   */\n      0x60\n        /* \"#utility.yul\":5821:5830   */\n      dup5\n        /* \"#utility.yul\":5817:5835   */\n      add\n        /* \"#utility.yul\":5810:5860   */\n      mstore\n        /* \"#utility.yul\":5877:5910   */\n      tag_403\n        /* \"#utility.yul\":5903:5909   */\n      dup2\n        /* \"#utility.yul\":5895:5901   */\n      dup6\n        /* \"#utility.yul\":5877:5910   */\n      tag_359\n      jump\t// in\n    tag_403:\n        /* \"#utility.yul\":5869:5910   */\n      swap8\n        /* \"#utility.yul\":5340:5916   */\n      swap7\n      pop\n      pop\n      pop\n      pop\n      pop\n      pop\n      pop\n      jump\t// out\n        /* \"#utility.yul\":6103:7461   */\n    tag_70:\n        /* \"#utility.yul\":6289:6293   */\n      0x00\n        /* \"#utility.yul\":6318:6320   */\n      0x20\n        /* \"#utility.yul\":6358:6360   */\n      dup1\n        /* \"#utility.yul\":6347:6356   */\n      dup4\n        /* \"#utility.yul\":6343:6361   */\n      add\n        /* \"#utility.yul\":6388:6390   */\n      dup2\n        /* \"#utility.yul\":6377:6386   */\n      dup5\n        /* \"#utility.yul\":6370:6391   */\n      mstore\n        /* \"#utility.yul\":6411:6417   */\n      dup1\n        /* \"#utility.yul\":6446:6452   */\n      dup6\n        /* \"#utility.yul\":6440:6453   */\n      mload\n        /* \"#utility.yul\":6477:6483   */\n      dup1\n        /* \"#utility.yul\":6469:6475   */\n      dup4\n        /* \"#utility.yul\":6462:6484   */\n      mstore\n        /* \"#utility.yul\":6503:6505   */\n      0x40\n        /* \"#utility.yul\":6493:6505   */\n      swap3\n      pop\n        /* \"#utility.yul\":6536:6538   */\n      dup3\n        /* \"#utility.yul\":6525:6534   */\n      dup7\n        /* \"#utility.yul\":6521:6539   */\n      add\n        /* \"#utility.yul\":6514:6539   */\n      swap2\n      pop\n        /* \"#utility.yul\":6598:6600   */\n      dup3\n        /* \"#utility.yul\":6588:6594   */\n      dup2\n        /* \"#utility.yul\":6585:6586   */\n      0x05\n        /* \"#utility.yul\":6581:6595   */\n      shl\n        /* \"#utility.yul\":6570:6579   */\n      dup8\n        /* \"#utility.yul\":6566:6596   */\n      add\n        /* \"#utility.yul\":6562:6601   */\n      add\n        /* \"#utility.yul\":6636:6638   */\n      dup5\n        /* \"#utility.yul\":6628:6634   */\n      dup9\n        /* \"#utility.yul\":6624:6639   */\n      add\n        /* \"#utility.yul\":6657:6658   */\n      0x00\n        /* \"#utility.yul\":6667:7432   */\n    tag_406:\n        /* \"#utility.yul\":6681:6687   */\n      dup4\n        /* \"#utility.yul\":6678:6679   */\n      dup2\n        /* \"#utility.yul\":6675:6688   */\n      lt\n        /* \"#utility.yul\":6667:7432   */\n      iszero\n      tag_376\n      jumpi\n        /* \"#utility.yul\":6774:6776   */\n      0x3f\n        /* \"#utility.yul\":6770:6777   */\n      not\n        /* \"#utility.yul\":6758:6767   */\n      dup10\n        /* \"#utility.yul\":6750:6756   */\n      dup5\n        /* \"#utility.yul\":6746:6768   */\n      sub\n        /* \"#utility.yul\":6742:6778   */\n      add\n        /* \"#utility.yul\":6737:6740   */\n      dup6\n        /* \"#utility.yul\":6730:6779   */\n      mstore\n        /* \"#utility.yul\":6808:6814   */\n      dup2\n        /* \"#utility.yul\":6802:6815   */\n      mload\n        /* \"#utility.yul\":6838:6842   */\n      0x80\n        /* \"#utility.yul\":6876:6878   */\n      dup2\n        /* \"#utility.yul\":6870:6879   */\n      mload\n        /* \"#utility.yul\":6862:6868   */\n      dup6\n        /* \"#utility.yul\":6855:6880   */\n      mstore\n      sub(shl(0xa0, 0x01), 0x01)\n        /* \"#utility.yul\":6935:6937   */\n      dup10\n        /* \"#utility.yul\":6931:6933   */\n      dup4\n        /* \"#utility.yul\":6927:6938   */\n      add\n        /* \"#utility.yul\":6921:6939   */\n      mload\n        /* \"#utility.yul\":6917:6984   */\n      and\n        /* \"#utility.yul\":6912:6914   */\n      dup10\n        /* \"#utility.yul\":6904:6910   */\n      dup7\n        /* \"#utility.yul\":6900:6915   */\n      add\n        /* \"#utility.yul\":6893:6985   */\n      mstore\n        /* \"#utility.yul\":7032:7034   */\n      dup8\n        /* \"#utility.yul\":7028:7030   */\n      dup3\n        /* \"#utility.yul\":7024:7035   */\n      add\n        /* \"#utility.yul\":7018:7036   */\n      mload\n        /* \"#utility.yul\":7073:7075   */\n      dup2\n        /* \"#utility.yul\":7068:7070   */\n      dup10\n        /* \"#utility.yul\":7060:7066   */\n      dup8\n        /* \"#utility.yul\":7056:7071   */\n      add\n        /* \"#utility.yul\":7049:7076   */\n      mstore\n        /* \"#utility.yul\":7103:7151   */\n      tag_409\n        /* \"#utility.yul\":7147:7149   */\n      dup3\n        /* \"#utility.yul\":7139:7145   */\n      dup8\n        /* \"#utility.yul\":7135:7150   */\n      add\n        /* \"#utility.yul\":7121:7133   */\n      dup3\n        /* \"#utility.yul\":7103:7151   */\n      tag_359\n      jump\t// in\n    tag_409:\n        /* \"#utility.yul\":7089:7151   */\n      swap2\n      pop\n      pop\n        /* \"#utility.yul\":7174:7178   */\n      0x60\n        /* \"#utility.yul\":7227:7229   */\n      dup1\n        /* \"#utility.yul\":7223:7225   */\n      dup4\n        /* \"#utility.yul\":7219:7230   */\n      add\n        /* \"#utility.yul\":7213:7231   */\n      mload\n        /* \"#utility.yul\":7191:7231   */\n      swap3\n      pop\n        /* \"#utility.yul\":7280:7286   */\n      dup6\n        /* \"#utility.yul\":7272:7278   */\n      dup3\n        /* \"#utility.yul\":7268:7287   */\n      sub\n        /* \"#utility.yul\":7263:7265   */\n      dup2\n        /* \"#utility.yul\":7255:7261   */\n      dup8\n        /* \"#utility.yul\":7251:7266   */\n      add\n        /* \"#utility.yul\":7244:7288   */\n      mstore\n      pop\n        /* \"#utility.yul\":7311:7352   */\n      tag_410\n        /* \"#utility.yul\":7345:7351   */\n      dup2\n        /* \"#utility.yul\":7329:7343   */\n      dup4\n        /* \"#utility.yul\":7311:7352   */\n      tag_359\n      jump\t// in\n    tag_410:\n        /* \"#utility.yul\":7410:7422   */\n      swap7\n      dup10\n      add\n      swap7\n        /* \"#utility.yul\":7301:7352   */\n      swap5\n      pop\n      pop\n      pop\n        /* \"#utility.yul\":7375:7390   */\n      swap1\n      dup7\n      add\n      swap1\n        /* \"#utility.yul\":6703:6704   */\n      0x01\n        /* \"#utility.yul\":6696:6705   */\n      add\n        /* \"#utility.yul\":6667:7432   */\n      jump(tag_406)\n        /* \"#utility.yul\":7466:7980   */\n    tag_361:\n        /* \"#utility.yul\":7554:7559   */\n      dup1\n        /* \"#utility.yul\":7548:7560   */\n      mload\n        /* \"#utility.yul\":7543:7546   */\n      dup3\n        /* \"#utility.yul\":7536:7561   */\n      mstore\n        /* \"#utility.yul\":7518:7521   */\n      0x00\n        /* \"#utility.yul\":7607:7611   */\n      0x20\n        /* \"#utility.yul\":7600:7605   */\n      dup3\n        /* \"#utility.yul\":7596:7612   */\n      add\n        /* \"#utility.yul\":7590:7613   */\n      mload\n      sub(shl(0xa0, 0x01), 0x01)\n        /* \"#utility.yul\":7724:7726   */\n      dup1\n        /* \"#utility.yul\":7710:7722   */\n      dup3\n        /* \"#utility.yul\":7706:7727   */\n      and\n        /* \"#utility.yul\":7699:7703   */\n      0x20\n        /* \"#utility.yul\":7694:7697   */\n      dup7\n        /* \"#utility.yul\":7690:7704   */\n      add\n        /* \"#utility.yul\":7683:7728   */\n      mstore\n        /* \"#utility.yul\":7776:7780   */\n      0x40\n        /* \"#utility.yul\":7769:7774   */\n      dup5\n        /* \"#utility.yul\":7765:7781   */\n      add\n        /* \"#utility.yul\":7759:7782   */\n      mload\n        /* \"#utility.yul\":7737:7782   */\n      swap2\n      pop\n        /* \"#utility.yul\":7814:7818   */\n      0x80\n        /* \"#utility.yul\":7807:7811   */\n      0x40\n        /* \"#utility.yul\":7802:7805   */\n      dup7\n        /* \"#utility.yul\":7798:7812   */\n      add\n        /* \"#utility.yul\":7791:7819   */\n      mstore\n        /* \"#utility.yul\":7840:7889   */\n      tag_412\n        /* \"#utility.yul\":7883:7887   */\n      0x80\n        /* \"#utility.yul\":7878:7881   */\n      dup7\n        /* \"#utility.yul\":7874:7888   */\n      add\n        /* \"#utility.yul\":7858:7872   */\n      dup4\n        /* \"#utility.yul\":7840:7889   */\n      tag_359\n      jump\t// in\n    tag_412:\n        /* \"#utility.yul\":7942:7946   */\n      0x60\n        /* \"#utility.yul\":7931:7947   */\n      swap5\n      dup6\n      add\n        /* \"#utility.yul\":7925:7948   */\n      mload\n        /* \"#utility.yul\":7921:7953   */\n      swap1\n      swap2\n      and\n        /* \"#utility.yul\":7905:7919   */\n      swap5\n      swap1\n      swap4\n      add\n        /* \"#utility.yul\":7898:7954   */\n      swap4\n      swap1\n      swap4\n      mstore\n      pop\n        /* \"#utility.yul\":7828:7889   */\n      swap2\n        /* \"#utility.yul\":7466:7980   */\n      swap1\n      pop\n      jump\t// out\n        /* \"#utility.yul\":7985:8828   */\n    tag_75:\n        /* \"#utility.yul\":8177:8181   */\n      0x00\n        /* \"#utility.yul\":8206:8208   */\n      0x20\n        /* \"#utility.yul\":8246:8248   */\n      dup1\n        /* \"#utility.yul\":8235:8244   */\n      dup4\n        /* \"#utility.yul\":8231:8249   */\n      add\n        /* \"#utility.yul\":8276:8278   */\n      dup2\n        /* \"#utility.yul\":8265:8274   */\n      dup5\n        /* \"#utility.yul\":8258:8279   */\n      mstore\n        /* \"#utility.yul\":8299:8305   */\n      dup1\n        /* \"#utility.yul\":8334:8340   */\n      dup6\n        /* \"#utility.yul\":8328:8341   */\n      mload\n        /* \"#utility.yul\":8365:8371   */\n      dup1\n        /* \"#utility.yul\":8357:8363   */\n      dup4\n        /* \"#utility.yul\":8350:8372   */\n      mstore\n        /* \"#utility.yul\":8403:8405   */\n      0x40\n        /* \"#utility.yul\":8392:8401   */\n      dup7\n        /* \"#utility.yul\":8388:8406   */\n      add\n        /* \"#utility.yul\":8381:8406   */\n      swap2\n      pop\n        /* \"#utility.yul\":8465:8467   */\n      0x40\n        /* \"#utility.yul\":8455:8461   */\n      dup2\n        /* \"#utility.yul\":8452:8453   */\n      0x05\n        /* \"#utility.yul\":8448:8462   */\n      shl\n        /* \"#utility.yul\":8437:8446   */\n      dup8\n        /* \"#utility.yul\":8433:8463   */\n      add\n        /* \"#utility.yul\":8429:8468   */\n      add\n        /* \"#utility.yul\":8415:8468   */\n      swap3\n      pop\n        /* \"#utility.yul\":8503:8505   */\n      dup4\n        /* \"#utility.yul\":8495:8501   */\n      dup8\n        /* \"#utility.yul\":8491:8506   */\n      add\n        /* \"#utility.yul\":8524:8525   */\n      0x00\n        /* \"#utility.yul\":8534:8799   */\n    tag_414:\n        /* \"#utility.yul\":8548:8554   */\n      dup3\n        /* \"#utility.yul\":8545:8546   */\n      dup2\n        /* \"#utility.yul\":8542:8555   */\n      lt\n        /* \"#utility.yul\":8534:8799   */\n      iszero\n      tag_416\n      jumpi\n        /* \"#utility.yul\":8641:8643   */\n      0x3f\n        /* \"#utility.yul\":8637:8644   */\n      not\n        /* \"#utility.yul\":8625:8634   */\n      dup9\n        /* \"#utility.yul\":8617:8623   */\n      dup7\n        /* \"#utility.yul\":8613:8635   */\n      sub\n        /* \"#utility.yul\":8609:8645   */\n      add\n        /* \"#utility.yul\":8604:8607   */\n      dup5\n        /* \"#utility.yul\":8597:8646   */\n      mstore\n        /* \"#utility.yul\":8669:8719   */\n      tag_417\n        /* \"#utility.yul\":8712:8718   */\n      dup6\n        /* \"#utility.yul\":8703:8709   */\n      dup4\n        /* \"#utility.yul\":8697:8710   */\n      mload\n        /* \"#utility.yul\":8669:8719   */\n      tag_361\n      jump\t// in\n    tag_417:\n        /* \"#utility.yul\":8659:8719   */\n      swap5\n      pop\n        /* \"#utility.yul\":8777:8789   */\n      swap3\n      dup6\n      add\n      swap3\n        /* \"#utility.yul\":8742:8757   */\n      swap1\n      dup6\n      add\n      swap1\n        /* \"#utility.yul\":8570:8571   */\n      0x01\n        /* \"#utility.yul\":8563:8572   */\n      add\n        /* \"#utility.yul\":8534:8799   */\n      jump(tag_414)\n    tag_416:\n      pop\n        /* \"#utility.yul\":8816:8822   */\n      swap3\n      swap8\n        /* \"#utility.yul\":7985:8828   */\n      swap7\n      pop\n      pop\n      pop\n      pop\n      pop\n      pop\n      pop\n      jump\t// out\n        /* \"#utility.yul\":8833:8960   */\n    tag_362:\n        /* \"#utility.yul\":8894:8904   */\n      0x4e487b71\n        /* \"#utility.yul\":8889:8892   */\n      0xe0\n        /* \"#utility.yul\":8885:8905   */\n      shl\n        /* \"#utility.yul\":8882:8883   */\n      0x00\n        /* \"#utility.yul\":8875:8906   */\n      mstore\n        /* \"#utility.yul\":8925:8929   */\n      0x41\n        /* \"#utility.yul\":8922:8923   */\n      0x04\n        /* \"#utility.yul\":8915:8930   */\n      mstore\n        /* \"#utility.yul\":8949:8953   */\n      0x24\n        /* \"#utility.yul\":8946:8947   */\n      0x00\n        /* \"#utility.yul\":8939:8954   */\n      revert\n        /* \"#utility.yul\":8965:9684   */\n    tag_363:\n        /* \"#utility.yul\":9008:9013   */\n      0x00\n        /* \"#utility.yul\":9061:9064   */\n      dup3\n        /* \"#utility.yul\":9054:9058   */\n      0x1f\n        /* \"#utility.yul\":9046:9052   */\n      dup4\n        /* \"#utility.yul\":9042:9059   */\n      add\n        /* \"#utility.yul\":9038:9065   */\n      slt\n        /* \"#utility.yul\":9028:9083   */\n      tag_420\n      jumpi\n        /* \"#utility.yul\":9079:9080   */\n      0x00\n        /* \"#utility.yul\":9076:9077   */\n      dup1\n        /* \"#utility.yul\":9069:9081   */\n      revert\n        /* \"#utility.yul\":9028:9083   */\n    tag_420:\n        /* \"#utility.yul\":9115:9121   */\n      dup2\n        /* \"#utility.yul\":9102:9122   */\n      calldataload\n        /* \"#utility.yul\":9141:9159   */\n      0xffffffffffffffff\n        /* \"#utility.yul\":9178:9180   */\n      dup1\n        /* \"#utility.yul\":9174:9176   */\n      dup3\n        /* \"#utility.yul\":9171:9181   */\n      gt\n        /* \"#utility.yul\":9168:9204   */\n      iszero\n      tag_422\n      jumpi\n        /* \"#utility.yul\":9184:9202   */\n      tag_422\n      tag_362\n      jump\t// in\n    tag_422:\n        /* \"#utility.yul\":9259:9261   */\n      0x40\n        /* \"#utility.yul\":9253:9262   */\n      mload\n        /* \"#utility.yul\":9227:9229   */\n      0x1f\n        /* \"#utility.yul\":9313:9326   */\n      dup4\n      add\n      not(0x1f)\n        /* \"#utility.yul\":9309:9331   */\n      swap1\n      dup2\n      and\n        /* \"#utility.yul\":9333:9335   */\n      0x3f\n        /* \"#utility.yul\":9305:9336   */\n      add\n        /* \"#utility.yul\":9301:9341   */\n      and\n        /* \"#utility.yul\":9289:9342   */\n      dup2\n      add\n      swap1\n        /* \"#utility.yul\":9357:9375   */\n      dup3\n      dup3\n      gt\n        /* \"#utility.yul\":9377:9399   */\n      dup2\n      dup4\n      lt\n        /* \"#utility.yul\":9354:9400   */\n      or\n        /* \"#utility.yul\":9351:9423   */\n      iszero\n      tag_424\n      jumpi\n        /* \"#utility.yul\":9403:9421   */\n      tag_424\n      tag_362\n      jump\t// in\n    tag_424:\n        /* \"#utility.yul\":9443:9453   */\n      dup2\n        /* \"#utility.yul\":9439:9441   */\n      0x40\n        /* \"#utility.yul\":9432:9454   */\n      mstore\n        /* \"#utility.yul\":9478:9480   */\n      dup4\n        /* \"#utility.yul\":9470:9476   */\n      dup2\n        /* \"#utility.yul\":9463:9481   */\n      mstore\n        /* \"#utility.yul\":9524:9527   */\n      dup7\n        /* \"#utility.yul\":9517:9521   */\n      0x20\n        /* \"#utility.yul\":9512:9514   */\n      dup6\n        /* \"#utility.yul\":9504:9510   */\n      dup9\n        /* \"#utility.yul\":9500:9515   */\n      add\n        /* \"#utility.yul\":9496:9522   */\n      add\n        /* \"#utility.yul\":9493:9528   */\n      gt\n        /* \"#utility.yul\":9490:9545   */\n      iszero\n      tag_425\n      jumpi\n        /* \"#utility.yul\":9541:9542   */\n      0x00\n        /* \"#utility.yul\":9538:9539   */\n      dup1\n        /* \"#utility.yul\":9531:9543   */\n      revert\n        /* \"#utility.yul\":9490:9545   */\n    tag_425:\n        /* \"#utility.yul\":9605:9607   */\n      dup4\n        /* \"#utility.yul\":9598:9602   */\n      0x20\n        /* \"#utility.yul\":9590:9596   */\n      dup8\n        /* \"#utility.yul\":9586:9603   */\n      add\n        /* \"#utility.yul\":9579:9583   */\n      0x20\n        /* \"#utility.yul\":9571:9577   */\n      dup4\n        /* \"#utility.yul\":9567:9584   */\n      add\n        /* \"#utility.yul\":9554:9608   */\n      calldatacopy\n        /* \"#utility.yul\":9652:9653   */\n      0x00\n        /* \"#utility.yul\":9645:9649   */\n      0x20\n        /* \"#utility.yul\":9640:9642   */\n      dup6\n        /* \"#utility.yul\":9632:9638   */\n      dup4\n        /* \"#utility.yul\":9628:9643   */\n      add\n        /* \"#utility.yul\":9624:9650   */\n      add\n        /* \"#utility.yul\":9617:9654   */\n      mstore\n        /* \"#utility.yul\":9672:9678   */\n      dup1\n        /* \"#utility.yul\":9663:9678   */\n      swap5\n      pop\n      pop\n      pop\n      pop\n      pop\n        /* \"#utility.yul\":8965:9684   */\n      swap3\n      swap2\n      pop\n      pop\n      jump\t// out\n        /* \"#utility.yul\":9689:10444   */\n    tag_78:\n        /* \"#utility.yul\":9804:9810   */\n      0x00\n        /* \"#utility.yul\":9812:9818   */\n      dup1\n        /* \"#utility.yul\":9820:9826   */\n      0x00\n        /* \"#utility.yul\":9828:9834   */\n      dup1\n        /* \"#utility.yul\":9836:9842   */\n      0x00\n        /* \"#utility.yul\":9889:9892   */\n      0xa0\n        /* \"#utility.yul\":9877:9886   */\n      dup7\n        /* \"#utility.yul\":9868:9875   */\n      dup9\n        /* \"#utility.yul\":9864:9887   */\n      sub\n        /* \"#utility.yul\":9860:9893   */\n      slt\n        /* \"#utility.yul\":9857:9910   */\n      iszero\n      tag_427\n      jumpi\n        /* \"#utility.yul\":9906:9907   */\n      0x00\n        /* \"#utility.yul\":9903:9904   */\n      dup1\n        /* \"#utility.yul\":9896:9908   */\n      revert\n        /* \"#utility.yul\":9857:9910   */\n    tag_427:\n        /* \"#utility.yul\":9942:9951   */\n      dup6\n        /* \"#utility.yul\":9929:9952   */\n      calldataload\n        /* \"#utility.yul\":9919:9952   */\n      swap5\n      pop\n        /* \"#utility.yul\":10003:10005   */\n      0x20\n        /* \"#utility.yul\":9992:10001   */\n      dup7\n        /* \"#utility.yul\":9988:10006   */\n      add\n        /* \"#utility.yul\":9975:10007   */\n      calldataload\n        /* \"#utility.yul\":10026:10044   */\n      0xffffffffffffffff\n        /* \"#utility.yul\":10067:10069   */\n      dup1\n        /* \"#utility.yul\":10059:10065   */\n      dup3\n        /* \"#utility.yul\":10056:10070   */\n      gt\n        /* \"#utility.yul\":10053:10087   */\n      iszero\n      tag_428\n      jumpi\n        /* \"#utility.yul\":10083:10084   */\n      0x00\n        /* \"#utility.yul\":10080:10081   */\n      dup1\n        /* \"#utility.yul\":10073:10085   */\n      revert\n        /* \"#utility.yul\":10053:10087   */\n    tag_428:\n        /* \"#utility.yul\":10106:10156   */\n      tag_429\n        /* \"#utility.yul\":10148:10155   */\n      dup10\n        /* \"#utility.yul\":10139:10145   */\n      dup4\n        /* \"#utility.yul\":10128:10137   */\n      dup11\n        /* \"#utility.yul\":10124:10146   */\n      add\n        /* \"#utility.yul\":10106:10156   */\n      tag_363\n      jump\t// in\n    tag_429:\n        /* \"#utility.yul\":10096:10156   */\n      swap6\n      pop\n        /* \"#utility.yul\":10209:10211   */\n      0x40\n        /* \"#utility.yul\":10198:10207   */\n      dup9\n        /* \"#utility.yul\":10194:10212   */\n      add\n        /* \"#utility.yul\":10181:10213   */\n      calldataload\n        /* \"#utility.yul\":10165:10213   */\n      swap2\n      pop\n        /* \"#utility.yul\":10238:10240   */\n      dup1\n        /* \"#utility.yul\":10228:10236   */\n      dup3\n        /* \"#utility.yul\":10225:10241   */\n      gt\n        /* \"#utility.yul\":10222:10258   */\n      iszero\n      tag_430\n      jumpi\n        /* \"#utility.yul\":10254:10255   */\n      0x00\n        /* \"#utility.yul\":10251:10252   */\n      dup1\n        /* \"#utility.yul\":10244:10256   */\n      revert\n        /* \"#utility.yul\":10222:10258   */\n    tag_430:\n      pop\n        /* \"#utility.yul\":10277:10329   */\n      tag_431\n        /* \"#utility.yul\":10321:10328   */\n      dup9\n        /* \"#utility.yul\":10310:10318   */\n      dup3\n        /* \"#utility.yul\":10299:10308   */\n      dup10\n        /* \"#utility.yul\":10295:10319   */\n      add\n        /* \"#utility.yul\":10277:10329   */\n      tag_363\n      jump\t// in\n    tag_431:\n        /* \"#utility.yul\":10267:10329   */\n      swap4\n      pop\n      pop\n        /* \"#utility.yul\":10376:10378   */\n      0x60\n        /* \"#utility.yul\":10365:10374   */\n      dup7\n        /* \"#utility.yul\":10361:10379   */\n      add\n        /* \"#utility.yul\":10348:10380   */\n      calldataload\n        /* \"#utility.yul\":10338:10380   */\n      swap2\n      pop\n        /* \"#utility.yul\":10399:10438   */\n      tag_432\n        /* \"#utility.yul\":10433:10436   */\n      0x80\n        /* \"#utility.yul\":10422:10431   */\n      dup8\n        /* \"#utility.yul\":10418:10437   */\n      add\n        /* \"#utility.yul\":10399:10438   */\n      tag_360\n      jump\t// in\n    tag_432:\n        /* \"#utility.yul\":10389:10438   */\n      swap1\n      pop\n        /* \"#utility.yul\":9689:10444   */\n      swap3\n      swap6\n      pop\n      swap3\n      swap6\n      swap1\n      swap4\n      pop\n      jump\t// out\n        /* \"#utility.yul\":10449:11066   */\n    tag_82:\n        /* \"#utility.yul\":10546:10552   */\n      0x00\n        /* \"#utility.yul\":10554:10560   */\n      dup1\n        /* \"#utility.yul\":10562:10568   */\n      0x00\n        /* \"#utility.yul\":10615:10617   */\n      0x60\n        /* \"#utility.yul\":10603:10612   */\n      dup5\n        /* \"#utility.yul\":10594:10601   */\n      dup7\n        /* \"#utility.yul\":10590:10613   */\n      sub\n        /* \"#utility.yul\":10586:10618   */\n      slt\n        /* \"#utility.yul\":10583:10635   */\n      iszero\n      tag_434\n      jumpi\n        /* \"#utility.yul\":10631:10632   */\n      0x00\n        /* \"#utility.yul\":10628:10629   */\n      dup1\n        /* \"#utility.yul\":10621:10633   */\n      revert\n        /* \"#utility.yul\":10583:10635   */\n    tag_434:\n        /* \"#utility.yul\":10654:10683   */\n      tag_435\n        /* \"#utility.yul\":10673:10682   */\n      dup5\n        /* \"#utility.yul\":10654:10683   */\n      tag_360\n      jump\t// in\n    tag_435:\n        /* \"#utility.yul\":10644:10683   */\n      swap3\n      pop\n        /* \"#utility.yul\":10734:10736   */\n      0x20\n        /* \"#utility.yul\":10723:10732   */\n      dup5\n        /* \"#utility.yul\":10719:10737   */\n      add\n        /* \"#utility.yul\":10706:10738   */\n      calldataload\n        /* \"#utility.yul\":10757:10775   */\n      0xffffffffffffffff\n        /* \"#utility.yul\":10798:10800   */\n      dup1\n        /* \"#utility.yul\":10790:10796   */\n      dup3\n        /* \"#utility.yul\":10787:10801   */\n      gt\n        /* \"#utility.yul\":10784:10818   */\n      iszero\n      tag_436\n      jumpi\n        /* \"#utility.yul\":10814:10815   */\n      0x00\n        /* \"#utility.yul\":10811:10812   */\n      dup1\n        /* \"#utility.yul\":10804:10816   */\n      revert\n        /* \"#utility.yul\":10784:10818   */\n    tag_436:\n        /* \"#utility.yul\":10837:10887   */\n      tag_437\n        /* \"#utility.yul\":10879:10886   */\n      dup8\n        /* \"#utility.yul\":10870:10876   */\n      dup4\n        /* \"#utility.yul\":10859:10868   */\n      dup9\n        /* \"#utility.yul\":10855:10877   */\n      add\n        /* \"#utility.yul\":10837:10887   */\n      tag_363\n      jump\t// in\n    tag_437:\n        /* \"#utility.yul\":10827:10887   */\n      swap4\n      pop\n        /* \"#utility.yul\":10940:10942   */\n      0x40\n        /* \"#utility.yul\":10929:10938   */\n      dup7\n        /* \"#utility.yul\":10925:10943   */\n      add\n        /* \"#utility.yul\":10912:10944   */\n      calldataload\n        /* \"#utility.yul\":10896:10944   */\n      swap2\n      pop\n        /* \"#utility.yul\":10969:10971   */\n      dup1\n        /* \"#utility.yul\":10959:10967   */\n      dup3\n        /* \"#utility.yul\":10956:10972   */\n      gt\n        /* \"#utility.yul\":10953:10989   */\n      iszero\n      tag_438\n      jumpi\n        /* \"#utility.yul\":10985:10986   */\n      0x00\n        /* \"#utility.yul\":10982:10983   */\n      dup1\n        /* \"#utility.yul\":10975:10987   */\n      revert\n        /* \"#utility.yul\":10953:10989   */\n    tag_438:\n      pop\n        /* \"#utility.yul\":11008:11060   */\n      tag_439\n        /* \"#utility.yul\":11052:11059   */\n      dup7\n        /* \"#utility.yul\":11041:11049   */\n      dup3\n        /* \"#utility.yul\":11030:11039   */\n      dup8\n        /* \"#utility.yul\":11026:11050   */\n      add\n        /* \"#utility.yul\":11008:11060   */\n      tag_363\n      jump\t// in\n    tag_439:\n        /* \"#utility.yul\":10998:11060   */\n      swap2\n      pop\n      pop\n        /* \"#utility.yul\":10449:11066   */\n      swap3\n      pop\n      swap3\n      pop\n      swap3\n      jump\t// out\n        /* \"#utility.yul\":11071:11541   */\n    tag_86:\n        /* \"#utility.yul\":11158:11164   */\n      0x00\n        /* \"#utility.yul\":11166:11172   */\n      dup1\n        /* \"#utility.yul\":11174:11180   */\n      0x00\n        /* \"#utility.yul\":11227:11229   */\n      0x60\n        /* \"#utility.yul\":11215:11224   */\n      dup5\n        /* \"#utility.yul\":11206:11213   */\n      dup7\n        /* \"#utility.yul\":11202:11225   */\n      sub\n        /* \"#utility.yul\":11198:11230   */\n      slt\n        /* \"#utility.yul\":11195:11247   */\n      iszero\n      tag_441\n      jumpi\n        /* \"#utility.yul\":11243:11244   */\n      0x00\n        /* \"#utility.yul\":11240:11241   */\n      dup1\n        /* \"#utility.yul\":11233:11245   */\n      revert\n        /* \"#utility.yul\":11195:11247   */\n    tag_441:\n        /* \"#utility.yul\":11283:11292   */\n      dup4\n        /* \"#utility.yul\":11270:11293   */\n      calldataload\n        /* \"#utility.yul\":11316:11334   */\n      0xffffffffffffffff\n        /* \"#utility.yul\":11308:11314   */\n      dup2\n        /* \"#utility.yul\":11305:11335   */\n      gt\n        /* \"#utility.yul\":11302:11352   */\n      iszero\n      tag_442\n      jumpi\n        /* \"#utility.yul\":11348:11349   */\n      0x00\n        /* \"#utility.yul\":11345:11346   */\n      dup1\n        /* \"#utility.yul\":11338:11350   */\n      revert\n        /* \"#utility.yul\":11302:11352   */\n    tag_442:\n        /* \"#utility.yul\":11371:11421   */\n      tag_443\n        /* \"#utility.yul\":11413:11420   */\n      dup7\n        /* \"#utility.yul\":11404:11410   */\n      dup3\n        /* \"#utility.yul\":11393:11402   */\n      dup8\n        /* \"#utility.yul\":11389:11411   */\n      add\n        /* \"#utility.yul\":11371:11421   */\n      tag_363\n      jump\t// in\n    tag_443:\n        /* \"#utility.yul\":11361:11421   */\n      swap4\n      pop\n      pop\n        /* \"#utility.yul\":11440:11478   */\n      tag_444\n        /* \"#utility.yul\":11474:11476   */\n      0x20\n        /* \"#utility.yul\":11463:11472   */\n      dup6\n        /* \"#utility.yul\":11459:11477   */\n      add\n        /* \"#utility.yul\":11440:11478   */\n      tag_360\n      jump\t// in\n    tag_444:\n        /* \"#utility.yul\":11430:11478   */\n      swap2\n      pop\n        /* \"#utility.yul\":11497:11535   */\n      tag_445\n        /* \"#utility.yul\":11531:11533   */\n      0x40\n        /* \"#utility.yul\":11520:11529   */\n      dup6\n        /* \"#utility.yul\":11516:11534   */\n      add\n        /* \"#utility.yul\":11497:11535   */\n      tag_360\n      jump\t// in\n    tag_445:\n        /* \"#utility.yul\":11487:11535   */\n      swap1\n      pop\n        /* \"#utility.yul\":11071:11541   */\n      swap3\n      pop\n      swap3\n      pop\n      swap3\n      jump\t// out\n        /* \"#utility.yul\":11546:12010   */\n    tag_90:\n        /* \"#utility.yul\":11633:11639   */\n      0x00\n        /* \"#utility.yul\":11641:11647   */\n      dup1\n        /* \"#utility.yul\":11649:11655   */\n      0x00\n        /* \"#utility.yul\":11702:11704   */\n      0x60\n        /* \"#utility.yul\":11690:11699   */\n      dup5\n        /* \"#utility.yul\":11681:11688   */\n      dup7\n        /* \"#utility.yul\":11677:11700   */\n      sub\n        /* \"#utility.yul\":11673:11705   */\n      slt\n        /* \"#utility.yul\":11670:11722   */\n      iszero\n      tag_447\n      jumpi\n        /* \"#utility.yul\":11718:11719   */\n      0x00\n        /* \"#utility.yul\":11715:11716   */\n      dup1\n        /* \"#utility.yul\":11708:11720   */\n      revert\n        /* \"#utility.yul\":11670:11722   */\n    tag_447:\n        /* \"#utility.yul\":11741:11770   */\n      tag_448\n        /* \"#utility.yul\":11760:11769   */\n      dup5\n        /* \"#utility.yul\":11741:11770   */\n      tag_360\n      jump\t// in\n    tag_448:\n        /* \"#utility.yul\":11731:11770   */\n      swap3\n      pop\n        /* \"#utility.yul\":11821:11823   */\n      0x20\n        /* \"#utility.yul\":11810:11819   */\n      dup5\n        /* \"#utility.yul\":11806:11824   */\n      add\n        /* \"#utility.yul\":11793:11825   */\n      calldataload\n        /* \"#utility.yul\":11848:11866   */\n      0xffffffffffffffff\n        /* \"#utility.yul\":11840:11846   */\n      dup2\n        /* \"#utility.yul\":11837:11867   */\n      gt\n        /* \"#utility.yul\":11834:11884   */\n      iszero\n      tag_449\n      jumpi\n        /* \"#utility.yul\":11880:11881   */\n      0x00\n        /* \"#utility.yul\":11877:11878   */\n      dup1\n        /* \"#utility.yul\":11870:11882   */\n      revert\n        /* \"#utility.yul\":11834:11884   */\n    tag_449:\n        /* \"#utility.yul\":11903:11953   */\n      tag_450\n        /* \"#utility.yul\":11945:11952   */\n      dup7\n        /* \"#utility.yul\":11936:11942   */\n      dup3\n        /* \"#utility.yul\":11925:11934   */\n      dup8\n        /* \"#utility.yul\":11921:11943   */\n      add\n        /* \"#utility.yul\":11903:11953   */\n      tag_363\n      jump\t// in\n    tag_450:\n        /* \"#utility.yul\":11893:11953   */\n      swap3\n      pop\n      pop\n        /* \"#utility.yul\":12000:12002   */\n      0x40\n        /* \"#utility.yul\":11989:11998   */\n      dup5\n        /* \"#utility.yul\":11985:12003   */\n      add\n        /* \"#utility.yul\":11972:12004   */\n      calldataload\n        /* \"#utility.yul\":11962:12004   */\n      swap1\n      pop\n        /* \"#utility.yul\":11546:12010   */\n      swap3\n      pop\n      swap3\n      pop\n      swap3\n      jump\t// out\n        /* \"#utility.yul\":12015:12485   */\n    tag_94:\n        /* \"#utility.yul\":12102:12108   */\n      0x00\n        /* \"#utility.yul\":12110:12116   */\n      dup1\n        /* \"#utility.yul\":12118:12124   */\n      0x00\n        /* \"#utility.yul\":12171:12173   */\n      0x60\n        /* \"#utility.yul\":12159:12168   */\n      dup5\n        /* \"#utility.yul\":12150:12157   */\n      dup7\n        /* \"#utility.yul\":12146:12169   */\n      sub\n        /* \"#utility.yul\":12142:12174   */\n      slt\n        /* \"#utility.yul\":12139:12191   */\n      iszero\n      tag_452\n      jumpi\n        /* \"#utility.yul\":12187:12188   */\n      0x00\n        /* \"#utility.yul\":12184:12185   */\n      dup1\n        /* \"#utility.yul\":12177:12189   */\n      revert\n        /* \"#utility.yul\":12139:12191   */\n    tag_452:\n        /* \"#utility.yul\":12210:12239   */\n      tag_453\n        /* \"#utility.yul\":12229:12238   */\n      dup5\n        /* \"#utility.yul\":12210:12239   */\n      tag_360\n      jump\t// in\n    tag_453:\n        /* \"#utility.yul\":12200:12239   */\n      swap3\n      pop\n        /* \"#utility.yul\":12290:12292   */\n      0x20\n        /* \"#utility.yul\":12279:12288   */\n      dup5\n        /* \"#utility.yul\":12275:12293   */\n      add\n        /* \"#utility.yul\":12262:12294   */\n      calldataload\n        /* \"#utility.yul\":12317:12335   */\n      0xffffffffffffffff\n        /* \"#utility.yul\":12309:12315   */\n      dup2\n        /* \"#utility.yul\":12306:12336   */\n      gt\n        /* \"#utility.yul\":12303:12353   */\n      iszero\n      tag_454\n      jumpi\n        /* \"#utility.yul\":12349:12350   */\n      0x00\n        /* \"#utility.yul\":12346:12347   */\n      dup1\n        /* \"#utility.yul\":12339:12351   */\n      revert\n        /* \"#utility.yul\":12303:12353   */\n    tag_454:\n        /* \"#utility.yul\":12372:12422   */\n      tag_455\n        /* \"#utility.yul\":12414:12421   */\n      dup7\n        /* \"#utility.yul\":12405:12411   */\n      dup3\n        /* \"#utility.yul\":12394:12403   */\n      dup8\n        /* \"#utility.yul\":12390:12412   */\n      add\n        /* \"#utility.yul\":12372:12422   */\n      tag_363\n      jump\t// in\n    tag_455:\n        /* \"#utility.yul\":12362:12422   */\n      swap3\n      pop\n      pop\n        /* \"#utility.yul\":12441:12479   */\n      tag_445\n        /* \"#utility.yul\":12475:12477   */\n      0x40\n        /* \"#utility.yul\":12464:12473   */\n      dup6\n        /* \"#utility.yul\":12460:12478   */\n      add\n        /* \"#utility.yul\":12441:12479   */\n      tag_360\n      jump\t// in\n        /* \"#utility.yul\":12721:13043   */\n    tag_110:\n        /* \"#utility.yul\":12790:12796   */\n      0x00\n        /* \"#utility.yul\":12843:12845   */\n      0x20\n        /* \"#utility.yul\":12831:12840   */\n      dup3\n        /* \"#utility.yul\":12822:12829   */\n      dup5\n        /* \"#utility.yul\":12818:12841   */\n      sub\n        /* \"#utility.yul\":12814:12846   */\n      slt\n        /* \"#utility.yul\":12811:12863   */\n      iszero\n      tag_459\n      jumpi\n        /* \"#utility.yul\":12859:12860   */\n      0x00\n        /* \"#utility.yul\":12856:12857   */\n      dup1\n        /* \"#utility.yul\":12849:12861   */\n      revert\n        /* \"#utility.yul\":12811:12863   */\n    tag_459:\n        /* \"#utility.yul\":12899:12908   */\n      dup2\n        /* \"#utility.yul\":12886:12909   */\n      calldataload\n        /* \"#utility.yul\":12932:12950   */\n      0xffffffffffffffff\n        /* \"#utility.yul\":12924:12930   */\n      dup2\n        /* \"#utility.yul\":12921:12951   */\n      gt\n        /* \"#utility.yul\":12918:12968   */\n      iszero\n      tag_460\n      jumpi\n        /* \"#utility.yul\":12964:12965   */\n      0x00\n        /* \"#utility.yul\":12961:12962   */\n      dup1\n        /* \"#utility.yul\":12954:12966   */\n      revert\n        /* \"#utility.yul\":12918:12968   */\n    tag_460:\n        /* \"#utility.yul\":12987:13037   */\n      tag_461\n        /* \"#utility.yul\":13029:13036   */\n      dup5\n        /* \"#utility.yul\":13020:13026   */\n      dup3\n        /* \"#utility.yul\":13009:13018   */\n      dup6\n        /* \"#utility.yul\":13005:13027   */\n      add\n        /* \"#utility.yul\":12987:13037   */\n      tag_363\n      jump\t// in\n    tag_461:\n        /* \"#utility.yul\":12977:13037   */\n      swap5\n        /* \"#utility.yul\":12721:13043   */\n      swap4\n      pop\n      pop\n      pop\n      pop\n      jump\t// out\n        /* \"#utility.yul\":13048:13887   */\n    tag_124:\n        /* \"#utility.yul\":13236:13240   */\n      0x00\n        /* \"#utility.yul\":13265:13267   */\n      0x20\n        /* \"#utility.yul\":13305:13307   */\n      dup1\n        /* \"#utility.yul\":13294:13303   */\n      dup4\n        /* \"#utility.yul\":13290:13308   */\n      add\n        /* \"#utility.yul\":13335:13337   */\n      dup2\n        /* \"#utility.yul\":13324:13333   */\n      dup5\n        /* \"#utility.yul\":13317:13338   */\n      mstore\n        /* \"#utility.yul\":13358:13364   */\n      dup1\n        /* \"#utility.yul\":13393:13399   */\n      dup6\n        /* \"#utility.yul\":13387:13400   */\n      mload\n        /* \"#utility.yul\":13424:13430   */\n      dup1\n        /* \"#utility.yul\":13416:13422   */\n      dup4\n        /* \"#utility.yul\":13409:13431   */\n      mstore\n        /* \"#utility.yul\":13462:13464   */\n      0x40\n        /* \"#utility.yul\":13451:13460   */\n      dup7\n        /* \"#utility.yul\":13447:13465   */\n      add\n        /* \"#utility.yul\":13440:13465   */\n      swap2\n      pop\n        /* \"#utility.yul\":13524:13526   */\n      0x40\n        /* \"#utility.yul\":13514:13520   */\n      dup2\n        /* \"#utility.yul\":13511:13512   */\n      0x05\n        /* \"#utility.yul\":13507:13521   */\n      shl\n        /* \"#utility.yul\":13496:13505   */\n      dup8\n        /* \"#utility.yul\":13492:13522   */\n      add\n        /* \"#utility.yul\":13488:13527   */\n      add\n        /* \"#utility.yul\":13474:13527   */\n      swap3\n      pop\n        /* \"#utility.yul\":13562:13564   */\n      dup4\n        /* \"#utility.yul\":13554:13560   */\n      dup8\n        /* \"#utility.yul\":13550:13565   */\n      add\n        /* \"#utility.yul\":13583:13584   */\n      0x00\n        /* \"#utility.yul\":13593:13858   */\n    tag_463:\n        /* \"#utility.yul\":13607:13613   */\n      dup3\n        /* \"#utility.yul\":13604:13605   */\n      dup2\n        /* \"#utility.yul\":13601:13614   */\n      lt\n        /* \"#utility.yul\":13593:13858   */\n      iszero\n      tag_416\n      jumpi\n        /* \"#utility.yul\":13700:13702   */\n      0x3f\n        /* \"#utility.yul\":13696:13703   */\n      not\n        /* \"#utility.yul\":13684:13693   */\n      dup9\n        /* \"#utility.yul\":13676:13682   */\n      dup7\n        /* \"#utility.yul\":13672:13694   */\n      sub\n        /* \"#utility.yul\":13668:13704   */\n      add\n        /* \"#utility.yul\":13663:13666   */\n      dup5\n        /* \"#utility.yul\":13656:13705   */\n      mstore\n        /* \"#utility.yul\":13728:13778   */\n      tag_466\n        /* \"#utility.yul\":13771:13777   */\n      dup6\n        /* \"#utility.yul\":13762:13768   */\n      dup4\n        /* \"#utility.yul\":13756:13769   */\n      mload\n        /* \"#utility.yul\":13728:13778   */\n      tag_361\n      jump\t// in\n    tag_466:\n        /* \"#utility.yul\":13718:13778   */\n      swap5\n      pop\n        /* \"#utility.yul\":13836:13848   */\n      swap3\n      dup6\n      add\n      swap3\n        /* \"#utility.yul\":13801:13816   */\n      swap1\n      dup6\n      add\n      swap1\n        /* \"#utility.yul\":13629:13630   */\n      0x01\n        /* \"#utility.yul\":13622:13631   */\n      add\n        /* \"#utility.yul\":13593:13858   */\n      jump(tag_463)\n        /* \"#utility.yul\":13892:14254   */\n    tag_141:\n        /* \"#utility.yul\":14097:14103   */\n      dup4\n        /* \"#utility.yul\":14086:14095   */\n      dup2\n        /* \"#utility.yul\":14079:14104   */\n      mstore\n        /* \"#utility.yul\":14140:14142   */\n      0x60\n        /* \"#utility.yul\":14135:14137   */\n      0x20\n        /* \"#utility.yul\":14124:14133   */\n      dup3\n        /* \"#utility.yul\":14120:14138   */\n      add\n        /* \"#utility.yul\":14113:14143   */\n      mstore\n        /* \"#utility.yul\":14060:14064   */\n      0x00\n        /* \"#utility.yul\":14160:14205   */\n      tag_468\n        /* \"#utility.yul\":14201:14203   */\n      0x60\n        /* \"#utility.yul\":14190:14199   */\n      dup4\n        /* \"#utility.yul\":14186:14204   */\n      add\n        /* \"#utility.yul\":14178:14184   */\n      dup6\n        /* \"#utility.yul\":14160:14205   */\n      tag_359\n      jump\t// in\n    tag_468:\n        /* \"#utility.yul\":14152:14205   */\n      swap1\n      pop\n        /* \"#utility.yul\":14241:14247   */\n      dup3\n        /* \"#utility.yul\":14236:14238   */\n      0x40\n        /* \"#utility.yul\":14225:14234   */\n      dup4\n        /* \"#utility.yul\":14221:14239   */\n      add\n        /* \"#utility.yul\":14214:14248   */\n      mstore\n        /* \"#utility.yul\":13892:14254   */\n      swap5\n      swap4\n      pop\n      pop\n      pop\n      pop\n      jump\t// out\n        /* \"#utility.yul\":14259:14479   */\n    tag_145:\n        /* \"#utility.yul\":14408:14410   */\n      0x20\n        /* \"#utility.yul\":14397:14406   */\n      dup2\n        /* \"#utility.yul\":14390:14411   */\n      mstore\n        /* \"#utility.yul\":14371:14375   */\n      0x00\n        /* \"#utility.yul\":14428:14473   */\n      tag_400\n        /* \"#utility.yul\":14469:14471   */\n      0x20\n        /* \"#utility.yul\":14458:14467   */\n      dup4\n        /* \"#utility.yul\":14454:14472   */\n      add\n        /* \"#utility.yul\":14446:14452   */\n      dup5\n        /* \"#utility.yul\":14428:14473   */\n      tag_359\n      jump\t// in\n        /* \"#utility.yul\":14484:14864   */\n    tag_151:\n        /* \"#utility.yul\":14563:14564   */\n      0x01\n        /* \"#utility.yul\":14559:14571   */\n      dup2\n      dup2\n      shr\n      swap1\n        /* \"#utility.yul\":14606:14618   */\n      dup3\n      and\n      dup1\n        /* \"#utility.yul\":14627:14688   */\n      tag_472\n      jumpi\n        /* \"#utility.yul\":14681:14685   */\n      0x7f\n        /* \"#utility.yul\":14673:14679   */\n      dup3\n        /* \"#utility.yul\":14669:14686   */\n      and\n        /* \"#utility.yul\":14659:14686   */\n      swap2\n      pop\n        /* \"#utility.yul\":14627:14688   */\n    tag_472:\n        /* \"#utility.yul\":14734:14736   */\n      0x20\n        /* \"#utility.yul\":14726:14732   */\n      dup3\n        /* \"#utility.yul\":14723:14737   */\n      lt\n        /* \"#utility.yul\":14703:14721   */\n      dup2\n        /* \"#utility.yul\":14700:14738   */\n      sub\n        /* \"#utility.yul\":14697:14858   */\n      tag_473\n      jumpi\n        /* \"#utility.yul\":14780:14790   */\n      0x4e487b71\n        /* \"#utility.yul\":14775:14778   */\n      0xe0\n        /* \"#utility.yul\":14771:14791   */\n      shl\n        /* \"#utility.yul\":14768:14769   */\n      0x00\n        /* \"#utility.yul\":14761:14792   */\n      mstore\n        /* \"#utility.yul\":14815:14819   */\n      0x22\n        /* \"#utility.yul\":14812:14813   */\n      0x04\n        /* \"#utility.yul\":14805:14820   */\n      mstore\n        /* \"#utility.yul\":14843:14847   */\n      0x24\n        /* \"#utility.yul\":14840:14841   */\n      0x00\n        /* \"#utility.yul\":14833:14848   */\n      revert\n        /* \"#utility.yul\":14697:14858   */\n    tag_473:\n      pop\n        /* \"#utility.yul\":14484:14864   */\n      swap2\n      swap1\n      pop\n      jump\t// out\n        /* \"#utility.yul\":14995:15540   */\n    tag_365:\n        /* \"#utility.yul\":15097:15099   */\n      0x1f\n        /* \"#utility.yul\":15092:15095   */\n      dup3\n        /* \"#utility.yul\":15089:15100   */\n      gt\n        /* \"#utility.yul\":15086:15534   */\n      iszero\n      tag_476\n      jumpi\n        /* \"#utility.yul\":15133:15134   */\n      0x00\n        /* \"#utility.yul\":15158:15163   */\n      dup2\n        /* \"#utility.yul\":15154:15156   */\n      dup2\n        /* \"#utility.yul\":15147:15164   */\n      mstore\n        /* \"#utility.yul\":15203:15207   */\n      0x20\n        /* \"#utility.yul\":15199:15201   */\n      dup2\n        /* \"#utility.yul\":15189:15208   */\n      keccak256\n        /* \"#utility.yul\":15273:15275   */\n      0x1f\n        /* \"#utility.yul\":15261:15271   */\n      dup6\n        /* \"#utility.yul\":15257:15276   */\n      add\n        /* \"#utility.yul\":15254:15255   */\n      0x05\n        /* \"#utility.yul\":15250:15277   */\n      shr\n        /* \"#utility.yul\":15244:15248   */\n      dup2\n        /* \"#utility.yul\":15240:15278   */\n      add\n        /* \"#utility.yul\":15309:15313   */\n      0x20\n        /* \"#utility.yul\":15297:15307   */\n      dup7\n        /* \"#utility.yul\":15294:15314   */\n      lt\n        /* \"#utility.yul\":15291:15338   */\n      iszero\n      tag_477\n      jumpi\n      pop\n        /* \"#utility.yul\":15332:15336   */\n      dup1\n        /* \"#utility.yul\":15291:15338   */\n    tag_477:\n        /* \"#utility.yul\":15387:15389   */\n      0x1f\n        /* \"#utility.yul\":15382:15385   */\n      dup6\n        /* \"#utility.yul\":15378:15390   */\n      add\n        /* \"#utility.yul\":15375:15376   */\n      0x05\n        /* \"#utility.yul\":15371:15391   */\n      shr\n        /* \"#utility.yul\":15365:15369   */\n      dup3\n        /* \"#utility.yul\":15361:15392   */\n      add\n        /* \"#utility.yul\":15351:15392   */\n      swap2\n      pop\n        /* \"#utility.yul\":15442:15524   */\n    tag_478:\n        /* \"#utility.yul\":15460:15462   */\n      dup2\n        /* \"#utility.yul\":15453:15458   */\n      dup2\n        /* \"#utility.yul\":15450:15463   */\n      lt\n        /* \"#utility.yul\":15442:15524   */\n      iszero\n      tag_480\n      jumpi\n        /* \"#utility.yul\":15505:15522   */\n      dup3\n      dup2\n      sstore\n        /* \"#utility.yul\":15486:15487   */\n      0x01\n        /* \"#utility.yul\":15475:15488   */\n      add\n        /* \"#utility.yul\":15442:15524   */\n      jump(tag_478)\n    tag_480:\n        /* \"#utility.yul\":15446:15449   */\n      pop\n      pop\n      pop\n        /* \"#utility.yul\":15086:15534   */\n    tag_476:\n        /* \"#utility.yul\":14995:15540   */\n      pop\n      pop\n      pop\n      jump\t// out\n        /* \"#utility.yul\":15716:17068   */\n    tag_228:\n        /* \"#utility.yul\":15842:15845   */\n      dup2\n        /* \"#utility.yul\":15836:15846   */\n      mload\n        /* \"#utility.yul\":15869:15887   */\n      0xffffffffffffffff\n        /* \"#utility.yul\":15861:15867   */\n      dup2\n        /* \"#utility.yul\":15858:15888   */\n      gt\n        /* \"#utility.yul\":15855:15911   */\n      iszero\n      tag_484\n      jumpi\n        /* \"#utility.yul\":15891:15909   */\n      tag_484\n      tag_362\n      jump\t// in\n    tag_484:\n        /* \"#utility.yul\":15920:16017   */\n      tag_485\n        /* \"#utility.yul\":16010:16016   */\n      dup2\n        /* \"#utility.yul\":15970:16008   */\n      tag_486\n        /* \"#utility.yul\":16002:16006   */\n      dup5\n        /* \"#utility.yul\":15996:16007   */\n      sload\n        /* \"#utility.yul\":15970:16008   */\n      tag_151\n      jump\t// in\n    tag_486:\n        /* \"#utility.yul\":15964:15968   */\n      dup5\n        /* \"#utility.yul\":15920:16017   */\n      tag_365\n      jump\t// in\n    tag_485:\n        /* \"#utility.yul\":16072:16076   */\n      0x20\n      dup1\n        /* \"#utility.yul\":16136:16138   */\n      0x1f\n        /* \"#utility.yul\":16125:16139   */\n      dup4\n      gt\n        /* \"#utility.yul\":16153:16154   */\n      0x01\n        /* \"#utility.yul\":16148:16811   */\n      dup2\n      eq\n      tag_488\n      jumpi\n        /* \"#utility.yul\":16855:16856   */\n      0x00\n        /* \"#utility.yul\":16872:16878   */\n      dup5\n        /* \"#utility.yul\":16869:16958   */\n      iszero\n      tag_489\n      jumpi\n      pop\n        /* \"#utility.yul\":16924:16943   */\n      dup6\n      dup4\n      add\n        /* \"#utility.yul\":16918:16944   */\n      mload\n        /* \"#utility.yul\":16869:16958   */\n    tag_489:\n      not(0x00)\n        /* \"#utility.yul\":15673:15674   */\n      0x03\n        /* \"#utility.yul\":15669:15680   */\n      dup7\n      swap1\n      shl\n        /* \"#utility.yul\":15665:15689   */\n      shr\n        /* \"#utility.yul\":15661:15690   */\n      not\n        /* \"#utility.yul\":15651:15691   */\n      and\n        /* \"#utility.yul\":15697:15698   */\n      0x01\n        /* \"#utility.yul\":15693:15704   */\n      dup6\n      swap1\n      shl\n        /* \"#utility.yul\":15648:15705   */\n      or\n        /* \"#utility.yul\":16971:17052   */\n      dup6\n      sstore\n        /* \"#utility.yul\":16118:17062   */\n      jump(tag_480)\n        /* \"#utility.yul\":16148:16811   */\n    tag_488:\n        /* \"#utility.yul\":14942:14943   */\n      0x00\n        /* \"#utility.yul\":14935:14949   */\n      dup6\n      dup2\n      mstore\n        /* \"#utility.yul\":14979:14983   */\n      0x20\n        /* \"#utility.yul\":14966:14984   */\n      dup2\n      keccak256\n      not(0x1f)\n        /* \"#utility.yul\":16184:16204   */\n      dup7\n      and\n      swap2\n        /* \"#utility.yul\":16302:16538   */\n    tag_492:\n        /* \"#utility.yul\":16316:16323   */\n      dup3\n        /* \"#utility.yul\":16313:16314   */\n      dup2\n        /* \"#utility.yul\":16310:16324   */\n      lt\n        /* \"#utility.yul\":16302:16538   */\n      iszero\n      tag_494\n      jumpi\n        /* \"#utility.yul\":16405:16424   */\n      dup9\n      dup7\n      add\n        /* \"#utility.yul\":16399:16425   */\n      mload\n        /* \"#utility.yul\":16384:16426   */\n      dup3\n      sstore\n        /* \"#utility.yul\":16497:16524   */\n      swap5\n      dup5\n      add\n      swap5\n        /* \"#utility.yul\":16465:16466   */\n      0x01\n        /* \"#utility.yul\":16453:16467   */\n      swap1\n      swap2\n      add\n      swap1\n        /* \"#utility.yul\":16332:16351   */\n      dup5\n      add\n        /* \"#utility.yul\":16302:16538   */\n      jump(tag_492)\n    tag_494:\n        /* \"#utility.yul\":16306:16309   */\n      pop\n        /* \"#utility.yul\":16566:16572   */\n      dup6\n        /* \"#utility.yul\":16557:16564   */\n      dup3\n        /* \"#utility.yul\":16554:16573   */\n      lt\n        /* \"#utility.yul\":16551:16752   */\n      iszero\n      tag_495\n      jumpi\n        /* \"#utility.yul\":16627:16646   */\n      dup8\n      dup6\n      add\n        /* \"#utility.yul\":16621:16647   */\n      mload\n      not(0x00)\n        /* \"#utility.yul\":16710:16711   */\n      0x03\n        /* \"#utility.yul\":16706:16720   */\n      dup9\n      swap1\n      shl\n        /* \"#utility.yul\":16722:16725   */\n      0xf8\n        /* \"#utility.yul\":16702:16726   */\n      and\n        /* \"#utility.yul\":16698:16735   */\n      shr\n        /* \"#utility.yul\":16694:16736   */\n      not\n        /* \"#utility.yul\":16679:16737   */\n      and\n        /* \"#utility.yul\":16664:16738   */\n      dup2\n      sstore\n        /* \"#utility.yul\":16551:16752   */\n    tag_495:\n      pop\n      pop\n      pop\n      pop\n      pop\n        /* \"#utility.yul\":16798:16799   */\n      0x01\n        /* \"#utility.yul\":16782:16796   */\n      swap1\n      dup2\n      shl\n        /* \"#utility.yul\":16778:16800   */\n      add\n        /* \"#utility.yul\":16765:16801   */\n      swap1\n      sstore\n      pop\n        /* \"#utility.yul\":15716:17068   */\n      jump\t// out\n        /* \"#utility.yul\":17073:17200   */\n    tag_367:\n        /* \"#utility.yul\":17134:17144   */\n      0x4e487b71\n        /* \"#utility.yul\":17129:17132   */\n      0xe0\n        /* \"#utility.yul\":17125:17145   */\n      shl\n        /* \"#utility.yul\":17122:17123   */\n      0x00\n        /* \"#utility.yul\":17115:17146   */\n      mstore\n        /* \"#utility.yul\":17165:17169   */\n      0x11\n        /* \"#utility.yul\":17162:17163   */\n      0x04\n        /* \"#utility.yul\":17155:17170   */\n      mstore\n        /* \"#utility.yul\":17189:17193   */\n      0x24\n        /* \"#utility.yul\":17186:17187   */\n      0x00\n        /* \"#utility.yul\":17179:17194   */\n      revert\n        /* \"#utility.yul\":17205:17330   */\n    tag_233:\n        /* \"#utility.yul\":17270:17279   */\n      dup1\n      dup3\n      add\n        /* \"#utility.yul\":17291:17301   */\n      dup1\n      dup3\n      gt\n        /* \"#utility.yul\":17288:17324   */\n      iszero\n      tag_499\n      jumpi\n        /* \"#utility.yul\":17304:17322   */\n      tag_499\n      tag_367\n      jump\t// in\n    tag_499:\n        /* \"#utility.yul\":17205:17330   */\n      swap3\n      swap2\n      pop\n      pop\n      jump\t// out\n        /* \"#utility.yul\":17335:17470   */\n    tag_240:\n        /* \"#utility.yul\":17374:17377   */\n      0x00\n        /* \"#utility.yul\":17395:17412   */\n      0x01\n      dup3\n      add\n        /* \"#utility.yul\":17392:17435   */\n      tag_502\n      jumpi\n        /* \"#utility.yul\":17415:17433   */\n      tag_502\n      tag_367\n      jump\t// in\n    tag_502:\n      pop\n        /* \"#utility.yul\":17462:17463   */\n      0x01\n        /* \"#utility.yul\":17451:17464   */\n      add\n      swap1\n        /* \"#utility.yul\":17335:17470   */\n      jump\t// out\n        /* \"#utility.yul\":18518:18645   */\n    tag_268:\n        /* \"#utility.yul\":18579:18589   */\n      0x4e487b71\n        /* \"#utility.yul\":18574:18577   */\n      0xe0\n        /* \"#utility.yul\":18570:18590   */\n      shl\n        /* \"#utility.yul\":18567:18568   */\n      0x00\n        /* \"#utility.yul\":18560:18591   */\n      mstore\n        /* \"#utility.yul\":18610:18614   */\n      0x32\n        /* \"#utility.yul\":18607:18608   */\n      0x04\n        /* \"#utility.yul\":18600:18615   */\n      mstore\n        /* \"#utility.yul\":18634:18638   */\n      0x24\n        /* \"#utility.yul\":18631:18632   */\n      0x00\n        /* \"#utility.yul\":18624:18639   */\n      revert\n        /* \"#utility.yul\":19322:19705   */\n    tag_358:\n        /* \"#utility.yul\":19519:19521   */\n      0x40\n        /* \"#utility.yul\":19508:19517   */\n      dup2\n        /* \"#utility.yul\":19501:19522   */\n      mstore\n        /* \"#utility.yul\":19482:19486   */\n      0x00\n        /* \"#utility.yul\":19545:19590   */\n      tag_510\n        /* \"#utility.yul\":19586:19588   */\n      0x40\n        /* \"#utility.yul\":19575:19584   */\n      dup4\n        /* \"#utility.yul\":19571:19589   */\n      add\n        /* \"#utility.yul\":19563:19569   */\n      dup6\n        /* \"#utility.yul\":19545:19590   */\n      tag_359\n      jump\t// in\n    tag_510:\n        /* \"#utility.yul\":19638:19647   */\n      dup3\n        /* \"#utility.yul\":19630:19636   */\n      dup2\n        /* \"#utility.yul\":19626:19648   */\n      sub\n        /* \"#utility.yul\":19621:19623   */\n      0x20\n        /* \"#utility.yul\":19610:19619   */\n      dup5\n        /* \"#utility.yul\":19606:19624   */\n      add\n        /* \"#utility.yul\":19599:19649   */\n      mstore\n        /* \"#utility.yul\":19666:19699   */\n      tag_511\n        /* \"#utility.yul\":19692:19698   */\n      dup2\n        /* \"#utility.yul\":19684:19690   */\n      dup6\n        /* \"#utility.yul\":19666:19699   */\n      tag_359\n      jump\t// in\n    tag_511:\n        /* \"#utility.yul\":19658:19699   */\n      swap6\n        /* \"#utility.yul\":19322:19705   */\n      swap5\n      pop\n      pop\n      pop\n      pop\n      pop\n      jump\t// out\n\n    auxdata: 0xa2646970667358221220d6d335dfd2ffe67191d83a4f38447786e7c5c9929ec12480025e61333847697364736f6c63430008110033\n}\n",
    "bytecode": {
      "linkReferences": {},
      "object": "608060405234801561001057600080fd5b50600180546001600160a01b031916331790556000600255612339806100376000396000f3fe608060405234801561001057600080fd5b50600436106101a35760003560e01c8063862ac083116100ee578063a59ec47011610097578063c022eb2811610071578063c022eb28146103ba578063cca5822f146103cd578063dde9c196146103e0578063e8a3d4851461040257600080fd5b8063a59ec47014610374578063ac3aeac914610387578063ae422599146103a757600080fd5b80638da5cb5b116100c85780638da5cb5b14610323578063938e3d7b1461034e5780639acc36b51461036157600080fd5b8063862ac083146102ea57806389ca5b68146102fd5780638b207dd81461031057600080fd5b80635083f4b311610150578063583716ae1161012a578063583716ae146102b157806362f080b0146102c4578063727f682b146102d757600080fd5b80635083f4b314610267578063538875e11461027c57806357e899e31461029c57600080fd5b8063149d7e7f11610181578063149d7e7f1461020a5780632af673a31461022d5780632b7832b31461025057600080fd5b806302ee3a52146101a85780630e4e60d7146101c65780630ea69718146101ea575b600080fd5b6101b0610417565b6040516101bd91906119dc565b60405180910390f35b6101d96101d4366004611a5d565b61051c565b6040516101bd959493929190611a7f565b6101fd6101f8366004611acc565b610686565b6040516101bd9190611ae5565b61021d610218366004611ba3565b610846565b6040516101bd9493929190611bcd565b61024061023b366004611c0a565b61092b565b6040516101bd9493929190611c2c565b61025960025481565b6040519081526020016101bd565b61026f610a6e565b6040516101bd9190611c71565b61028f61028a366004611c0a565b610c08565b6040516101bd9190611d55565b6102af6102aa366004611e5a565b610d3a565b005b6102af6102bf366004611ee2565b610e0a565b6102af6102d2366004611f56565b611004565b6102af6102e5366004611fb4565b61111b565b6102af6102f836600461200b565b6111ce565b61025961030b366004611c0a565b6113bb565b61024061031e366004611acc565b61144e565b600154610336906001600160a01b031681565b6040516001600160a01b0390911681526020016101bd565b6102af61035c366004612060565b611494565b61021d61036f366004611acc565b6114fa565b61021d610382366004611ba3565b611540565b61039a610395366004611c0a565b61155c565b6040516101bd919061209d565b61021d6103b5366004611acc565b61168e565b6102596103c8366004611c0a565b61169e565b6102596103db366004611c0a565b6116ea565b6103f36103ee366004611acc565b61176f565b6040516101bd939291906120f2565b61040a61182d565b6040516101bd919061211b565b6060600a805480602002602001604051908101604052809291908181526020016000905b828210156105135783829060005260206000209060030201604051806060016040529081600082015481526020016001820180546104789061212e565b80601f01602080910402602001604051908101604052809291908181526020018280546104a49061212e565b80156104f15780601f106104c6576101008083540402835291602001916104f1565b820191906000526020600020905b8154815290600101906020018083116104d457829003601f168201915b505050505081526020016002820154815250508152602001906001019061043b565b50505050905090565b6006602052816000526040600020818154811061053857600080fd5b60009182526020909120600590910201805460018201546002830180549295506001600160a01b0390911693509061056f9061212e565b80601f016020809104026020016040519081016040528092919081815260200182805461059b9061212e565b80156105e85780601f106105bd576101008083540402835291602001916105e8565b820191906000526020600020905b8154815290600101906020018083116105cb57829003601f168201915b5050505050908060030180546105fd9061212e565b80601f01602080910402602001604051908101604052809291908181526020018280546106299061212e565b80156106765780601f1061064b57610100808354040283529160200191610676565b820191906000526020600020905b81548152906001019060200180831161065957829003601f168201915b5050505050908060040154905085565b606060066000838152602001908152602001600020805480602002602001604051908101604052809291908181526020016000905b8282101561083b5760008481526020908190206040805160a081018252600586029092018054835260018101546001600160a01b0316938301939093526002830180549293929184019161070e9061212e565b80601f016020809104026020016040519081016040528092919081815260200182805461073a9061212e565b80156107875780601f1061075c57610100808354040283529160200191610787565b820191906000526020600020905b81548152906001019060200180831161076a57829003601f168201915b505050505081526020016003820180546107a09061212e565b80601f01602080910402602001604051908101604052809291908181526020018280546107cc9061212e565b80156108195780601f106107ee57610100808354040283529160200191610819565b820191906000526020600020905b8154815290600101906020018083116107fc57829003601f168201915b50505050508152602001600482015481525050815260200190600101906106bb565b505050509050919050565b6004602052816000526040600020818154811061086257600080fd5b60009182526020909120600490910201805460018201546002830180549295506001600160a01b039091169350906108999061212e565b80601f01602080910402602001604051908101604052809291908181526020018280546108c59061212e565b80156109125780601f106108e757610100808354040283529160200191610912565b820191906000526020600020905b8154815290600101906020018083116108f557829003601f168201915b505050600390930154919250506001600160a01b031684565b60036020526000908152604090208054600182015460028301805492936001600160a01b039092169261095d9061212e565b80601f01602080910402602001604051908101604052809291908181526020018280546109899061212e565b80156109d65780601f106109ab576101008083540402835291602001916109d6565b820191906000526020600020905b8154815290600101906020018083116109b957829003601f168201915b5050505050908060030180546109eb9061212e565b80601f0160208091040260200160405190810160405280929190818152602001828054610a179061212e565b8015610a645780601f10610a3957610100808354040283529160200191610a64565b820191906000526020600020905b815481529060010190602001808311610a4757829003601f168201915b5050505050905084565b60606007805480602002602001604051908101604052809291908181526020016000905b8282101561051357600084815260209081902060408051608081018252600486029092018054835260018101546001600160a01b03169383019390935260028301805492939291840191610ae59061212e565b80601f0160208091040260200160405190810160405280929190818152602001828054610b119061212e565b8015610b5e5780601f10610b3357610100808354040283529160200191610b5e565b820191906000526020600020905b815481529060010190602001808311610b4157829003601f168201915b50505050508152602001600382018054610b779061212e565b80601f0160208091040260200160405190810160405280929190818152602001828054610ba39061212e565b8015610bf05780601f10610bc557610100808354040283529160200191610bf0565b820191906000526020600020905b815481529060010190602001808311610bd357829003601f168201915b50505050508152505081526020019060010190610a92565b6001600160a01b0381166000908152600460209081526040808320805482518185028101850190935280835260609492939192909184015b8282101561083b57600084815260209081902060408051608081018252600486029092018054835260018101546001600160a01b03169383019390935260028301805492939291840191610c939061212e565b80601f0160208091040260200160405190810160405280929190818152602001828054610cbf9061212e565b8015610d0c5780601f10610ce157610100808354040283529160200191610d0c565b820191906000526020600020905b815481529060010190602001808311610cef57829003601f168201915b5050509183525050600391909101546001600160a01b03166020918201529082526001929092019101610c40565b610d438161169e565b50610d4d816116ea565b50610d57816113bb565b506040805160a0810182528681523360208083019182528284018881526060840188905260808401879052600087815260068352948520805460018082018355918752929095208451600590930201918255915193810180546001600160a01b0319166001600160a01b039095169490941790935551909182916002820190610de090826121b7565b5060608201516003820190610df590826121b7565b50608082015181600401555050505050505050565b610e138361169e565b50600060405180608001604052806002546001610e30919061228d565b8152336020808301829052604080840188905260609093018690526000918252600381529082902083518155908301516001820180546001600160a01b0319166001600160a01b039092169190911790559082015191925082916002820190610e9990826121b7565b5060608201516003820190610eae90826121b7565b50506007805460018101825560009190915282517fa66cc928b5edb82af9bd49922954155ab7b0942694bea4ce44661d9a8736c688600490920291820190815560208401517fa66cc928b5edb82af9bd49922954155ab7b0942694bea4ce44661d9a8736c689830180546001600160a01b0319166001600160a01b03909216919091179055604084015184935090917fa66cc928b5edb82af9bd49922954155ab7b0942694bea4ce44661d9a8736c68a0190610f6a90826121b7565b5060608201516003820190610f7f90826121b7565b50506002805491506000610f92836122a6565b91905055507f68f068b2f0d02fca99bc8285b62fce8668fe16b7c6a810351ea25bff358c0dd8604051610ff69060208082526012908201527f41646d696e207265676973746572656421210000000000000000000000000000604082015260600190565b60405180910390a150505050565b61100d816113bb565b50604080516080810182526001600160a01b038481166000818152600560208181528683208054808852338389019081529888018c815260608901969096529282526001808401825590845292208551600490920201908155945190850180546001600160a01b03191691909316179091555190918291600282019061109390826121b7565b50606091820151600390910180546001600160a01b0319166001600160a01b039092169190911790556040805160208082526013908201527f576f726b65722072656769737465726564212100000000000000000000000000918101919091527f68f068b2f0d02fca99bc8285b62fce8668fe16b7c6a810351ea25bff358c0dd89101610ff6565b6111248361169e565b5061112e836116ea565b5060408051606081018252600a805480835260208301868152938301859052600181018255600091909152815160039091027fc65a7bb8d6351c1cf70c95a316cc6a92839c986682d98bc35f958f4883f9d2a881019182559251919283927fc65a7bb8d6351c1cf70c95a316cc6a92839c986682d98bc35f958f4883f9d2a9909101906111bb90826121b7565b5060408201518160020155505050505050565b6111d7836116ea565b50604080516080810182526001600160a01b038381166000818152600460208181528683208054808852338389019081529888018b815260608901969096528383526001808201835591855291909320865191909202909101908155945190850180546001600160a01b03191691909316179091555190918291600282019061126090826121b7565b5060609190910151600390910180546001600160a01b039283166001600160a01b03199182161790915560088054600181018255600091909152835160049091027ff3f7a9fe364faab93b216da50a3214154f22a0a2b415b23a84c8169e8b636ee3810191825560208501517ff3f7a9fe364faab93b216da50a3214154f22a0a2b415b23a84c8169e8b636ee4820180549190951693169290921790925560408301518392917ff3f7a9fe364faab93b216da50a3214154f22a0a2b415b23a84c8169e8b636ee5019061133390826121b7565b50606091820151600390910180546001600160a01b0319166001600160a01b039092169190911790556040805160208082526013908201527f537570706c792072656769737465726564212100000000000000000000000000918101919091527f68f068b2f0d02fca99bc8285b62fce8668fe16b7c6a810351ea25bff358c0dd89101610ff6565b6000805b60085481101561144557600881815481106113dc576113dc6122bf565b60009182526020909120600160049092020101546001600160a01b038481169116146114335760405162461bcd60e51b81526020600482015260016024820152603760f91b60448201526064015b60405180910390fd5b8061143d816122a6565b9150506113bf565b50600192915050565b6007818154811061145e57600080fd5b60009182526020909120600490910201805460018201546002830180549294506001600160a01b03909116929161095d9061212e565b6001546001600160a01b031633146114ee5760405162461bcd60e51b815260206004820152600e60248201527f4e6f7420617574686f72697a6564000000000000000000000000000000000000604482015260640161142a565b6114f7816118bb565b50565b6008818154811061150a57600080fd5b60009182526020909120600490910201805460018201546002830180549294506001600160a01b0390911692916108999061212e565b6005602052816000526040600020818154811061086257600080fd5b6001600160a01b0381166000908152600560209081526040808320805482518185028101850190935280835260609492939192909184015b8282101561083b57600084815260209081902060408051608081018252600486029092018054835260018101546001600160a01b031693830193909352600283018054929392918401916115e79061212e565b80601f01602080910402602001604051908101604052809291908181526020018280546116139061212e565b80156116605780601f1061163557610100808354040283529160200191611660565b820191906000526020600020905b81548152906001019060200180831161164357829003601f168201915b5050509183525050600391909101546001600160a01b03166020918201529082526001929092019101611594565b6009818154811061150a57600080fd5b6001546000906001600160a01b038381169116146116e25760405162461bcd60e51b81526020600482015260016024820152603760f91b604482015260640161142a565b506001919050565b6000805b600754811015611445576007818154811061170b5761170b6122bf565b60009182526020909120600160049092020101546001600160a01b0384811691161461175d5760405162461bcd60e51b81526020600482015260016024820152603760f91b604482015260640161142a565b80611767816122a6565b9150506116ee565b600a818154811061177f57600080fd5b600091825260209091206003909102018054600182018054919350906117a49061212e565b80601f01602080910402602001604051908101604052809291908181526020018280546117d09061212e565b801561181d5780601f106117f25761010080835404028352916020019161181d565b820191906000526020600020905b81548152906001019060200180831161180057829003601f168201915b5050505050908060020154905083565b6000805461183a9061212e565b80601f01602080910402602001604051908101604052809291908181526020018280546118669061212e565b80156118b35780601f10611888576101008083540402835291602001916118b3565b820191906000526020600020905b81548152906001019060200180831161189657829003601f168201915b505050505081565b60008080546118c99061212e565b80601f01602080910402602001604051908101604052809291908181526020018280546118f59061212e565b80156119425780601f1061191757610100808354040283529160200191611942565b820191906000526020600020905b81548152906001019060200180831161192557829003601f168201915b50505050509050816000908161195891906121b7565b507fc9c7c3fe08b88b4df9d4d47ef47d2c43d55c025a0ba88ca442580ed9e7348a16818360405161198a9291906122d5565b60405180910390a15050565b6000815180845260005b818110156119bc576020818501810151868301820152016119a0565b506000602082860101526020601f19601f83011685010191505092915050565b60006020808301818452808551808352604092508286019150828160051b87010184880160005b83811015611a4f57603f19898403018552815160608151855288820151818a870152611a3182870182611996565b92890151958901959095525094870194925090860190600101611a03565b509098975050505050505050565b60008060408385031215611a7057600080fd5b50508035926020909101359150565b8581526001600160a01b038516602082015260a060408201526000611aa760a0830186611996565b8281036060840152611ab98186611996565b9150508260808301529695505050505050565b600060208284031215611ade57600080fd5b5035919050565b60006020808301818452808551808352604092508286019150828160051b87010184880160005b83811015611a4f57603f19898403018552815160a0815185526001600160a01b03898301511689860152878201518189870152611b4b82870182611996565b91505060608083015186830382880152611b658382611996565b6080948501519790940196909652505094870194925090860190600101611b0c565b80356001600160a01b0381168114611b9e57600080fd5b919050565b60008060408385031215611bb657600080fd5b611bbf83611b87565b946020939093013593505050565b84815260006001600160a01b03808616602084015260806040840152611bf66080840186611996565b915080841660608401525095945050505050565b600060208284031215611c1c57600080fd5b611c2582611b87565b9392505050565b8481526001600160a01b0384166020820152608060408201526000611c546080830185611996565b8281036060840152611c668185611996565b979650505050505050565b60006020808301818452808551808352604092508286019150828160051b87010184880160005b83811015611a4f57603f1989840301855281516080815185526001600160a01b03898301511689860152878201518189870152611cd782870182611996565b91505060608083015192508582038187015250611cf48183611996565b968901969450505090860190600101611c98565b80518252600060208201516001600160a01b0380821660208601526040840151915060806040860152611d3e6080860183611996565b606094850151909116949093019390935250919050565b6000602080830181845280855180835260408601915060408160051b870101925083870160005b82811015611daa57603f19888603018452611d98858351611d08565b94509285019290850190600101611d7c565b5092979650505050505050565b634e487b7160e01b600052604160045260246000fd5b600082601f830112611dde57600080fd5b813567ffffffffffffffff80821115611df957611df9611db7565b604051601f8301601f19908116603f01168101908282118183101715611e2157611e21611db7565b81604052838152866020858801011115611e3a57600080fd5b836020870160208301376000602085830101528094505050505092915050565b600080600080600060a08688031215611e7257600080fd5b85359450602086013567ffffffffffffffff80821115611e9157600080fd5b611e9d89838a01611dcd565b95506040880135915080821115611eb357600080fd5b50611ec088828901611dcd565b93505060608601359150611ed660808701611b87565b90509295509295909350565b600080600060608486031215611ef757600080fd5b611f0084611b87565b9250602084013567ffffffffffffffff80821115611f1d57600080fd5b611f2987838801611dcd565b93506040860135915080821115611f3f57600080fd5b50611f4c86828701611dcd565b9150509250925092565b600080600060608486031215611f6b57600080fd5b833567ffffffffffffffff811115611f8257600080fd5b611f8e86828701611dcd565b935050611f9d60208501611b87565b9150611fab60408501611b87565b90509250925092565b600080600060608486031215611fc957600080fd5b611fd284611b87565b9250602084013567ffffffffffffffff811115611fee57600080fd5b611ffa86828701611dcd565b925050604084013590509250925092565b60008060006060848603121561202057600080fd5b61202984611b87565b9250602084013567ffffffffffffffff81111561204557600080fd5b61205186828701611dcd565b925050611fab60408501611b87565b60006020828403121561207257600080fd5b813567ffffffffffffffff81111561208957600080fd5b61209584828501611dcd565b949350505050565b6000602080830181845280855180835260408601915060408160051b870101925083870160005b82811015611daa57603f198886030184526120e0858351611d08565b945092850192908501906001016120c4565b83815260606020820152600061210b6060830185611996565b9050826040830152949350505050565b602081526000611c256020830184611996565b600181811c9082168061214257607f821691505b60208210810361216257634e487b7160e01b600052602260045260246000fd5b50919050565b601f8211156121b257600081815260208120601f850160051c8101602086101561218f5750805b601f850160051c820191505b818110156121ae5782815560010161219b565b5050505b505050565b815167ffffffffffffffff8111156121d1576121d1611db7565b6121e5816121df845461212e565b84612168565b602080601f83116001811461221a57600084156122025750858301515b600019600386901b1c1916600185901b1785556121ae565b600085815260208120601f198616915b828110156122495788860151825594840194600190910190840161222a565b50858210156122675787850151600019600388901b60f8161c191681555b5050505050600190811b01905550565b634e487b7160e01b600052601160045260246000fd5b808201808211156122a0576122a0612277565b92915050565b6000600182016122b8576122b8612277565b5060010190565b634e487b7160e01b600052603260045260246000fd5b6040815260006122e86040830185611996565b82810360208401526122fa8185611996565b9594505050505056fea2646970667358221220d6d335dfd2ffe67191d83a4f38447786e7c5c9929ec12480025e61333847697364736f6c63430008110033",
      "opcodes": "PUSH1 0x80 PUSH1 0x40 MSTORE CALLVALUE DUP1 ISZERO PUSH2 0x10 JUMPI PUSH1 0x0 DUP1 REVERT JUMPDEST POP PUSH1 0x1 DUP1 SLOAD PUSH1 0x1 PUSH1 0x1 PUSH1 0xA0 SHL SUB NOT AND CALLER OR SWAP1 SSTORE PUSH1 0x0 PUSH1 0x2 SSTORE PUSH2 0x2339 DUP1 PUSH2 0x37 PUSH1 0x0 CODECOPY PUSH1 0x0 RETURN INVALID PUSH1 0x80 PUSH1 0x40 MSTORE CALLVALUE DUP1 ISZERO PUSH2 0x10 JUMPI PUSH1 0x0 DUP1 REVERT JUMPDEST POP PUSH1 0x4 CALLDATASIZE LT PUSH2 0x1A3 JUMPI PUSH1 0x0 CALLDATALOAD PUSH1 0xE0 SHR DUP1 PUSH4 0x862AC083 GT PUSH2 0xEE JUMPI DUP1 PUSH4 0xA59EC470 GT PUSH2 0x97 JUMPI DUP1 PUSH4 0xC022EB28 GT PUSH2 0x71 JUMPI DUP1 PUSH4 0xC022EB28 EQ PUSH2 0x3BA JUMPI DUP1 PUSH4 0xCCA5822F EQ PUSH2 0x3CD JUMPI DUP1 PUSH4 0xDDE9C196 EQ PUSH2 0x3E0 JUMPI DUP1 PUSH4 0xE8A3D485 EQ PUSH2 0x402 JUMPI PUSH1 0x0 DUP1 REVERT JUMPDEST DUP1 PUSH4 0xA59EC470 EQ PUSH2 0x374 JUMPI DUP1 PUSH4 0xAC3AEAC9 EQ PUSH2 0x387 JUMPI DUP1 PUSH4 0xAE422599 EQ PUSH2 0x3A7 JUMPI PUSH1 0x0 DUP1 REVERT JUMPDEST DUP1 PUSH4 0x8DA5CB5B GT PUSH2 0xC8 JUMPI DUP1 PUSH4 0x8DA5CB5B EQ PUSH2 0x323 JUMPI DUP1 PUSH4 0x938E3D7B EQ PUSH2 0x34E JUMPI DUP1 PUSH4 0x9ACC36B5 EQ PUSH2 0x361 JUMPI PUSH1 0x0 DUP1 REVERT JUMPDEST DUP1 PUSH4 0x862AC083 EQ PUSH2 0x2EA JUMPI DUP1 PUSH4 0x89CA5B68 EQ PUSH2 0x2FD JUMPI DUP1 PUSH4 0x8B207DD8 EQ PUSH2 0x310 JUMPI PUSH1 0x0 DUP1 REVERT JUMPDEST DUP1 PUSH4 0x5083F4B3 GT PUSH2 0x150 JUMPI DUP1 PUSH4 0x583716AE GT PUSH2 0x12A JUMPI DUP1 PUSH4 0x583716AE EQ PUSH2 0x2B1 JUMPI DUP1 PUSH4 0x62F080B0 EQ PUSH2 0x2C4 JUMPI DUP1 PUSH4 0x727F682B EQ PUSH2 0x2D7 JUMPI PUSH1 0x0 DUP1 REVERT JUMPDEST DUP1 PUSH4 0x5083F4B3 EQ PUSH2 0x267 JUMPI DUP1 PUSH4 0x538875E1 EQ PUSH2 0x27C JUMPI DUP1 PUSH4 0x57E899E3 EQ PUSH2 0x29C JUMPI PUSH1 0x0 DUP1 REVERT JUMPDEST DUP1 PUSH4 0x149D7E7F GT PUSH2 0x181 JUMPI DUP1 PUSH4 0x149D7E7F EQ PUSH2 0x20A JUMPI DUP1 PUSH4 0x2AF673A3 EQ PUSH2 0x22D JUMPI DUP1 PUSH4 0x2B7832B3 EQ PUSH2 0x250 JUMPI PUSH1 0x0 DUP1 REVERT JUMPDEST DUP1 PUSH4 0x2EE3A52 EQ PUSH2 0x1A8 JUMPI DUP1 PUSH4 0xE4E60D7 EQ PUSH2 0x1C6 JUMPI DUP1 PUSH4 0xEA69718 EQ PUSH2 0x1EA JUMPI JUMPDEST PUSH1 0x0 DUP1 REVERT JUMPDEST PUSH2 0x1B0 PUSH2 0x417 JUMP JUMPDEST PUSH1 0x40 MLOAD PUSH2 0x1BD SWAP2 SWAP1 PUSH2 0x19DC JUMP JUMPDEST PUSH1 0x40 MLOAD DUP1 SWAP2 SUB SWAP1 RETURN JUMPDEST PUSH2 0x1D9 PUSH2 0x1D4 CALLDATASIZE PUSH1 0x4 PUSH2 0x1A5D JUMP JUMPDEST PUSH2 0x51C JUMP JUMPDEST PUSH1 0x40 MLOAD PUSH2 0x1BD SWAP6 SWAP5 SWAP4 SWAP3 SWAP2 SWAP1 PUSH2 0x1A7F JUMP JUMPDEST PUSH2 0x1FD PUSH2 0x1F8 CALLDATASIZE PUSH1 0x4 PUSH2 0x1ACC JUMP JUMPDEST PUSH2 0x686 JUMP JUMPDEST PUSH1 0x40 MLOAD PUSH2 0x1BD SWAP2 SWAP1 PUSH2 0x1AE5 JUMP JUMPDEST PUSH2 0x21D PUSH2 0x218 CALLDATASIZE PUSH1 0x4 PUSH2 0x1BA3 JUMP JUMPDEST PUSH2 0x846 JUMP JUMPDEST PUSH1 0x40 MLOAD PUSH2 0x1BD SWAP5 SWAP4 SWAP3 SWAP2 SWAP1 PUSH2 0x1BCD JUMP JUMPDEST PUSH2 0x240 PUSH2 0x23B CALLDATASIZE PUSH1 0x4 PUSH2 0x1C0A JUMP JUMPDEST PUSH2 0x92B JUMP JUMPDEST PUSH1 0x40 MLOAD PUSH2 0x1BD SWAP5 SWAP4 SWAP3 SWAP2 SWAP1 PUSH2 0x1C2C JUMP JUMPDEST PUSH2 0x259 PUSH1 0x2 SLOAD DUP2 JUMP JUMPDEST PUSH1 0x40 MLOAD SWAP1 DUP2 MSTORE PUSH1 0x20 ADD PUSH2 0x1BD JUMP JUMPDEST PUSH2 0x26F PUSH2 0xA6E JUMP JUMPDEST PUSH1 0x40 MLOAD PUSH2 0x1BD SWAP2 SWAP1 PUSH2 0x1C71 JUMP JUMPDEST PUSH2 0x28F PUSH2 0x28A CALLDATASIZE PUSH1 0x4 PUSH2 0x1C0A JUMP JUMPDEST PUSH2 0xC08 JUMP JUMPDEST PUSH1 0x40 MLOAD PUSH2 0x1BD SWAP2 SWAP1 PUSH2 0x1D55 JUMP JUMPDEST PUSH2 0x2AF PUSH2 0x2AA CALLDATASIZE PUSH1 0x4 PUSH2 0x1E5A JUMP JUMPDEST PUSH2 0xD3A JUMP JUMPDEST STOP JUMPDEST PUSH2 0x2AF PUSH2 0x2BF CALLDATASIZE PUSH1 0x4 PUSH2 0x1EE2 JUMP JUMPDEST PUSH2 0xE0A JUMP JUMPDEST PUSH2 0x2AF PUSH2 0x2D2 CALLDATASIZE PUSH1 0x4 PUSH2 0x1F56 JUMP JUMPDEST PUSH2 0x1004 JUMP JUMPDEST PUSH2 0x2AF PUSH2 0x2E5 CALLDATASIZE PUSH1 0x4 PUSH2 0x1FB4 JUMP JUMPDEST PUSH2 0x111B JUMP JUMPDEST PUSH2 0x2AF PUSH2 0x2F8 CALLDATASIZE PUSH1 0x4 PUSH2 0x200B JUMP JUMPDEST PUSH2 0x11CE JUMP JUMPDEST PUSH2 0x259 PUSH2 0x30B CALLDATASIZE PUSH1 0x4 PUSH2 0x1C0A JUMP JUMPDEST PUSH2 0x13BB JUMP JUMPDEST PUSH2 0x240 PUSH2 0x31E CALLDATASIZE PUSH1 0x4 PUSH2 0x1ACC JUMP JUMPDEST PUSH2 0x144E JUMP JUMPDEST PUSH1 0x1 SLOAD PUSH2 0x336 SWAP1 PUSH1 0x1 PUSH1 0x1 PUSH1 0xA0 SHL SUB AND DUP2 JUMP JUMPDEST PUSH1 0x40 MLOAD PUSH1 0x1 PUSH1 0x1 PUSH1 0xA0 SHL SUB SWAP1 SWAP2 AND DUP2 MSTORE PUSH1 0x20 ADD PUSH2 0x1BD JUMP JUMPDEST PUSH2 0x2AF PUSH2 0x35C CALLDATASIZE PUSH1 0x4 PUSH2 0x2060 JUMP JUMPDEST PUSH2 0x1494 JUMP JUMPDEST PUSH2 0x21D PUSH2 0x36F CALLDATASIZE PUSH1 0x4 PUSH2 0x1ACC JUMP JUMPDEST PUSH2 0x14FA JUMP JUMPDEST PUSH2 0x21D PUSH2 0x382 CALLDATASIZE PUSH1 0x4 PUSH2 0x1BA3 JUMP JUMPDEST PUSH2 0x1540 JUMP JUMPDEST PUSH2 0x39A PUSH2 0x395 CALLDATASIZE PUSH1 0x4 PUSH2 0x1C0A JUMP JUMPDEST PUSH2 0x155C JUMP JUMPDEST PUSH1 0x40 MLOAD PUSH2 0x1BD SWAP2 SWAP1 PUSH2 0x209D JUMP JUMPDEST PUSH2 0x21D PUSH2 0x3B5 CALLDATASIZE PUSH1 0x4 PUSH2 0x1ACC JUMP JUMPDEST PUSH2 0x168E JUMP JUMPDEST PUSH2 0x259 PUSH2 0x3C8 CALLDATASIZE PUSH1 0x4 PUSH2 0x1C0A JUMP JUMPDEST PUSH2 0x169E JUMP JUMPDEST PUSH2 0x259 PUSH2 0x3DB CALLDATASIZE PUSH1 0x4 PUSH2 0x1C0A JUMP JUMPDEST PUSH2 0x16EA JUMP JUMPDEST PUSH2 0x3F3 PUSH2 0x3EE CALLDATASIZE PUSH1 0x4 PUSH2 0x1ACC JUMP JUMPDEST PUSH2 0x176F JUMP JUMPDEST PUSH1 0x40 MLOAD PUSH2 0x1BD SWAP4 SWAP3 SWAP2 SWAP1 PUSH2 0x20F2 JUMP JUMPDEST PUSH2 0x40A PUSH2 0x182D JUMP JUMPDEST PUSH1 0x40 MLOAD PUSH2 0x1BD SWAP2 SWAP1 PUSH2 0x211B JUMP JUMPDEST PUSH1 0x60 PUSH1 0xA DUP1 SLOAD DUP1 PUSH1 0x20 MUL PUSH1 0x20 ADD PUSH1 0x40 MLOAD SWAP1 DUP2 ADD PUSH1 0x40 MSTORE DUP1 SWAP3 SWAP2 SWAP1 DUP2 DUP2 MSTORE PUSH1 0x20 ADD PUSH1 0x0 SWAP1 JUMPDEST DUP3 DUP3 LT ISZERO PUSH2 0x513 JUMPI DUP4 DUP3 SWAP1 PUSH1 0x0 MSTORE PUSH1 0x20 PUSH1 0x0 KECCAK256 SWAP1 PUSH1 0x3 MUL ADD PUSH1 0x40 MLOAD DUP1 PUSH1 0x60 ADD PUSH1 0x40 MSTORE SWAP1 DUP2 PUSH1 0x0 DUP3 ADD SLOAD DUP2 MSTORE PUSH1 0x20 ADD PUSH1 0x1 DUP3 ADD DUP1 SLOAD PUSH2 0x478 SWAP1 PUSH2 0x212E JUMP JUMPDEST DUP1 PUSH1 0x1F ADD PUSH1 0x20 DUP1 SWAP2 DIV MUL PUSH1 0x20 ADD PUSH1 0x40 MLOAD SWAP1 DUP2 ADD PUSH1 0x40 MSTORE DUP1 SWAP3 SWAP2 SWAP1 DUP2 DUP2 MSTORE PUSH1 0x20 ADD DUP3 DUP1 SLOAD PUSH2 0x4A4 SWAP1 PUSH2 0x212E JUMP JUMPDEST DUP1 ISZERO PUSH2 0x4F1 JUMPI DUP1 PUSH1 0x1F LT PUSH2 0x4C6 JUMPI PUSH2 0x100 DUP1 DUP4 SLOAD DIV MUL DUP4 MSTORE SWAP2 PUSH1 0x20 ADD SWAP2 PUSH2 0x4F1 JUMP JUMPDEST DUP3 ADD SWAP2 SWAP1 PUSH1 0x0 MSTORE PUSH1 0x20 PUSH1 0x0 KECCAK256 SWAP1 JUMPDEST DUP2 SLOAD DUP2 MSTORE SWAP1 PUSH1 0x1 ADD SWAP1 PUSH1 0x20 ADD DUP1 DUP4 GT PUSH2 0x4D4 JUMPI DUP3 SWAP1 SUB PUSH1 0x1F AND DUP3 ADD SWAP2 JUMPDEST POP POP POP POP POP DUP2 MSTORE PUSH1 0x20 ADD PUSH1 0x2 DUP3 ADD SLOAD DUP2 MSTORE POP POP DUP2 MSTORE PUSH1 0x20 ADD SWAP1 PUSH1 0x1 ADD SWAP1 PUSH2 0x43B JUMP JUMPDEST POP POP POP POP SWAP1 POP SWAP1 JUMP JUMPDEST PUSH1 0x6 PUSH1 0x20 MSTORE DUP2 PUSH1 0x0 MSTORE PUSH1 0x40 PUSH1 0x0 KECCAK256 DUP2 DUP2 SLOAD DUP2 LT PUSH2 0x538 JUMPI PUSH1 0x0 DUP1 REVERT JUMPDEST PUSH1 0x0 SWAP2 DUP3 MSTORE PUSH1 0x20 SWAP1 SWAP2 KECCAK256 PUSH1 0x5 SWAP1 SWAP2 MUL ADD DUP1 SLOAD PUSH1 0x1 DUP3 ADD SLOAD PUSH1 0x2 DUP4 ADD DUP1 SLOAD SWAP3 SWAP6 POP PUSH1 0x1 PUSH1 0x1 PUSH1 0xA0 SHL SUB SWAP1 SWAP2 AND SWAP4 POP SWAP1 PUSH2 0x56F SWAP1 PUSH2 0x212E JUMP JUMPDEST DUP1 PUSH1 0x1F ADD PUSH1 0x20 DUP1 SWAP2 DIV MUL PUSH1 0x20 ADD PUSH1 0x40 MLOAD SWAP1 DUP2 ADD PUSH1 0x40 MSTORE DUP1 SWAP3 SWAP2 SWAP1 DUP2 DUP2 MSTORE PUSH1 0x20 ADD DUP3 DUP1 SLOAD PUSH2 0x59B SWAP1 PUSH2 0x212E JUMP JUMPDEST DUP1 ISZERO PUSH2 0x5E8 JUMPI DUP1 PUSH1 0x1F LT PUSH2 0x5BD JUMPI PUSH2 0x100 DUP1 DUP4 SLOAD DIV MUL DUP4 MSTORE SWAP2 PUSH1 0x20 ADD SWAP2 PUSH2 0x5E8 JUMP JUMPDEST DUP3 ADD SWAP2 SWAP1 PUSH1 0x0 MSTORE PUSH1 0x20 PUSH1 0x0 KECCAK256 SWAP1 JUMPDEST DUP2 SLOAD DUP2 MSTORE SWAP1 PUSH1 0x1 ADD SWAP1 PUSH1 0x20 ADD DUP1 DUP4 GT PUSH2 0x5CB JUMPI DUP3 SWAP1 SUB PUSH1 0x1F AND DUP3 ADD SWAP2 JUMPDEST POP POP POP POP POP SWAP1 DUP1 PUSH1 0x3 ADD DUP1 SLOAD PUSH2 0x5FD SWAP1 PUSH2 0x212E JUMP JUMPDEST DUP1 PUSH1 0x1F ADD PUSH1 0x20 DUP1 SWAP2 DIV MUL PUSH1 0x20 ADD PUSH1 0x40 MLOAD SWAP1 DUP2 ADD PUSH1 0x40 MSTORE DUP1 SWAP3 SWAP2 SWAP1 DUP2 DUP2 MSTORE PUSH1 0x20 ADD DUP3 DUP1 SLOAD PUSH2 0x629 SWAP1 PUSH2 0x212E JUMP JUMPDEST DUP1 ISZERO PUSH2 0x676 JUMPI DUP1 PUSH1 0x1F LT PUSH2 0x64B JUMPI PUSH2 0x100 DUP1 DUP4 SLOAD DIV MUL DUP4 MSTORE SWAP2 PUSH1 0x20 ADD SWAP2 PUSH2 0x676 JUMP JUMPDEST DUP3 ADD SWAP2 SWAP1 PUSH1 0x0 MSTORE PUSH1 0x20 PUSH1 0x0 KECCAK256 SWAP1 JUMPDEST DUP2 SLOAD DUP2 MSTORE SWAP1 PUSH1 0x1 ADD SWAP1 PUSH1 0x20 ADD DUP1 DUP4 GT PUSH2 0x659 JUMPI DUP3 SWAP1 SUB PUSH1 0x1F AND DUP3 ADD SWAP2 JUMPDEST POP POP POP POP POP SWAP1 DUP1 PUSH1 0x4 ADD SLOAD SWAP1 POP DUP6 JUMP JUMPDEST PUSH1 0x60 PUSH1 0x6 PUSH1 0x0 DUP4 DUP2 MSTORE PUSH1 0x20 ADD SWAP1 DUP2 MSTORE PUSH1 0x20 ADD PUSH1 0x0 KECCAK256 DUP1 SLOAD DUP1 PUSH1 0x20 MUL PUSH1 0x20 ADD PUSH1 0x40 MLOAD SWAP1 DUP2 ADD PUSH1 0x40 MSTORE DUP1 SWAP3 SWAP2 SWAP1 DUP2 DUP2 MSTORE PUSH1 0x20 ADD PUSH1 0x0 SWAP1 JUMPDEST DUP3 DUP3 LT ISZERO PUSH2 0x83B JUMPI PUSH1 0x0 DUP5 DUP2 MSTORE PUSH1 0x20 SWAP1 DUP2 SWAP1 KECCAK256 PUSH1 0x40 DUP1 MLOAD PUSH1 0xA0 DUP2 ADD DUP3 MSTORE PUSH1 0x5 DUP7 MUL SWAP1 SWAP3 ADD DUP1 SLOAD DUP4 MSTORE PUSH1 0x1 DUP2 ADD SLOAD PUSH1 0x1 PUSH1 0x1 PUSH1 0xA0 SHL SUB AND SWAP4 DUP4 ADD SWAP4 SWAP1 SWAP4 MSTORE PUSH1 0x2 DUP4 ADD DUP1 SLOAD SWAP3 SWAP4 SWAP3 SWAP2 DUP5 ADD SWAP2 PUSH2 0x70E SWAP1 PUSH2 0x212E JUMP JUMPDEST DUP1 PUSH1 0x1F ADD PUSH1 0x20 DUP1 SWAP2 DIV MUL PUSH1 0x20 ADD PUSH1 0x40 MLOAD SWAP1 DUP2 ADD PUSH1 0x40 MSTORE DUP1 SWAP3 SWAP2 SWAP1 DUP2 DUP2 MSTORE PUSH1 0x20 ADD DUP3 DUP1 SLOAD PUSH2 0x73A SWAP1 PUSH2 0x212E JUMP JUMPDEST DUP1 ISZERO PUSH2 0x787 JUMPI DUP1 PUSH1 0x1F LT PUSH2 0x75C JUMPI PUSH2 0x100 DUP1 DUP4 SLOAD DIV MUL DUP4 MSTORE SWAP2 PUSH1 0x20 ADD SWAP2 PUSH2 0x787 JUMP JUMPDEST DUP3 ADD SWAP2 SWAP1 PUSH1 0x0 MSTORE PUSH1 0x20 PUSH1 0x0 KECCAK256 SWAP1 JUMPDEST DUP2 SLOAD DUP2 MSTORE SWAP1 PUSH1 0x1 ADD SWAP1 PUSH1 0x20 ADD DUP1 DUP4 GT PUSH2 0x76A JUMPI DUP3 SWAP1 SUB PUSH1 0x1F AND DUP3 ADD SWAP2 JUMPDEST POP POP POP POP POP DUP2 MSTORE PUSH1 0x20 ADD PUSH1 0x3 DUP3 ADD DUP1 SLOAD PUSH2 0x7A0 SWAP1 PUSH2 0x212E JUMP JUMPDEST DUP1 PUSH1 0x1F ADD PUSH1 0x20 DUP1 SWAP2 DIV MUL PUSH1 0x20 ADD PUSH1 0x40 MLOAD SWAP1 DUP2 ADD PUSH1 0x40 MSTORE DUP1 SWAP3 SWAP2 SWAP1 DUP2 DUP2 MSTORE PUSH1 0x20 ADD DUP3 DUP1 SLOAD PUSH2 0x7CC SWAP1 PUSH2 0x212E JUMP JUMPDEST DUP1 ISZERO PUSH2 0x819 JUMPI DUP1 PUSH1 0x1F LT PUSH2 0x7EE JUMPI PUSH2 0x100 DUP1 DUP4 SLOAD DIV MUL DUP4 MSTORE SWAP2 PUSH1 0x20 ADD SWAP2 PUSH2 0x819 JUMP JUMPDEST DUP3 ADD SWAP2 SWAP1 PUSH1 0x0 MSTORE PUSH1 0x20 PUSH1 0x0 KECCAK256 SWAP1 JUMPDEST DUP2 SLOAD DUP2 MSTORE SWAP1 PUSH1 0x1 ADD SWAP1 PUSH1 0x20 ADD DUP1 DUP4 GT PUSH2 0x7FC JUMPI DUP3 SWAP1 SUB PUSH1 0x1F AND DUP3 ADD SWAP2 JUMPDEST POP POP POP POP POP DUP2 MSTORE PUSH1 0x20 ADD PUSH1 0x4 DUP3 ADD SLOAD DUP2 MSTORE POP POP DUP2 MSTORE PUSH1 0x20 ADD SWAP1 PUSH1 0x1 ADD SWAP1 PUSH2 0x6BB JUMP JUMPDEST POP POP POP POP SWAP1 POP SWAP2 SWAP1 POP JUMP JUMPDEST PUSH1 0x4 PUSH1 0x20 MSTORE DUP2 PUSH1 0x0 MSTORE PUSH1 0x40 PUSH1 0x0 KECCAK256 DUP2 DUP2 SLOAD DUP2 LT PUSH2 0x862 JUMPI PUSH1 0x0 DUP1 REVERT JUMPDEST PUSH1 0x0 SWAP2 DUP3 MSTORE PUSH1 0x20 SWAP1 SWAP2 KECCAK256 PUSH1 0x4 SWAP1 SWAP2 MUL ADD DUP1 SLOAD PUSH1 0x1 DUP3 ADD SLOAD PUSH1 0x2 DUP4 ADD DUP1 SLOAD SWAP3 SWAP6 POP PUSH1 0x1 PUSH1 0x1 PUSH1 0xA0 SHL SUB SWAP1 SWAP2 AND SWAP4 POP SWAP1 PUSH2 0x899 SWAP1 PUSH2 0x212E JUMP JUMPDEST DUP1 PUSH1 0x1F ADD PUSH1 0x20 DUP1 SWAP2 DIV MUL PUSH1 0x20 ADD PUSH1 0x40 MLOAD SWAP1 DUP2 ADD PUSH1 0x40 MSTORE DUP1 SWAP3 SWAP2 SWAP1 DUP2 DUP2 MSTORE PUSH1 0x20 ADD DUP3 DUP1 SLOAD PUSH2 0x8C5 SWAP1 PUSH2 0x212E JUMP JUMPDEST DUP1 ISZERO PUSH2 0x912 JUMPI DUP1 PUSH1 0x1F LT PUSH2 0x8E7 JUMPI PUSH2 0x100 DUP1 DUP4 SLOAD DIV MUL DUP4 MSTORE SWAP2 PUSH1 0x20 ADD SWAP2 PUSH2 0x912 JUMP JUMPDEST DUP3 ADD SWAP2 SWAP1 PUSH1 0x0 MSTORE PUSH1 0x20 PUSH1 0x0 KECCAK256 SWAP1 JUMPDEST DUP2 SLOAD DUP2 MSTORE SWAP1 PUSH1 0x1 ADD SWAP1 PUSH1 0x20 ADD DUP1 DUP4 GT PUSH2 0x8F5 JUMPI DUP3 SWAP1 SUB PUSH1 0x1F AND DUP3 ADD SWAP2 JUMPDEST POP POP POP PUSH1 0x3 SWAP1 SWAP4 ADD SLOAD SWAP2 SWAP3 POP POP PUSH1 0x1 PUSH1 0x1 PUSH1 0xA0 SHL SUB AND DUP5 JUMP JUMPDEST PUSH1 0x3 PUSH1 0x20 MSTORE PUSH1 0x0 SWAP1 DUP2 MSTORE PUSH1 0x40 SWAP1 KECCAK256 DUP1 SLOAD PUSH1 0x1 DUP3 ADD SLOAD PUSH1 0x2 DUP4 ADD DUP1 SLOAD SWAP3 SWAP4 PUSH1 0x1 PUSH1 0x1 PUSH1 0xA0 SHL SUB SWAP1 SWAP3 AND SWAP3 PUSH2 0x95D SWAP1 PUSH2 0x212E JUMP JUMPDEST DUP1 PUSH1 0x1F ADD PUSH1 0x20 DUP1 SWAP2 DIV MUL PUSH1 0x20 ADD PUSH1 0x40 MLOAD SWAP1 DUP2 ADD PUSH1 0x40 MSTORE DUP1 SWAP3 SWAP2 SWAP1 DUP2 DUP2 MSTORE PUSH1 0x20 ADD DUP3 DUP1 SLOAD PUSH2 0x989 SWAP1 PUSH2 0x212E JUMP JUMPDEST DUP1 ISZERO PUSH2 0x9D6 JUMPI DUP1 PUSH1 0x1F LT PUSH2 0x9AB JUMPI PUSH2 0x100 DUP1 DUP4 SLOAD DIV MUL DUP4 MSTORE SWAP2 PUSH1 0x20 ADD SWAP2 PUSH2 0x9D6 JUMP JUMPDEST DUP3 ADD SWAP2 SWAP1 PUSH1 0x0 MSTORE PUSH1 0x20 PUSH1 0x0 KECCAK256 SWAP1 JUMPDEST DUP2 SLOAD DUP2 MSTORE SWAP1 PUSH1 0x1 ADD SWAP1 PUSH1 0x20 ADD DUP1 DUP4 GT PUSH2 0x9B9 JUMPI DUP3 SWAP1 SUB PUSH1 0x1F AND DUP3 ADD SWAP2 JUMPDEST POP POP POP POP POP SWAP1 DUP1 PUSH1 0x3 ADD DUP1 SLOAD PUSH2 0x9EB SWAP1 PUSH2 0x212E JUMP JUMPDEST DUP1 PUSH1 0x1F ADD PUSH1 0x20 DUP1 SWAP2 DIV MUL PUSH1 0x20 ADD PUSH1 0x40 MLOAD SWAP1 DUP2 ADD PUSH1 0x40 MSTORE DUP1 SWAP3 SWAP2 SWAP1 DUP2 DUP2 MSTORE PUSH1 0x20 ADD DUP3 DUP1 SLOAD PUSH2 0xA17 SWAP1 PUSH2 0x212E JUMP JUMPDEST DUP1 ISZERO PUSH2 0xA64 JUMPI DUP1 PUSH1 0x1F LT PUSH2 0xA39 JUMPI PUSH2 0x100 DUP1 DUP4 SLOAD DIV MUL DUP4 MSTORE SWAP2 PUSH1 0x20 ADD SWAP2 PUSH2 0xA64 JUMP JUMPDEST DUP3 ADD SWAP2 SWAP1 PUSH1 0x0 MSTORE PUSH1 0x20 PUSH1 0x0 KECCAK256 SWAP1 JUMPDEST DUP2 SLOAD DUP2 MSTORE SWAP1 PUSH1 0x1 ADD SWAP1 PUSH1 0x20 ADD DUP1 DUP4 GT PUSH2 0xA47 JUMPI DUP3 SWAP1 SUB PUSH1 0x1F AND DUP3 ADD SWAP2 JUMPDEST POP POP POP POP POP SWAP1 POP DUP5 JUMP JUMPDEST PUSH1 0x60 PUSH1 0x7 DUP1 SLOAD DUP1 PUSH1 0x20 MUL PUSH1 0x20 ADD PUSH1 0x40 MLOAD SWAP1 DUP2 ADD PUSH1 0x40 MSTORE DUP1 SWAP3 SWAP2 SWAP1 DUP2 DUP2 MSTORE PUSH1 0x20 ADD PUSH1 0x0 SWAP1 JUMPDEST DUP3 DUP3 LT ISZERO PUSH2 0x513 JUMPI PUSH1 0x0 DUP5 DUP2 MSTORE PUSH1 0x20 SWAP1 DUP2 SWAP1 KECCAK256 PUSH1 0x40 DUP1 MLOAD PUSH1 0x80 DUP2 ADD DUP3 MSTORE PUSH1 0x4 DUP7 MUL SWAP1 SWAP3 ADD DUP1 SLOAD DUP4 MSTORE PUSH1 0x1 DUP2 ADD SLOAD PUSH1 0x1 PUSH1 0x1 PUSH1 0xA0 SHL SUB AND SWAP4 DUP4 ADD SWAP4 SWAP1 SWAP4 MSTORE PUSH1 0x2 DUP4 ADD DUP1 SLOAD SWAP3 SWAP4 SWAP3 SWAP2 DUP5 ADD SWAP2 PUSH2 0xAE5 SWAP1 PUSH2 0x212E JUMP JUMPDEST DUP1 PUSH1 0x1F ADD PUSH1 0x20 DUP1 SWAP2 DIV MUL PUSH1 0x20 ADD PUSH1 0x40 MLOAD SWAP1 DUP2 ADD PUSH1 0x40 MSTORE DUP1 SWAP3 SWAP2 SWAP1 DUP2 DUP2 MSTORE PUSH1 0x20 ADD DUP3 DUP1 SLOAD PUSH2 0xB11 SWAP1 PUSH2 0x212E JUMP JUMPDEST DUP1 ISZERO PUSH2 0xB5E JUMPI DUP1 PUSH1 0x1F LT PUSH2 0xB33 JUMPI PUSH2 0x100 DUP1 DUP4 SLOAD DIV MUL DUP4 MSTORE SWAP2 PUSH1 0x20 ADD SWAP2 PUSH2 0xB5E JUMP JUMPDEST DUP3 ADD SWAP2 SWAP1 PUSH1 0x0 MSTORE PUSH1 0x20 PUSH1 0x0 KECCAK256 SWAP1 JUMPDEST DUP2 SLOAD DUP2 MSTORE SWAP1 PUSH1 0x1 ADD SWAP1 PUSH1 0x20 ADD DUP1 DUP4 GT PUSH2 0xB41 JUMPI DUP3 SWAP1 SUB PUSH1 0x1F AND DUP3 ADD SWAP2 JUMPDEST POP POP POP POP POP DUP2 MSTORE PUSH1 0x20 ADD PUSH1 0x3 DUP3 ADD DUP1 SLOAD PUSH2 0xB77 SWAP1 PUSH2 0x212E JUMP JUMPDEST DUP1 PUSH1 0x1F ADD PUSH1 0x20 DUP1 SWAP2 DIV MUL PUSH1 0x20 ADD PUSH1 0x40 MLOAD SWAP1 DUP2 ADD PUSH1 0x40 MSTORE DUP1 SWAP3 SWAP2 SWAP1 DUP2 DUP2 MSTORE PUSH1 0x20 ADD DUP3 DUP1 SLOAD PUSH2 0xBA3 SWAP1 PUSH2 0x212E JUMP JUMPDEST DUP1 ISZERO PUSH2 0xBF0 JUMPI DUP1 PUSH1 0x1F LT PUSH2 0xBC5 JUMPI PUSH2 0x100 DUP1 DUP4 SLOAD DIV MUL DUP4 MSTORE SWAP2 PUSH1 0x20 ADD SWAP2 PUSH2 0xBF0 JUMP JUMPDEST DUP3 ADD SWAP2 SWAP1 PUSH1 0x0 MSTORE PUSH1 0x20 PUSH1 0x0 KECCAK256 SWAP1 JUMPDEST DUP2 SLOAD DUP2 MSTORE SWAP1 PUSH1 0x1 ADD SWAP1 PUSH1 0x20 ADD DUP1 DUP4 GT PUSH2 0xBD3 JUMPI DUP3 SWAP1 SUB PUSH1 0x1F AND DUP3 ADD SWAP2 JUMPDEST POP POP POP POP POP DUP2 MSTORE POP POP DUP2 MSTORE PUSH1 0x20 ADD SWAP1 PUSH1 0x1 ADD SWAP1 PUSH2 0xA92 JUMP JUMPDEST PUSH1 0x1 PUSH1 0x1 PUSH1 0xA0 SHL SUB DUP2 AND PUSH1 0x0 SWAP1 DUP2 MSTORE PUSH1 0x4 PUSH1 0x20 SWAP1 DUP2 MSTORE PUSH1 0x40 DUP1 DUP4 KECCAK256 DUP1 SLOAD DUP3 MLOAD DUP2 DUP6 MUL DUP2 ADD DUP6 ADD SWAP1 SWAP4 MSTORE DUP1 DUP4 MSTORE PUSH1 0x60 SWAP5 SWAP3 SWAP4 SWAP2 SWAP3 SWAP1 SWAP2 DUP5 ADD JUMPDEST DUP3 DUP3 LT ISZERO PUSH2 0x83B JUMPI PUSH1 0x0 DUP5 DUP2 MSTORE PUSH1 0x20 SWAP1 DUP2 SWAP1 KECCAK256 PUSH1 0x40 DUP1 MLOAD PUSH1 0x80 DUP2 ADD DUP3 MSTORE PUSH1 0x4 DUP7 MUL SWAP1 SWAP3 ADD DUP1 SLOAD DUP4 MSTORE PUSH1 0x1 DUP2 ADD SLOAD PUSH1 0x1 PUSH1 0x1 PUSH1 0xA0 SHL SUB AND SWAP4 DUP4 ADD SWAP4 SWAP1 SWAP4 MSTORE PUSH1 0x2 DUP4 ADD DUP1 SLOAD SWAP3 SWAP4 SWAP3 SWAP2 DUP5 ADD SWAP2 PUSH2 0xC93 SWAP1 PUSH2 0x212E JUMP JUMPDEST DUP1 PUSH1 0x1F ADD PUSH1 0x20 DUP1 SWAP2 DIV MUL PUSH1 0x20 ADD PUSH1 0x40 MLOAD SWAP1 DUP2 ADD PUSH1 0x40 MSTORE DUP1 SWAP3 SWAP2 SWAP1 DUP2 DUP2 MSTORE PUSH1 0x20 ADD DUP3 DUP1 SLOAD PUSH2 0xCBF SWAP1 PUSH2 0x212E JUMP JUMPDEST DUP1 ISZERO PUSH2 0xD0C JUMPI DUP1 PUSH1 0x1F LT PUSH2 0xCE1 JUMPI PUSH2 0x100 DUP1 DUP4 SLOAD DIV MUL DUP4 MSTORE SWAP2 PUSH1 0x20 ADD SWAP2 PUSH2 0xD0C JUMP JUMPDEST DUP3 ADD SWAP2 SWAP1 PUSH1 0x0 MSTORE PUSH1 0x20 PUSH1 0x0 KECCAK256 SWAP1 JUMPDEST DUP2 SLOAD DUP2 MSTORE SWAP1 PUSH1 0x1 ADD SWAP1 PUSH1 0x20 ADD DUP1 DUP4 GT PUSH2 0xCEF JUMPI DUP3 SWAP1 SUB PUSH1 0x1F AND DUP3 ADD SWAP2 JUMPDEST POP POP POP SWAP2 DUP4 MSTORE POP POP PUSH1 0x3 SWAP2 SWAP1 SWAP2 ADD SLOAD PUSH1 0x1 PUSH1 0x1 PUSH1 0xA0 SHL SUB AND PUSH1 0x20 SWAP2 DUP3 ADD MSTORE SWAP1 DUP3 MSTORE PUSH1 0x1 SWAP3 SWAP1 SWAP3 ADD SWAP2 ADD PUSH2 0xC40 JUMP JUMPDEST PUSH2 0xD43 DUP2 PUSH2 0x169E JUMP JUMPDEST POP PUSH2 0xD4D DUP2 PUSH2 0x16EA JUMP JUMPDEST POP PUSH2 0xD57 DUP2 PUSH2 0x13BB JUMP JUMPDEST POP PUSH1 0x40 DUP1 MLOAD PUSH1 0xA0 DUP2 ADD DUP3 MSTORE DUP7 DUP2 MSTORE CALLER PUSH1 0x20 DUP1 DUP4 ADD SWAP2 DUP3 MSTORE DUP3 DUP5 ADD DUP9 DUP2 MSTORE PUSH1 0x60 DUP5 ADD DUP9 SWAP1 MSTORE PUSH1 0x80 DUP5 ADD DUP8 SWAP1 MSTORE PUSH1 0x0 DUP8 DUP2 MSTORE PUSH1 0x6 DUP4 MSTORE SWAP5 DUP6 KECCAK256 DUP1 SLOAD PUSH1 0x1 DUP1 DUP3 ADD DUP4 SSTORE SWAP2 DUP8 MSTORE SWAP3 SWAP1 SWAP6 KECCAK256 DUP5 MLOAD PUSH1 0x5 SWAP1 SWAP4 MUL ADD SWAP2 DUP3 SSTORE SWAP2 MLOAD SWAP4 DUP2 ADD DUP1 SLOAD PUSH1 0x1 PUSH1 0x1 PUSH1 0xA0 SHL SUB NOT AND PUSH1 0x1 PUSH1 0x1 PUSH1 0xA0 SHL SUB SWAP1 SWAP6 AND SWAP5 SWAP1 SWAP5 OR SWAP1 SWAP4 SSTORE MLOAD SWAP1 SWAP2 DUP3 SWAP2 PUSH1 0x2 DUP3 ADD SWAP1 PUSH2 0xDE0 SWAP1 DUP3 PUSH2 0x21B7 JUMP JUMPDEST POP PUSH1 0x60 DUP3 ADD MLOAD PUSH1 0x3 DUP3 ADD SWAP1 PUSH2 0xDF5 SWAP1 DUP3 PUSH2 0x21B7 JUMP JUMPDEST POP PUSH1 0x80 DUP3 ADD MLOAD DUP2 PUSH1 0x4 ADD SSTORE POP POP POP POP POP POP POP POP JUMP JUMPDEST PUSH2 0xE13 DUP4 PUSH2 0x169E JUMP JUMPDEST POP PUSH1 0x0 PUSH1 0x40 MLOAD DUP1 PUSH1 0x80 ADD PUSH1 0x40 MSTORE DUP1 PUSH1 0x2 SLOAD PUSH1 0x1 PUSH2 0xE30 SWAP2 SWAP1 PUSH2 0x228D JUMP JUMPDEST DUP2 MSTORE CALLER PUSH1 0x20 DUP1 DUP4 ADD DUP3 SWAP1 MSTORE PUSH1 0x40 DUP1 DUP5 ADD DUP9 SWAP1 MSTORE PUSH1 0x60 SWAP1 SWAP4 ADD DUP7 SWAP1 MSTORE PUSH1 0x0 SWAP2 DUP3 MSTORE PUSH1 0x3 DUP2 MSTORE SWAP1 DUP3 SWAP1 KECCAK256 DUP4 MLOAD DUP2 SSTORE SWAP1 DUP4 ADD MLOAD PUSH1 0x1 DUP3 ADD DUP1 SLOAD PUSH1 0x1 PUSH1 0x1 PUSH1 0xA0 SHL SUB NOT AND PUSH1 0x1 PUSH1 0x1 PUSH1 0xA0 SHL SUB SWAP1 SWAP3 AND SWAP2 SWAP1 SWAP2 OR SWAP1 SSTORE SWAP1 DUP3 ADD MLOAD SWAP2 SWAP3 POP DUP3 SWAP2 PUSH1 0x2 DUP3 ADD SWAP1 PUSH2 0xE99 SWAP1 DUP3 PUSH2 0x21B7 JUMP JUMPDEST POP PUSH1 0x60 DUP3 ADD MLOAD PUSH1 0x3 DUP3 ADD SWAP1 PUSH2 0xEAE SWAP1 DUP3 PUSH2 0x21B7 JUMP JUMPDEST POP POP PUSH1 0x7 DUP1 SLOAD PUSH1 0x1 DUP2 ADD DUP3 SSTORE PUSH1 0x0 SWAP2 SWAP1 SWAP2 MSTORE DUP3 MLOAD PUSH32 0xA66CC928B5EDB82AF9BD49922954155AB7B0942694BEA4CE44661D9A8736C688 PUSH1 0x4 SWAP1 SWAP3 MUL SWAP2 DUP3 ADD SWAP1 DUP2 SSTORE PUSH1 0x20 DUP5 ADD MLOAD PUSH32 0xA66CC928B5EDB82AF9BD49922954155AB7B0942694BEA4CE44661D9A8736C689 DUP4 ADD DUP1 SLOAD PUSH1 0x1 PUSH1 0x1 PUSH1 0xA0 SHL SUB NOT AND PUSH1 0x1 PUSH1 0x1 PUSH1 0xA0 SHL SUB SWAP1 SWAP3 AND SWAP2 SWAP1 SWAP2 OR SWAP1 SSTORE PUSH1 0x40 DUP5 ADD MLOAD DUP5 SWAP4 POP SWAP1 SWAP2 PUSH32 0xA66CC928B5EDB82AF9BD49922954155AB7B0942694BEA4CE44661D9A8736C68A ADD SWAP1 PUSH2 0xF6A SWAP1 DUP3 PUSH2 0x21B7 JUMP JUMPDEST POP PUSH1 0x60 DUP3 ADD MLOAD PUSH1 0x3 DUP3 ADD SWAP1 PUSH2 0xF7F SWAP1 DUP3 PUSH2 0x21B7 JUMP JUMPDEST POP POP PUSH1 0x2 DUP1 SLOAD SWAP2 POP PUSH1 0x0 PUSH2 0xF92 DUP4 PUSH2 0x22A6 JUMP JUMPDEST SWAP2 SWAP1 POP SSTORE POP PUSH32 0x68F068B2F0D02FCA99BC8285B62FCE8668FE16B7C6A810351EA25BFF358C0DD8 PUSH1 0x40 MLOAD PUSH2 0xFF6 SWAP1 PUSH1 0x20 DUP1 DUP3 MSTORE PUSH1 0x12 SWAP1 DUP3 ADD MSTORE PUSH32 0x41646D696E207265676973746572656421210000000000000000000000000000 PUSH1 0x40 DUP3 ADD MSTORE PUSH1 0x60 ADD SWAP1 JUMP JUMPDEST PUSH1 0x40 MLOAD DUP1 SWAP2 SUB SWAP1 LOG1 POP POP POP POP JUMP JUMPDEST PUSH2 0x100D DUP2 PUSH2 0x13BB JUMP JUMPDEST POP PUSH1 0x40 DUP1 MLOAD PUSH1 0x80 DUP2 ADD DUP3 MSTORE PUSH1 0x1 PUSH1 0x1 PUSH1 0xA0 SHL SUB DUP5 DUP2 AND PUSH1 0x0 DUP2 DUP2 MSTORE PUSH1 0x5 PUSH1 0x20 DUP2 DUP2 MSTORE DUP7 DUP4 KECCAK256 DUP1 SLOAD DUP1 DUP9 MSTORE CALLER DUP4 DUP10 ADD SWAP1 DUP2 MSTORE SWAP9 DUP9 ADD DUP13 DUP2 MSTORE PUSH1 0x60 DUP10 ADD SWAP7 SWAP1 SWAP7 MSTORE SWAP3 DUP3 MSTORE PUSH1 0x1 DUP1 DUP5 ADD DUP3 SSTORE SWAP1 DUP5 MSTORE SWAP3 KECCAK256 DUP6 MLOAD PUSH1 0x4 SWAP1 SWAP3 MUL ADD SWAP1 DUP2 SSTORE SWAP5 MLOAD SWAP1 DUP6 ADD DUP1 SLOAD PUSH1 0x1 PUSH1 0x1 PUSH1 0xA0 SHL SUB NOT AND SWAP2 SWAP1 SWAP4 AND OR SWAP1 SWAP2 SSTORE MLOAD SWAP1 SWAP2 DUP3 SWAP2 PUSH1 0x2 DUP3 ADD SWAP1 PUSH2 0x1093 SWAP1 DUP3 PUSH2 0x21B7 JUMP JUMPDEST POP PUSH1 0x60 SWAP2 DUP3 ADD MLOAD PUSH1 0x3 SWAP1 SWAP2 ADD DUP1 SLOAD PUSH1 0x1 PUSH1 0x1 PUSH1 0xA0 SHL SUB NOT AND PUSH1 0x1 PUSH1 0x1 PUSH1 0xA0 SHL SUB SWAP1 SWAP3 AND SWAP2 SWAP1 SWAP2 OR SWAP1 SSTORE PUSH1 0x40 DUP1 MLOAD PUSH1 0x20 DUP1 DUP3 MSTORE PUSH1 0x13 SWAP1 DUP3 ADD MSTORE PUSH32 0x576F726B65722072656769737465726564212100000000000000000000000000 SWAP2 DUP2 ADD SWAP2 SWAP1 SWAP2 MSTORE PUSH32 0x68F068B2F0D02FCA99BC8285B62FCE8668FE16B7C6A810351EA25BFF358C0DD8 SWAP2 ADD PUSH2 0xFF6 JUMP JUMPDEST PUSH2 0x1124 DUP4 PUSH2 0x169E JUMP JUMPDEST POP PUSH2 0x112E DUP4 PUSH2 0x16EA JUMP JUMPDEST POP PUSH1 0x40 DUP1 MLOAD PUSH1 0x60 DUP2 ADD DUP3 MSTORE PUSH1 0xA DUP1 SLOAD DUP1 DUP4 MSTORE PUSH1 0x20 DUP4 ADD DUP7 DUP2 MSTORE SWAP4 DUP4 ADD DUP6 SWAP1 MSTORE PUSH1 0x1 DUP2 ADD DUP3 SSTORE PUSH1 0x0 SWAP2 SWAP1 SWAP2 MSTORE DUP2 MLOAD PUSH1 0x3 SWAP1 SWAP2 MUL PUSH32 0xC65A7BB8D6351C1CF70C95A316CC6A92839C986682D98BC35F958F4883F9D2A8 DUP2 ADD SWAP2 DUP3 SSTORE SWAP3 MLOAD SWAP2 SWAP3 DUP4 SWAP3 PUSH32 0xC65A7BB8D6351C1CF70C95A316CC6A92839C986682D98BC35F958F4883F9D2A9 SWAP1 SWAP2 ADD SWAP1 PUSH2 0x11BB SWAP1 DUP3 PUSH2 0x21B7 JUMP JUMPDEST POP PUSH1 0x40 DUP3 ADD MLOAD DUP2 PUSH1 0x2 ADD SSTORE POP POP POP POP POP POP JUMP JUMPDEST PUSH2 0x11D7 DUP4 PUSH2 0x16EA JUMP JUMPDEST POP PUSH1 0x40 DUP1 MLOAD PUSH1 0x80 DUP2 ADD DUP3 MSTORE PUSH1 0x1 PUSH1 0x1 PUSH1 0xA0 SHL SUB DUP4 DUP2 AND PUSH1 0x0 DUP2 DUP2 MSTORE PUSH1 0x4 PUSH1 0x20 DUP2 DUP2 MSTORE DUP7 DUP4 KECCAK256 DUP1 SLOAD DUP1 DUP9 MSTORE CALLER DUP4 DUP10 ADD SWAP1 DUP2 MSTORE SWAP9 DUP9 ADD DUP12 DUP2 MSTORE PUSH1 0x60 DUP10 ADD SWAP7 SWAP1 SWAP7 MSTORE DUP4 DUP4 MSTORE PUSH1 0x1 DUP1 DUP3 ADD DUP4 SSTORE SWAP2 DUP6 MSTORE SWAP2 SWAP1 SWAP4 KECCAK256 DUP7 MLOAD SWAP2 SWAP1 SWAP3 MUL SWAP1 SWAP2 ADD SWAP1 DUP2 SSTORE SWAP5 MLOAD SWAP1 DUP6 ADD DUP1 SLOAD PUSH1 0x1 PUSH1 0x1 PUSH1 0xA0 SHL SUB NOT AND SWAP2 SWAP1 SWAP4 AND OR SWAP1 SWAP2 SSTORE MLOAD SWAP1 SWAP2 DUP3 SWAP2 PUSH1 0x2 DUP3 ADD SWAP1 PUSH2 0x1260 SWAP1 DUP3 PUSH2 0x21B7 JUMP JUMPDEST POP PUSH1 0x60 SWAP2 SWAP1 SWAP2 ADD MLOAD PUSH1 0x3 SWAP1 SWAP2 ADD DUP1 SLOAD PUSH1 0x1 PUSH1 0x1 PUSH1 0xA0 SHL SUB SWAP3 DUP4 AND PUSH1 0x1 PUSH1 0x1 PUSH1 0xA0 SHL SUB NOT SWAP2 DUP3 AND OR SWAP1 SWAP2 SSTORE PUSH1 0x8 DUP1 SLOAD PUSH1 0x1 DUP2 ADD DUP3 SSTORE PUSH1 0x0 SWAP2 SWAP1 SWAP2 MSTORE DUP4 MLOAD PUSH1 0x4 SWAP1 SWAP2 MUL PUSH32 0xF3F7A9FE364FAAB93B216DA50A3214154F22A0A2B415B23A84C8169E8B636EE3 DUP2 ADD SWAP2 DUP3 SSTORE PUSH1 0x20 DUP6 ADD MLOAD PUSH32 0xF3F7A9FE364FAAB93B216DA50A3214154F22A0A2B415B23A84C8169E8B636EE4 DUP3 ADD DUP1 SLOAD SWAP2 SWAP1 SWAP6 AND SWAP4 AND SWAP3 SWAP1 SWAP3 OR SWAP1 SWAP3 SSTORE PUSH1 0x40 DUP4 ADD MLOAD DUP4 SWAP3 SWAP2 PUSH32 0xF3F7A9FE364FAAB93B216DA50A3214154F22A0A2B415B23A84C8169E8B636EE5 ADD SWAP1 PUSH2 0x1333 SWAP1 DUP3 PUSH2 0x21B7 JUMP JUMPDEST POP PUSH1 0x60 SWAP2 DUP3 ADD MLOAD PUSH1 0x3 SWAP1 SWAP2 ADD DUP1 SLOAD PUSH1 0x1 PUSH1 0x1 PUSH1 0xA0 SHL SUB NOT AND PUSH1 0x1 PUSH1 0x1 PUSH1 0xA0 SHL SUB SWAP1 SWAP3 AND SWAP2 SWAP1 SWAP2 OR SWAP1 SSTORE PUSH1 0x40 DUP1 MLOAD PUSH1 0x20 DUP1 DUP3 MSTORE PUSH1 0x13 SWAP1 DUP3 ADD MSTORE PUSH32 0x537570706C792072656769737465726564212100000000000000000000000000 SWAP2 DUP2 ADD SWAP2 SWAP1 SWAP2 MSTORE PUSH32 0x68F068B2F0D02FCA99BC8285B62FCE8668FE16B7C6A810351EA25BFF358C0DD8 SWAP2 ADD PUSH2 0xFF6 JUMP JUMPDEST PUSH1 0x0 DUP1 JUMPDEST PUSH1 0x8 SLOAD DUP2 LT ISZERO PUSH2 0x1445 JUMPI PUSH1 0x8 DUP2 DUP2 SLOAD DUP2 LT PUSH2 0x13DC JUMPI PUSH2 0x13DC PUSH2 0x22BF JUMP JUMPDEST PUSH1 0x0 SWAP2 DUP3 MSTORE PUSH1 0x20 SWAP1 SWAP2 KECCAK256 PUSH1 0x1 PUSH1 0x4 SWAP1 SWAP3 MUL ADD ADD SLOAD PUSH1 0x1 PUSH1 0x1 PUSH1 0xA0 SHL SUB DUP5 DUP2 AND SWAP2 AND EQ PUSH2 0x1433 JUMPI PUSH1 0x40 MLOAD PUSH3 0x461BCD PUSH1 0xE5 SHL DUP2 MSTORE PUSH1 0x20 PUSH1 0x4 DUP3 ADD MSTORE PUSH1 0x1 PUSH1 0x24 DUP3 ADD MSTORE PUSH1 0x37 PUSH1 0xF9 SHL PUSH1 0x44 DUP3 ADD MSTORE PUSH1 0x64 ADD JUMPDEST PUSH1 0x40 MLOAD DUP1 SWAP2 SUB SWAP1 REVERT JUMPDEST DUP1 PUSH2 0x143D DUP2 PUSH2 0x22A6 JUMP JUMPDEST SWAP2 POP POP PUSH2 0x13BF JUMP JUMPDEST POP PUSH1 0x1 SWAP3 SWAP2 POP POP JUMP JUMPDEST PUSH1 0x7 DUP2 DUP2 SLOAD DUP2 LT PUSH2 0x145E JUMPI PUSH1 0x0 DUP1 REVERT JUMPDEST PUSH1 0x0 SWAP2 DUP3 MSTORE PUSH1 0x20 SWAP1 SWAP2 KECCAK256 PUSH1 0x4 SWAP1 SWAP2 MUL ADD DUP1 SLOAD PUSH1 0x1 DUP3 ADD SLOAD PUSH1 0x2 DUP4 ADD DUP1 SLOAD SWAP3 SWAP5 POP PUSH1 0x1 PUSH1 0x1 PUSH1 0xA0 SHL SUB SWAP1 SWAP2 AND SWAP3 SWAP2 PUSH2 0x95D SWAP1 PUSH2 0x212E JUMP JUMPDEST PUSH1 0x1 SLOAD PUSH1 0x1 PUSH1 0x1 PUSH1 0xA0 SHL SUB AND CALLER EQ PUSH2 0x14EE JUMPI PUSH1 0x40 MLOAD PUSH3 0x461BCD PUSH1 0xE5 SHL DUP2 MSTORE PUSH1 0x20 PUSH1 0x4 DUP3 ADD MSTORE PUSH1 0xE PUSH1 0x24 DUP3 ADD MSTORE PUSH32 0x4E6F7420617574686F72697A6564000000000000000000000000000000000000 PUSH1 0x44 DUP3 ADD MSTORE PUSH1 0x64 ADD PUSH2 0x142A JUMP JUMPDEST PUSH2 0x14F7 DUP2 PUSH2 0x18BB JUMP JUMPDEST POP JUMP JUMPDEST PUSH1 0x8 DUP2 DUP2 SLOAD DUP2 LT PUSH2 0x150A JUMPI PUSH1 0x0 DUP1 REVERT JUMPDEST PUSH1 0x0 SWAP2 DUP3 MSTORE PUSH1 0x20 SWAP1 SWAP2 KECCAK256 PUSH1 0x4 SWAP1 SWAP2 MUL ADD DUP1 SLOAD PUSH1 0x1 DUP3 ADD SLOAD PUSH1 0x2 DUP4 ADD DUP1 SLOAD SWAP3 SWAP5 POP PUSH1 0x1 PUSH1 0x1 PUSH1 0xA0 SHL SUB SWAP1 SWAP2 AND SWAP3 SWAP2 PUSH2 0x899 SWAP1 PUSH2 0x212E JUMP JUMPDEST PUSH1 0x5 PUSH1 0x20 MSTORE DUP2 PUSH1 0x0 MSTORE PUSH1 0x40 PUSH1 0x0 KECCAK256 DUP2 DUP2 SLOAD DUP2 LT PUSH2 0x862 JUMPI PUSH1 0x0 DUP1 REVERT JUMPDEST PUSH1 0x1 PUSH1 0x1 PUSH1 0xA0 SHL SUB DUP2 AND PUSH1 0x0 SWAP1 DUP2 MSTORE PUSH1 0x5 PUSH1 0x20 SWAP1 DUP2 MSTORE PUSH1 0x40 DUP1 DUP4 KECCAK256 DUP1 SLOAD DUP3 MLOAD DUP2 DUP6 MUL DUP2 ADD DUP6 ADD SWAP1 SWAP4 MSTORE DUP1 DUP4 MSTORE PUSH1 0x60 SWAP5 SWAP3 SWAP4 SWAP2 SWAP3 SWAP1 SWAP2 DUP5 ADD JUMPDEST DUP3 DUP3 LT ISZERO PUSH2 0x83B JUMPI PUSH1 0x0 DUP5 DUP2 MSTORE PUSH1 0x20 SWAP1 DUP2 SWAP1 KECCAK256 PUSH1 0x40 DUP1 MLOAD PUSH1 0x80 DUP2 ADD DUP3 MSTORE PUSH1 0x4 DUP7 MUL SWAP1 SWAP3 ADD DUP1 SLOAD DUP4 MSTORE PUSH1 0x1 DUP2 ADD SLOAD PUSH1 0x1 PUSH1 0x1 PUSH1 0xA0 SHL SUB AND SWAP4 DUP4 ADD SWAP4 SWAP1 SWAP4 MSTORE PUSH1 0x2 DUP4 ADD DUP1 SLOAD SWAP3 SWAP4 SWAP3 SWAP2 DUP5 ADD SWAP2 PUSH2 0x15E7 SWAP1 PUSH2 0x212E JUMP JUMPDEST DUP1 PUSH1 0x1F ADD PUSH1 0x20 DUP1 SWAP2 DIV MUL PUSH1 0x20 ADD PUSH1 0x40 MLOAD SWAP1 DUP2 ADD PUSH1 0x40 MSTORE DUP1 SWAP3 SWAP2 SWAP1 DUP2 DUP2 MSTORE PUSH1 0x20 ADD DUP3 DUP1 SLOAD PUSH2 0x1613 SWAP1 PUSH2 0x212E JUMP JUMPDEST DUP1 ISZERO PUSH2 0x1660 JUMPI DUP1 PUSH1 0x1F LT PUSH2 0x1635 JUMPI PUSH2 0x100 DUP1 DUP4 SLOAD DIV MUL DUP4 MSTORE SWAP2 PUSH1 0x20 ADD SWAP2 PUSH2 0x1660 JUMP JUMPDEST DUP3 ADD SWAP2 SWAP1 PUSH1 0x0 MSTORE PUSH1 0x20 PUSH1 0x0 KECCAK256 SWAP1 JUMPDEST DUP2 SLOAD DUP2 MSTORE SWAP1 PUSH1 0x1 ADD SWAP1 PUSH1 0x20 ADD DUP1 DUP4 GT PUSH2 0x1643 JUMPI DUP3 SWAP1 SUB PUSH1 0x1F AND DUP3 ADD SWAP2 JUMPDEST POP POP POP SWAP2 DUP4 MSTORE POP POP PUSH1 0x3 SWAP2 SWAP1 SWAP2 ADD SLOAD PUSH1 0x1 PUSH1 0x1 PUSH1 0xA0 SHL SUB AND PUSH1 0x20 SWAP2 DUP3 ADD MSTORE SWAP1 DUP3 MSTORE PUSH1 0x1 SWAP3 SWAP1 SWAP3 ADD SWAP2 ADD PUSH2 0x1594 JUMP JUMPDEST PUSH1 0x9 DUP2 DUP2 SLOAD DUP2 LT PUSH2 0x150A JUMPI PUSH1 0x0 DUP1 REVERT JUMPDEST PUSH1 0x1 SLOAD PUSH1 0x0 SWAP1 PUSH1 0x1 PUSH1 0x1 PUSH1 0xA0 SHL SUB DUP4 DUP2 AND SWAP2 AND EQ PUSH2 0x16E2 JUMPI PUSH1 0x40 MLOAD PUSH3 0x461BCD PUSH1 0xE5 SHL DUP2 MSTORE PUSH1 0x20 PUSH1 0x4 DUP3 ADD MSTORE PUSH1 0x1 PUSH1 0x24 DUP3 ADD MSTORE PUSH1 0x37 PUSH1 0xF9 SHL PUSH1 0x44 DUP3 ADD MSTORE PUSH1 0x64 ADD PUSH2 0x142A JUMP JUMPDEST POP PUSH1 0x1 SWAP2 SWAP1 POP JUMP JUMPDEST PUSH1 0x0 DUP1 JUMPDEST PUSH1 0x7 SLOAD DUP2 LT ISZERO PUSH2 0x1445 JUMPI PUSH1 0x7 DUP2 DUP2 SLOAD DUP2 LT PUSH2 0x170B JUMPI PUSH2 0x170B PUSH2 0x22BF JUMP JUMPDEST PUSH1 0x0 SWAP2 DUP3 MSTORE PUSH1 0x20 SWAP1 SWAP2 KECCAK256 PUSH1 0x1 PUSH1 0x4 SWAP1 SWAP3 MUL ADD ADD SLOAD PUSH1 0x1 PUSH1 0x1 PUSH1 0xA0 SHL SUB DUP5 DUP2 AND SWAP2 AND EQ PUSH2 0x175D JUMPI PUSH1 0x40 MLOAD PUSH3 0x461BCD PUSH1 0xE5 SHL DUP2 MSTORE PUSH1 0x20 PUSH1 0x4 DUP3 ADD MSTORE PUSH1 0x1 PUSH1 0x24 DUP3 ADD MSTORE PUSH1 0x37 PUSH1 0xF9 SHL PUSH1 0x44 DUP3 ADD MSTORE PUSH1 0x64 ADD PUSH2 0x142A JUMP JUMPDEST DUP1 PUSH2 0x1767 DUP2 PUSH2 0x22A6 JUMP JUMPDEST SWAP2 POP POP PUSH2 0x16EE JUMP JUMPDEST PUSH1 0xA DUP2 DUP2 SLOAD DUP2 LT PUSH2 0x177F JUMPI PUSH1 0x0 DUP1 REVERT JUMPDEST PUSH1 0x0 SWAP2 DUP3 MSTORE PUSH1 0x20 SWAP1 SWAP2 KECCAK256 PUSH1 0x3 SWAP1 SWAP2 MUL ADD DUP1 SLOAD PUSH1 0x1 DUP3 ADD DUP1 SLOAD SWAP2 SWAP4 POP SWAP1 PUSH2 0x17A4 SWAP1 PUSH2 0x212E JUMP JUMPDEST DUP1 PUSH1 0x1F ADD PUSH1 0x20 DUP1 SWAP2 DIV MUL PUSH1 0x20 ADD PUSH1 0x40 MLOAD SWAP1 DUP2 ADD PUSH1 0x40 MSTORE DUP1 SWAP3 SWAP2 SWAP1 DUP2 DUP2 MSTORE PUSH1 0x20 ADD DUP3 DUP1 SLOAD PUSH2 0x17D0 SWAP1 PUSH2 0x212E JUMP JUMPDEST DUP1 ISZERO PUSH2 0x181D JUMPI DUP1 PUSH1 0x1F LT PUSH2 0x17F2 JUMPI PUSH2 0x100 DUP1 DUP4 SLOAD DIV MUL DUP4 MSTORE SWAP2 PUSH1 0x20 ADD SWAP2 PUSH2 0x181D JUMP JUMPDEST DUP3 ADD SWAP2 SWAP1 PUSH1 0x0 MSTORE PUSH1 0x20 PUSH1 0x0 KECCAK256 SWAP1 JUMPDEST DUP2 SLOAD DUP2 MSTORE SWAP1 PUSH1 0x1 ADD SWAP1 PUSH1 0x20 ADD DUP1 DUP4 GT PUSH2 0x1800 JUMPI DUP3 SWAP1 SUB PUSH1 0x1F AND DUP3 ADD SWAP2 JUMPDEST POP POP POP POP POP SWAP1 DUP1 PUSH1 0x2 ADD SLOAD SWAP1 POP DUP4 JUMP JUMPDEST PUSH1 0x0 DUP1 SLOAD PUSH2 0x183A SWAP1 PUSH2 0x212E JUMP JUMPDEST DUP1 PUSH1 0x1F ADD PUSH1 0x20 DUP1 SWAP2 DIV MUL PUSH1 0x20 ADD PUSH1 0x40 MLOAD SWAP1 DUP2 ADD PUSH1 0x40 MSTORE DUP1 SWAP3 SWAP2 SWAP1 DUP2 DUP2 MSTORE PUSH1 0x20 ADD DUP3 DUP1 SLOAD PUSH2 0x1866 SWAP1 PUSH2 0x212E JUMP JUMPDEST DUP1 ISZERO PUSH2 0x18B3 JUMPI DUP1 PUSH1 0x1F LT PUSH2 0x1888 JUMPI PUSH2 0x100 DUP1 DUP4 SLOAD DIV MUL DUP4 MSTORE SWAP2 PUSH1 0x20 ADD SWAP2 PUSH2 0x18B3 JUMP JUMPDEST DUP3 ADD SWAP2 SWAP1 PUSH1 0x0 MSTORE PUSH1 0x20 PUSH1 0x0 KECCAK256 SWAP1 JUMPDEST DUP2 SLOAD DUP2 MSTORE SWAP1 PUSH1 0x1 ADD SWAP1 PUSH1 0x20 ADD DUP1 DUP4 GT PUSH2 0x1896 JUMPI DUP3 SWAP1 SUB PUSH1 0x1F AND DUP3 ADD SWAP2 JUMPDEST POP POP POP POP POP DUP2 JUMP JUMPDEST PUSH1 0x0 DUP1 DUP1 SLOAD PUSH2 0x18C9 SWAP1 PUSH2 0x212E JUMP JUMPDEST DUP1 PUSH1 0x1F ADD PUSH1 0x20 DUP1 SWAP2 DIV MUL PUSH1 0x20 ADD PUSH1 0x40 MLOAD SWAP1 DUP2 ADD PUSH1 0x40 MSTORE DUP1 SWAP3 SWAP2 SWAP1 DUP2 DUP2 MSTORE PUSH1 0x20 ADD DUP3 DUP1 SLOAD PUSH2 0x18F5 SWAP1 PUSH2 0x212E JUMP JUMPDEST DUP1 ISZERO PUSH2 0x1942 JUMPI DUP1 PUSH1 0x1F LT PUSH2 0x1917 JUMPI PUSH2 0x100 DUP1 DUP4 SLOAD DIV MUL DUP4 MSTORE SWAP2 PUSH1 0x20 ADD SWAP2 PUSH2 0x1942 JUMP JUMPDEST DUP3 ADD SWAP2 SWAP1 PUSH1 0x0 MSTORE PUSH1 0x20 PUSH1 0x0 KECCAK256 SWAP1 JUMPDEST DUP2 SLOAD DUP2 MSTORE SWAP1 PUSH1 0x1 ADD SWAP1 PUSH1 0x20 ADD DUP1 DUP4 GT PUSH2 0x1925 JUMPI DUP3 SWAP1 SUB PUSH1 0x1F AND DUP3 ADD SWAP2 JUMPDEST POP POP POP POP POP SWAP1 POP DUP2 PUSH1 0x0 SWAP1 DUP2 PUSH2 0x1958 SWAP2 SWAP1 PUSH2 0x21B7 JUMP JUMPDEST POP PUSH32 0xC9C7C3FE08B88B4DF9D4D47EF47D2C43D55C025A0BA88CA442580ED9E7348A16 DUP2 DUP4 PUSH1 0x40 MLOAD PUSH2 0x198A SWAP3 SWAP2 SWAP1 PUSH2 0x22D5 JUMP JUMPDEST PUSH1 0x40 MLOAD DUP1 SWAP2 SUB SWAP1 LOG1 POP POP JUMP JUMPDEST PUSH1 0x0 DUP2 MLOAD DUP1 DUP5 MSTORE PUSH1 0x0 JUMPDEST DUP2 DUP2 LT ISZERO PUSH2 0x19BC JUMPI PUSH1 0x20 DUP2 DUP6 ADD DUP2 ADD MLOAD DUP7 DUP4 ADD DUP3 ADD MSTORE ADD PUSH2 0x19A0 JUMP JUMPDEST POP PUSH1 0x0 PUSH1 0x20 DUP3 DUP7 ADD ADD MSTORE PUSH1 0x20 PUSH1 0x1F NOT PUSH1 0x1F DUP4 ADD AND DUP6 ADD ADD SWAP2 POP POP SWAP3 SWAP2 POP POP JUMP JUMPDEST PUSH1 0x0 PUSH1 0x20 DUP1 DUP4 ADD DUP2 DUP5 MSTORE DUP1 DUP6 MLOAD DUP1 DUP4 MSTORE PUSH1 0x40 SWAP3 POP DUP3 DUP7 ADD SWAP2 POP DUP3 DUP2 PUSH1 0x5 SHL DUP8 ADD ADD DUP5 DUP9 ADD PUSH1 0x0 JUMPDEST DUP4 DUP2 LT ISZERO PUSH2 0x1A4F JUMPI PUSH1 0x3F NOT DUP10 DUP5 SUB ADD DUP6 MSTORE DUP2 MLOAD PUSH1 0x60 DUP2 MLOAD DUP6 MSTORE DUP9 DUP3 ADD MLOAD DUP2 DUP11 DUP8 ADD MSTORE PUSH2 0x1A31 DUP3 DUP8 ADD DUP3 PUSH2 0x1996 JUMP JUMPDEST SWAP3 DUP10 ADD MLOAD SWAP6 DUP10 ADD SWAP6 SWAP1 SWAP6 MSTORE POP SWAP5 DUP8 ADD SWAP5 SWAP3 POP SWAP1 DUP7 ADD SWAP1 PUSH1 0x1 ADD PUSH2 0x1A03 JUMP JUMPDEST POP SWAP1 SWAP9 SWAP8 POP POP POP POP POP POP POP POP JUMP JUMPDEST PUSH1 0x0 DUP1 PUSH1 0x40 DUP4 DUP6 SUB SLT ISZERO PUSH2 0x1A70 JUMPI PUSH1 0x0 DUP1 REVERT JUMPDEST POP POP DUP1 CALLDATALOAD SWAP3 PUSH1 0x20 SWAP1 SWAP2 ADD CALLDATALOAD SWAP2 POP JUMP JUMPDEST DUP6 DUP2 MSTORE PUSH1 0x1 PUSH1 0x1 PUSH1 0xA0 SHL SUB DUP6 AND PUSH1 0x20 DUP3 ADD MSTORE PUSH1 0xA0 PUSH1 0x40 DUP3 ADD MSTORE PUSH1 0x0 PUSH2 0x1AA7 PUSH1 0xA0 DUP4 ADD DUP7 PUSH2 0x1996 JUMP JUMPDEST DUP3 DUP2 SUB PUSH1 0x60 DUP5 ADD MSTORE PUSH2 0x1AB9 DUP2 DUP7 PUSH2 0x1996 JUMP JUMPDEST SWAP2 POP POP DUP3 PUSH1 0x80 DUP4 ADD MSTORE SWAP7 SWAP6 POP POP POP POP POP POP JUMP JUMPDEST PUSH1 0x0 PUSH1 0x20 DUP3 DUP5 SUB SLT ISZERO PUSH2 0x1ADE JUMPI PUSH1 0x0 DUP1 REVERT JUMPDEST POP CALLDATALOAD SWAP2 SWAP1 POP JUMP JUMPDEST PUSH1 0x0 PUSH1 0x20 DUP1 DUP4 ADD DUP2 DUP5 MSTORE DUP1 DUP6 MLOAD DUP1 DUP4 MSTORE PUSH1 0x40 SWAP3 POP DUP3 DUP7 ADD SWAP2 POP DUP3 DUP2 PUSH1 0x5 SHL DUP8 ADD ADD DUP5 DUP9 ADD PUSH1 0x0 JUMPDEST DUP4 DUP2 LT ISZERO PUSH2 0x1A4F JUMPI PUSH1 0x3F NOT DUP10 DUP5 SUB ADD DUP6 MSTORE DUP2 MLOAD PUSH1 0xA0 DUP2 MLOAD DUP6 MSTORE PUSH1 0x1 PUSH1 0x1 PUSH1 0xA0 SHL SUB DUP10 DUP4 ADD MLOAD AND DUP10 DUP7 ADD MSTORE DUP8 DUP3 ADD MLOAD DUP2 DUP10 DUP8 ADD MSTORE PUSH2 0x1B4B DUP3 DUP8 ADD DUP3 PUSH2 0x1996 JUMP JUMPDEST SWAP2 POP POP PUSH1 0x60 DUP1 DUP4 ADD MLOAD DUP7 DUP4 SUB DUP3 DUP9 ADD MSTORE PUSH2 0x1B65 DUP4 DUP3 PUSH2 0x1996 JUMP JUMPDEST PUSH1 0x80 SWAP5 DUP6 ADD MLOAD SWAP8 SWAP1 SWAP5 ADD SWAP7 SWAP1 SWAP7 MSTORE POP POP SWAP5 DUP8 ADD SWAP5 SWAP3 POP SWAP1 DUP7 ADD SWAP1 PUSH1 0x1 ADD PUSH2 0x1B0C JUMP JUMPDEST DUP1 CALLDATALOAD PUSH1 0x1 PUSH1 0x1 PUSH1 0xA0 SHL SUB DUP2 AND DUP2 EQ PUSH2 0x1B9E JUMPI PUSH1 0x0 DUP1 REVERT JUMPDEST SWAP2 SWAP1 POP JUMP JUMPDEST PUSH1 0x0 DUP1 PUSH1 0x40 DUP4 DUP6 SUB SLT ISZERO PUSH2 0x1BB6 JUMPI PUSH1 0x0 DUP1 REVERT JUMPDEST PUSH2 0x1BBF DUP4 PUSH2 0x1B87 JUMP JUMPDEST SWAP5 PUSH1 0x20 SWAP4 SWAP1 SWAP4 ADD CALLDATALOAD SWAP4 POP POP POP JUMP JUMPDEST DUP5 DUP2 MSTORE PUSH1 0x0 PUSH1 0x1 PUSH1 0x1 PUSH1 0xA0 SHL SUB DUP1 DUP7 AND PUSH1 0x20 DUP5 ADD MSTORE PUSH1 0x80 PUSH1 0x40 DUP5 ADD MSTORE PUSH2 0x1BF6 PUSH1 0x80 DUP5 ADD DUP7 PUSH2 0x1996 JUMP JUMPDEST SWAP2 POP DUP1 DUP5 AND PUSH1 0x60 DUP5 ADD MSTORE POP SWAP6 SWAP5 POP POP POP POP POP JUMP JUMPDEST PUSH1 0x0 PUSH1 0x20 DUP3 DUP5 SUB SLT ISZERO PUSH2 0x1C1C JUMPI PUSH1 0x0 DUP1 REVERT JUMPDEST PUSH2 0x1C25 DUP3 PUSH2 0x1B87 JUMP JUMPDEST SWAP4 SWAP3 POP POP POP JUMP JUMPDEST DUP5 DUP2 MSTORE PUSH1 0x1 PUSH1 0x1 PUSH1 0xA0 SHL SUB DUP5 AND PUSH1 0x20 DUP3 ADD MSTORE PUSH1 0x80 PUSH1 0x40 DUP3 ADD MSTORE PUSH1 0x0 PUSH2 0x1C54 PUSH1 0x80 DUP4 ADD DUP6 PUSH2 0x1996 JUMP JUMPDEST DUP3 DUP2 SUB PUSH1 0x60 DUP5 ADD MSTORE PUSH2 0x1C66 DUP2 DUP6 PUSH2 0x1996 JUMP JUMPDEST SWAP8 SWAP7 POP POP POP POP POP POP POP JUMP JUMPDEST PUSH1 0x0 PUSH1 0x20 DUP1 DUP4 ADD DUP2 DUP5 MSTORE DUP1 DUP6 MLOAD DUP1 DUP4 MSTORE PUSH1 0x40 SWAP3 POP DUP3 DUP7 ADD SWAP2 POP DUP3 DUP2 PUSH1 0x5 SHL DUP8 ADD ADD DUP5 DUP9 ADD PUSH1 0x0 JUMPDEST DUP4 DUP2 LT ISZERO PUSH2 0x1A4F JUMPI PUSH1 0x3F NOT DUP10 DUP5 SUB ADD DUP6 MSTORE DUP2 MLOAD PUSH1 0x80 DUP2 MLOAD DUP6 MSTORE PUSH1 0x1 PUSH1 0x1 PUSH1 0xA0 SHL SUB DUP10 DUP4 ADD MLOAD AND DUP10 DUP7 ADD MSTORE DUP8 DUP3 ADD MLOAD DUP2 DUP10 DUP8 ADD MSTORE PUSH2 0x1CD7 DUP3 DUP8 ADD DUP3 PUSH2 0x1996 JUMP JUMPDEST SWAP2 POP POP PUSH1 0x60 DUP1 DUP4 ADD MLOAD SWAP3 POP DUP6 DUP3 SUB DUP2 DUP8 ADD MSTORE POP PUSH2 0x1CF4 DUP2 DUP4 PUSH2 0x1996 JUMP JUMPDEST SWAP7 DUP10 ADD SWAP7 SWAP5 POP POP POP SWAP1 DUP7 ADD SWAP1 PUSH1 0x1 ADD PUSH2 0x1C98 JUMP JUMPDEST DUP1 MLOAD DUP3 MSTORE PUSH1 0x0 PUSH1 0x20 DUP3 ADD MLOAD PUSH1 0x1 PUSH1 0x1 PUSH1 0xA0 SHL SUB DUP1 DUP3 AND PUSH1 0x20 DUP7 ADD MSTORE PUSH1 0x40 DUP5 ADD MLOAD SWAP2 POP PUSH1 0x80 PUSH1 0x40 DUP7 ADD MSTORE PUSH2 0x1D3E PUSH1 0x80 DUP7 ADD DUP4 PUSH2 0x1996 JUMP JUMPDEST PUSH1 0x60 SWAP5 DUP6 ADD MLOAD SWAP1 SWAP2 AND SWAP5 SWAP1 SWAP4 ADD SWAP4 SWAP1 SWAP4 MSTORE POP SWAP2 SWAP1 POP JUMP JUMPDEST PUSH1 0x0 PUSH1 0x20 DUP1 DUP4 ADD DUP2 DUP5 MSTORE DUP1 DUP6 MLOAD DUP1 DUP4 MSTORE PUSH1 0x40 DUP7 ADD SWAP2 POP PUSH1 0x40 DUP2 PUSH1 0x5 SHL DUP8 ADD ADD SWAP3 POP DUP4 DUP8 ADD PUSH1 0x0 JUMPDEST DUP3 DUP2 LT ISZERO PUSH2 0x1DAA JUMPI PUSH1 0x3F NOT DUP9 DUP7 SUB ADD DUP5 MSTORE PUSH2 0x1D98 DUP6 DUP4 MLOAD PUSH2 0x1D08 JUMP JUMPDEST SWAP5 POP SWAP3 DUP6 ADD SWAP3 SWAP1 DUP6 ADD SWAP1 PUSH1 0x1 ADD PUSH2 0x1D7C JUMP JUMPDEST POP SWAP3 SWAP8 SWAP7 POP POP POP POP POP POP POP JUMP JUMPDEST PUSH4 0x4E487B71 PUSH1 0xE0 SHL PUSH1 0x0 MSTORE PUSH1 0x41 PUSH1 0x4 MSTORE PUSH1 0x24 PUSH1 0x0 REVERT JUMPDEST PUSH1 0x0 DUP3 PUSH1 0x1F DUP4 ADD SLT PUSH2 0x1DDE JUMPI PUSH1 0x0 DUP1 REVERT JUMPDEST DUP2 CALLDATALOAD PUSH8 0xFFFFFFFFFFFFFFFF DUP1 DUP3 GT ISZERO PUSH2 0x1DF9 JUMPI PUSH2 0x1DF9 PUSH2 0x1DB7 JUMP JUMPDEST PUSH1 0x40 MLOAD PUSH1 0x1F DUP4 ADD PUSH1 0x1F NOT SWAP1 DUP2 AND PUSH1 0x3F ADD AND DUP2 ADD SWAP1 DUP3 DUP3 GT DUP2 DUP4 LT OR ISZERO PUSH2 0x1E21 JUMPI PUSH2 0x1E21 PUSH2 0x1DB7 JUMP JUMPDEST DUP2 PUSH1 0x40 MSTORE DUP4 DUP2 MSTORE DUP7 PUSH1 0x20 DUP6 DUP9 ADD ADD GT ISZERO PUSH2 0x1E3A JUMPI PUSH1 0x0 DUP1 REVERT JUMPDEST DUP4 PUSH1 0x20 DUP8 ADD PUSH1 0x20 DUP4 ADD CALLDATACOPY PUSH1 0x0 PUSH1 0x20 DUP6 DUP4 ADD ADD MSTORE DUP1 SWAP5 POP POP POP POP POP SWAP3 SWAP2 POP POP JUMP JUMPDEST PUSH1 0x0 DUP1 PUSH1 0x0 DUP1 PUSH1 0x0 PUSH1 0xA0 DUP7 DUP9 SUB SLT ISZERO PUSH2 0x1E72 JUMPI PUSH1 0x0 DUP1 REVERT JUMPDEST DUP6 CALLDATALOAD SWAP5 POP PUSH1 0x20 DUP7 ADD CALLDATALOAD PUSH8 0xFFFFFFFFFFFFFFFF DUP1 DUP3 GT ISZERO PUSH2 0x1E91 JUMPI PUSH1 0x0 DUP1 REVERT JUMPDEST PUSH2 0x1E9D DUP10 DUP4 DUP11 ADD PUSH2 0x1DCD JUMP JUMPDEST SWAP6 POP PUSH1 0x40 DUP9 ADD CALLDATALOAD SWAP2 POP DUP1 DUP3 GT ISZERO PUSH2 0x1EB3 JUMPI PUSH1 0x0 DUP1 REVERT JUMPDEST POP PUSH2 0x1EC0 DUP9 DUP3 DUP10 ADD PUSH2 0x1DCD JUMP JUMPDEST SWAP4 POP POP PUSH1 0x60 DUP7 ADD CALLDATALOAD SWAP2 POP PUSH2 0x1ED6 PUSH1 0x80 DUP8 ADD PUSH2 0x1B87 JUMP JUMPDEST SWAP1 POP SWAP3 SWAP6 POP SWAP3 SWAP6 SWAP1 SWAP4 POP JUMP JUMPDEST PUSH1 0x0 DUP1 PUSH1 0x0 PUSH1 0x60 DUP5 DUP7 SUB SLT ISZERO PUSH2 0x1EF7 JUMPI PUSH1 0x0 DUP1 REVERT JUMPDEST PUSH2 0x1F00 DUP5 PUSH2 0x1B87 JUMP JUMPDEST SWAP3 POP PUSH1 0x20 DUP5 ADD CALLDATALOAD PUSH8 0xFFFFFFFFFFFFFFFF DUP1 DUP3 GT ISZERO PUSH2 0x1F1D JUMPI PUSH1 0x0 DUP1 REVERT JUMPDEST PUSH2 0x1F29 DUP8 DUP4 DUP9 ADD PUSH2 0x1DCD JUMP JUMPDEST SWAP4 POP PUSH1 0x40 DUP7 ADD CALLDATALOAD SWAP2 POP DUP1 DUP3 GT ISZERO PUSH2 0x1F3F JUMPI PUSH1 0x0 DUP1 REVERT JUMPDEST POP PUSH2 0x1F4C DUP7 DUP3 DUP8 ADD PUSH2 0x1DCD JUMP JUMPDEST SWAP2 POP POP SWAP3 POP SWAP3 POP SWAP3 JUMP JUMPDEST PUSH1 0x0 DUP1 PUSH1 0x0 PUSH1 0x60 DUP5 DUP7 SUB SLT ISZERO PUSH2 0x1F6B JUMPI PUSH1 0x0 DUP1 REVERT JUMPDEST DUP4 CALLDATALOAD PUSH8 0xFFFFFFFFFFFFFFFF DUP2 GT ISZERO PUSH2 0x1F82 JUMPI PUSH1 0x0 DUP1 REVERT JUMPDEST PUSH2 0x1F8E DUP7 DUP3 DUP8 ADD PUSH2 0x1DCD JUMP JUMPDEST SWAP4 POP POP PUSH2 0x1F9D PUSH1 0x20 DUP6 ADD PUSH2 0x1B87 JUMP JUMPDEST SWAP2 POP PUSH2 0x1FAB PUSH1 0x40 DUP6 ADD PUSH2 0x1B87 JUMP JUMPDEST SWAP1 POP SWAP3 POP SWAP3 POP SWAP3 JUMP JUMPDEST PUSH1 0x0 DUP1 PUSH1 0x0 PUSH1 0x60 DUP5 DUP7 SUB SLT ISZERO PUSH2 0x1FC9 JUMPI PUSH1 0x0 DUP1 REVERT JUMPDEST PUSH2 0x1FD2 DUP5 PUSH2 0x1B87 JUMP JUMPDEST SWAP3 POP PUSH1 0x20 DUP5 ADD CALLDATALOAD PUSH8 0xFFFFFFFFFFFFFFFF DUP2 GT ISZERO PUSH2 0x1FEE JUMPI PUSH1 0x0 DUP1 REVERT JUMPDEST PUSH2 0x1FFA DUP7 DUP3 DUP8 ADD PUSH2 0x1DCD JUMP JUMPDEST SWAP3 POP POP PUSH1 0x40 DUP5 ADD CALLDATALOAD SWAP1 POP SWAP3 POP SWAP3 POP SWAP3 JUMP JUMPDEST PUSH1 0x0 DUP1 PUSH1 0x0 PUSH1 0x60 DUP5 DUP7 SUB SLT ISZERO PUSH2 0x2020 JUMPI PUSH1 0x0 DUP1 REVERT JUMPDEST PUSH2 0x2029 DUP5 PUSH2 0x1B87 JUMP JUMPDEST SWAP3 POP PUSH1 0x20 DUP5 ADD CALLDATALOAD PUSH8 0xFFFFFFFFFFFFFFFF DUP2 GT ISZERO PUSH2 0x2045 JUMPI PUSH1 0x0 DUP1 REVERT JUMPDEST PUSH2 0x2051 DUP7 DUP3 DUP8 ADD PUSH2 0x1DCD JUMP JUMPDEST SWAP3 POP POP PUSH2 0x1FAB PUSH1 0x40 DUP6 ADD PUSH2 0x1B87 JUMP JUMPDEST PUSH1 0x0 PUSH1 0x20 DUP3 DUP5 SUB SLT ISZERO PUSH2 0x2072 JUMPI PUSH1 0x0 DUP1 REVERT JUMPDEST DUP2 CALLDATALOAD PUSH8 0xFFFFFFFFFFFFFFFF DUP2 GT ISZERO PUSH2 0x2089 JUMPI PUSH1 0x0 DUP1 REVERT JUMPDEST PUSH2 0x2095 DUP5 DUP3 DUP6 ADD PUSH2 0x1DCD JUMP JUMPDEST SWAP5 SWAP4 POP POP POP POP JUMP JUMPDEST PUSH1 0x0 PUSH1 0x20 DUP1 DUP4 ADD DUP2 DUP5 MSTORE DUP1 DUP6 MLOAD DUP1 DUP4 MSTORE PUSH1 0x40 DUP7 ADD SWAP2 POP PUSH1 0x40 DUP2 PUSH1 0x5 SHL DUP8 ADD ADD SWAP3 POP DUP4 DUP8 ADD PUSH1 0x0 JUMPDEST DUP3 DUP2 LT ISZERO PUSH2 0x1DAA JUMPI PUSH1 0x3F NOT DUP9 DUP7 SUB ADD DUP5 MSTORE PUSH2 0x20E0 DUP6 DUP4 MLOAD PUSH2 0x1D08 JUMP JUMPDEST SWAP5 POP SWAP3 DUP6 ADD SWAP3 SWAP1 DUP6 ADD SWAP1 PUSH1 0x1 ADD PUSH2 0x20C4 JUMP JUMPDEST DUP4 DUP2 MSTORE PUSH1 0x60 PUSH1 0x20 DUP3 ADD MSTORE PUSH1 0x0 PUSH2 0x210B PUSH1 0x60 DUP4 ADD DUP6 PUSH2 0x1996 JUMP JUMPDEST SWAP1 POP DUP3 PUSH1 0x40 DUP4 ADD MSTORE SWAP5 SWAP4 POP POP POP POP JUMP JUMPDEST PUSH1 0x20 DUP2 MSTORE PUSH1 0x0 PUSH2 0x1C25 PUSH1 0x20 DUP4 ADD DUP5 PUSH2 0x1996 JUMP JUMPDEST PUSH1 0x1 DUP2 DUP2 SHR SWAP1 DUP3 AND DUP1 PUSH2 0x2142 JUMPI PUSH1 0x7F DUP3 AND SWAP2 POP JUMPDEST PUSH1 0x20 DUP3 LT DUP2 SUB PUSH2 0x2162 JUMPI PUSH4 0x4E487B71 PUSH1 0xE0 SHL PUSH1 0x0 MSTORE PUSH1 0x22 PUSH1 0x4 MSTORE PUSH1 0x24 PUSH1 0x0 REVERT JUMPDEST POP SWAP2 SWAP1 POP JUMP JUMPDEST PUSH1 0x1F DUP3 GT ISZERO PUSH2 0x21B2 JUMPI PUSH1 0x0 DUP2 DUP2 MSTORE PUSH1 0x20 DUP2 KECCAK256 PUSH1 0x1F DUP6 ADD PUSH1 0x5 SHR DUP2 ADD PUSH1 0x20 DUP7 LT ISZERO PUSH2 0x218F JUMPI POP DUP1 JUMPDEST PUSH1 0x1F DUP6 ADD PUSH1 0x5 SHR DUP3 ADD SWAP2 POP JUMPDEST DUP2 DUP2 LT ISZERO PUSH2 0x21AE JUMPI DUP3 DUP2 SSTORE PUSH1 0x1 ADD PUSH2 0x219B JUMP JUMPDEST POP POP POP JUMPDEST POP POP POP JUMP JUMPDEST DUP2 MLOAD PUSH8 0xFFFFFFFFFFFFFFFF DUP2 GT ISZERO PUSH2 0x21D1 JUMPI PUSH2 0x21D1 PUSH2 0x1DB7 JUMP JUMPDEST PUSH2 0x21E5 DUP2 PUSH2 0x21DF DUP5 SLOAD PUSH2 0x212E JUMP JUMPDEST DUP5 PUSH2 0x2168 JUMP JUMPDEST PUSH1 0x20 DUP1 PUSH1 0x1F DUP4 GT PUSH1 0x1 DUP2 EQ PUSH2 0x221A JUMPI PUSH1 0x0 DUP5 ISZERO PUSH2 0x2202 JUMPI POP DUP6 DUP4 ADD MLOAD JUMPDEST PUSH1 0x0 NOT PUSH1 0x3 DUP7 SWAP1 SHL SHR NOT AND PUSH1 0x1 DUP6 SWAP1 SHL OR DUP6 SSTORE PUSH2 0x21AE JUMP JUMPDEST PUSH1 0x0 DUP6 DUP2 MSTORE PUSH1 0x20 DUP2 KECCAK256 PUSH1 0x1F NOT DUP7 AND SWAP2 JUMPDEST DUP3 DUP2 LT ISZERO PUSH2 0x2249 JUMPI DUP9 DUP7 ADD MLOAD DUP3 SSTORE SWAP5 DUP5 ADD SWAP5 PUSH1 0x1 SWAP1 SWAP2 ADD SWAP1 DUP5 ADD PUSH2 0x222A JUMP JUMPDEST POP DUP6 DUP3 LT ISZERO PUSH2 0x2267 JUMPI DUP8 DUP6 ADD MLOAD PUSH1 0x0 NOT PUSH1 0x3 DUP9 SWAP1 SHL PUSH1 0xF8 AND SHR NOT AND DUP2 SSTORE JUMPDEST POP POP POP POP POP PUSH1 0x1 SWAP1 DUP2 SHL ADD SWAP1 SSTORE POP JUMP JUMPDEST PUSH4 0x4E487B71 PUSH1 0xE0 SHL PUSH1 0x0 MSTORE PUSH1 0x11 PUSH1 0x4 MSTORE PUSH1 0x24 PUSH1 0x0 REVERT JUMPDEST DUP1 DUP3 ADD DUP1 DUP3 GT ISZERO PUSH2 0x22A0 JUMPI PUSH2 0x22A0 PUSH2 0x2277 JUMP JUMPDEST SWAP3 SWAP2 POP POP JUMP JUMPDEST PUSH1 0x0 PUSH1 0x1 DUP3 ADD PUSH2 0x22B8 JUMPI PUSH2 0x22B8 PUSH2 0x2277 JUMP JUMPDEST POP PUSH1 0x1 ADD SWAP1 JUMP JUMPDEST PUSH4 0x4E487B71 PUSH1 0xE0 SHL PUSH1 0x0 MSTORE PUSH1 0x32 PUSH1 0x4 MSTORE PUSH1 0x24 PUSH1 0x0 REVERT JUMPDEST PUSH1 0x40 DUP2 MSTORE PUSH1 0x0 PUSH2 0x22E8 PUSH1 0x40 DUP4 ADD DUP6 PUSH2 0x1996 JUMP JUMPDEST DUP3 DUP2 SUB PUSH1 0x20 DUP5 ADD MSTORE PUSH2 0x22FA DUP2 DUP6 PUSH2 0x1996 JUMP JUMPDEST SWAP6 SWAP5 POP POP POP POP POP JUMP INVALID LOG2 PUSH5 0x6970667358 0x22 SLT KECCAK256 0xD6 0xD3 CALLDATALOAD 0xDF 0xD2 SELFDESTRUCT 0xE6 PUSH18 0x91D83A4F38447786E7C5C9929EC12480025E PUSH2 0x3338 SELFBALANCE PUSH10 0x7364736F6C6343000811 STOP CALLER "
    },
    "gasEstimates": {
      "creation": {
        "codeDepositCost": "1803400",
        "executionCost": "31139",
        "totalCost": "1834539"
      },
      "external": {
        "addProduct(address,string,uint256)": "infinite",
        "addProductTInfo(uint256,string,string,uint256,address)": "infinite",
        "adminCount()": "2385",
        "adminSt(uint256)": "infinite",
        "adminsM(address)": "infinite",
        "checkIfCompAdmin(address)": "infinite",
        "checkIfOwner(address)": "2615",
        "checkIfSupplier(address)": "infinite",
        "contractURI()": "infinite",
        "getAllProducts()": "infinite",
        "getProductHist(uint256)": "infinite",
        "owner()": "2382",
        "productIM(uint256,uint256)": "infinite",
        "productSt(uint256)": "infinite",
        "registerNewAdmin(address,string,string)": "infinite",
        "registerNewSupplier(address,string,address)": "infinite",
        "registerNewWorker(string,address,address)": "infinite",
        "setContractURI(string)": "infinite",
        "supplierM(address,uint256)": "infinite",
        "supplierSt(uint256)": "infinite",
        "viewAllAdmins()": "infinite",
        "viewAllSuppliers(address)": "infinite",
        "viewAllWorkers(address)": "infinite",
        "workerM(address,uint256)": "infinite",
        "workerSt(uint256)": "infinite"
      },
      "internal": {
        "_canSetContractURI()": "infinite"
      }
    },
    "methodIdentifiers": {
      "addProduct(address,string,uint256)": "727f682b",
      "addProductTInfo(uint256,string,string,uint256,address)": "57e899e3",
      "adminCount()": "2b7832b3",
      "adminSt(uint256)": "8b207dd8",
      "adminsM(address)": "2af673a3",
      "checkIfCompAdmin(address)": "cca5822f",
      "checkIfOwner(address)": "c022eb28",
      "checkIfSupplier(address)": "89ca5b68",
      "contractURI()": "e8a3d485",
      "getAllProducts()": "02ee3a52",
      "getProductHist(uint256)": "0ea69718",
      "owner()": "8da5cb5b",
      "productIM(uint256,uint256)": "0e4e60d7",
      "productSt(uint256)": "dde9c196",
      "registerNewAdmin(address,string,string)": "583716ae",
      "registerNewSupplier(address,string,address)": "862ac083",
      "registerNewWorker(string,address,address)": "62f080b0",
      "setContractURI(string)": "938e3d7b",
      "supplierM(address,uint256)": "149d7e7f",
      "supplierSt(uint256)": "9acc36b5",
      "viewAllAdmins()": "5083f4b3",
      "viewAllSuppliers(address)": "538875e1",
      "viewAllWorkers(address)": "ac3aeac9",
      "workerM(address,uint256)": "a59ec470",
      "workerSt(uint256)": "ae422599"
    }
  },
  "storageLayout": {
    "storage": [
      {
        "astId": 487,
        "contract": "Supply.sol:Supply",
        "label": "contractURI",
        "offset": 0,
        "slot": "0",
        "type": "t_string_storage"
      },
      {
        "astId": 6,
        "contract": "Supply.sol:Supply",
        "label": "owner",
        "offset": 0,
        "slot": "1",
        "type": "t_address"
      },
      {
        "astId": 8,
        "contract": "Supply.sol:Supply",
        "label": "adminCount",
        "offset": 0,
        "slot": "2",
        "type": "t_uint256"
      },
      {
        "astId": 62,
        "contract": "Supply.sol:Supply",
        "label": "adminsM",
        "offset": 0,
        "slot": "3",
        "type": "t_mapping(t_address,t_struct(AdminI)17_storage)"
      },
      {
        "astId": 68,
        "contract": "Supply.sol:Supply",
        "label": "supplierM",
        "offset": 0,
        "slot": "4",
        "type": "t_mapping(t_address,t_array(t_struct(SupplierI)26_storage)dyn_storage)"
      },
      {
        "astId": 74,
        "contract": "Supply.sol:Supply",
        "label": "workerM",
        "offset": 0,
        "slot": "5",
        "type": "t_mapping(t_address,t_array(t_struct(WorkerI)35_storage)dyn_storage)"
      },
      {
        "astId": 80,
        "contract": "Supply.sol:Supply",
        "label": "productIM",
        "offset": 0,
        "slot": "6",
        "type": "t_mapping(t_uint256,t_array(t_struct(ProductIT)53_storage)dyn_storage)"
      },
      {
        "astId": 84,
        "contract": "Supply.sol:Supply",
        "label": "adminSt",
        "offset": 0,
        "slot": "7",
        "type": "t_array(t_struct(AdminI)17_storage)dyn_storage"
      },
      {
        "astId": 88,
        "contract": "Supply.sol:Supply",
        "label": "supplierSt",
        "offset": 0,
        "slot": "8",
        "type": "t_array(t_struct(SupplierI)26_storage)dyn_storage"
      },
      {
        "astId": 92,
        "contract": "Supply.sol:Supply",
        "label": "workerSt",
        "offset": 0,
        "slot": "9",
        "type": "t_array(t_struct(WorkerI)35_storage)dyn_storage"
      },
      {
        "astId": 96,
        "contract": "Supply.sol:Supply",
        "label": "productSt",
        "offset": 0,
        "slot": "10",
        "type": "t_array(t_struct(ProductInfo)42_storage)dyn_storage"
      }
    ],
    "types": {
      "t_address": {
        "encoding": "inplace",
        "label": "address",
        "numberOfBytes": "20"
      },
      "t_array(t_struct(AdminI)17_storage)dyn_storage": {
        "base": "t_struct(AdminI)17_storage",
        "encoding": "dynamic_array",
        "label": "struct Supply.AdminI[]",
        "numberOfBytes": "32"
      },
      "t_array(t_struct(ProductIT)53_storage)dyn_storage": {
        "base": "t_struct(ProductIT)53_storage",
        "encoding": "dynamic_array",
        "label": "struct Supply.ProductIT[]",
        "numberOfBytes": "32"
      },
      "t_array(t_struct(ProductInfo)42_storage)dyn_storage": {
        "base": "t_struct(ProductInfo)42_storage",
        "encoding": "dynamic_array",
        "label": "struct Supply.ProductInfo[]",
        "numberOfBytes": "32"
      },
      "t_array(t_struct(SupplierI)26_storage)dyn_storage": {
        "base": "t_struct(SupplierI)26_storage",
        "encoding": "dynamic_array",
        "label": "struct Supply.SupplierI[]",
        "numberOfBytes": "32"
      },
      "t_array(t_struct(WorkerI)35_storage)dyn_storage": {
        "base": "t_struct(WorkerI)35_storage",
        "encoding": "dynamic_array",
        "label": "struct Supply.WorkerI[]",
        "numberOfBytes": "32"
      },
      "t_mapping(t_address,t_array(t_struct(SupplierI)26_storage)dyn_storage)": {
        "encoding": "mapping",
        "key": "t_address",
        "label": "mapping(address => struct Supply.SupplierI[])",
        "numberOfBytes": "32",
        "value": "t_array(t_struct(SupplierI)26_storage)dyn_storage"
      },
      "t_mapping(t_address,t_array(t_struct(WorkerI)35_storage)dyn_storage)": {
        "encoding": "mapping",
        "key": "t_address",
        "label": "mapping(address => struct Supply.WorkerI[])",
        "numberOfBytes": "32",
        "value": "t_array(t_struct(WorkerI)35_storage)dyn_storage"
      },
      "t_mapping(t_address,t_struct(AdminI)17_storage)": {
        "encoding": "mapping",
        "key": "t_address",
        "label": "mapping(address => struct Supply.AdminI)",
        "numberOfBytes": "32",
        "value": "t_struct(AdminI)17_storage"
      },
      "t_mapping(t_uint256,t_array(t_struct(ProductIT)53_storage)dyn_storage)": {
        "encoding": "mapping",
        "key": "t_uint256",
        "label": "mapping(uint256 => struct Supply.ProductIT[])",
        "numberOfBytes": "32",
        "value": "t_array(t_struct(ProductIT)53_storage)dyn_storage"
      },
      "t_string_storage": {
        "encoding": "bytes",
        "label": "string",
        "numberOfBytes": "32"
      },
      "t_struct(AdminI)17_storage": {
        "encoding": "inplace",
        "label": "struct Supply.AdminI",
        "members": [
          {
            "astId": 10,
            "contract": "Supply.sol:Supply",
            "label": "adminId",
            "offset": 0,
            "slot": "0",
            "type": "t_uint256"
          },
          {
            "astId": 12,
            "contract": "Supply.sol:Supply",
            "label": "adminAdd",
            "offset": 0,
            "slot": "1",
            "type": "t_address"
          },
          {
            "astId": 14,
            "contract": "Supply.sol:Supply",
            "label": "name",
            "offset": 0,
            "slot": "2",
            "type": "t_string_storage"
          },
          {
            "astId": 16,
            "contract": "Supply.sol:Supply",
            "label": "company_name",
            "offset": 0,
            "slot": "3",
            "type": "t_string_storage"
          }
        ],
        "numberOfBytes": "128"
      },
      "t_struct(ProductIT)53_storage": {
        "encoding": "inplace",
        "label": "struct Supply.ProductIT",
        "members": [
          {
            "astId": 44,
            "contract": "Supply.sol:Supply",
            "label": "healthPerc",
            "offset": 0,
            "slot": "0",
            "type": "t_uint256"
          },
          {
            "astId": 46,
            "contract": "Supply.sol:Supply",
            "label": "workerA",
            "offset": 0,
            "slot": "1",
            "type": "t_address"
          },
          {
            "astId": 48,
            "contract": "Supply.sol:Supply",
            "label": "place",
            "offset": 0,
            "slot": "2",
            "type": "t_string_storage"
          },
          {
            "astId": 50,
            "contract": "Supply.sol:Supply",
            "label": "time",
            "offset": 0,
            "slot": "3",
            "type": "t_string_storage"
          },
          {
            "astId": 52,
            "contract": "Supply.sol:Supply",
            "label": "productId",
            "offset": 0,
            "slot": "4",
            "type": "t_uint256"
          }
        ],
        "numberOfBytes": "160"
      },
      "t_struct(ProductInfo)42_storage": {
        "encoding": "inplace",
        "label": "struct Supply.ProductInfo",
        "members": [
          {
            "astId": 37,
            "contract": "Supply.sol:Supply",
            "label": "productId",
            "offset": 0,
            "slot": "0",
            "type": "t_uint256"
          },
          {
            "astId": 39,
            "contract": "Supply.sol:Supply",
            "label": "name",
            "offset": 0,
            "slot": "1",
            "type": "t_string_storage"
          },
          {
            "astId": 41,
            "contract": "Supply.sol:Supply",
            "label": "adminId",
            "offset": 0,
            "slot": "2",
            "type": "t_uint256"
          }
        ],
        "numberOfBytes": "96"
      },
      "t_struct(SupplierI)26_storage": {
        "encoding": "inplace",
        "label": "struct Supply.SupplierI",
        "members": [
          {
            "astId": 19,
            "contract": "Supply.sol:Supply",
            "label": "supplierId",
            "offset": 0,
            "slot": "0",
            "type": "t_uint256"
          },
          {
            "astId": 21,
            "contract": "Supply.sol:Supply",
            "label": "supplierDD",
            "offset": 0,
            "slot": "1",
            "type": "t_address"
          },
          {
            "astId": 23,
            "contract": "Supply.sol:Supply",
            "label": "name",
            "offset": 0,
            "slot": "2",
            "type": "t_string_storage"
          },
          {
            "astId": 25,
            "contract": "Supply.sol:Supply",
            "label": "adminAdd",
            "offset": 0,
            "slot": "3",
            "type": "t_address"
          }
        ],
        "numberOfBytes": "128"
      },
      "t_struct(WorkerI)35_storage": {
        "encoding": "inplace",
        "label": "struct Supply.WorkerI",
        "members": [
          {
            "astId": 28,
            "contract": "Supply.sol:Supply",
            "label": "workerId",
            "offset": 0,
            "slot": "0",
            "type": "t_uint256"
          },
          {
            "astId": 30,
            "contract": "Supply.sol:Supply",
            "label": "workerDD",
            "offset": 0,
            "slot": "1",
            "type": "t_address"
          },
          {
            "astId": 32,
            "contract": "Supply.sol:Supply",
            "label": "name",
            "offset": 0,
            "slot": "2",
            "type": "t_string_storage"
          },
          {
            "astId": 34,
            "contract": "Supply.sol:Supply",
            "label": "supplierAdd",
            "offset": 0,
            "slot": "3",
            "type": "t_address"
          }
        ],
        "numberOfBytes": "128"
      },
      "t_uint256": {
        "encoding": "inplace",
        "label": "uint256",
        "numberOfBytes": "32"
      }
    }
  },
  "userdoc": {
    "kind": "user",
    "methods": {
      "contractURI()": {
        "notice": "Returns the contract metadata URI."
      },
      "setContractURI(string)": {
        "notice": "Lets a contract admin set the URI for contract-level metadata."
      }
    },
    "version": 1
  }
}